:020000040800F2
:1000000098700020A10100086B3A0008DF2D00085D
:10001000693A00081114000881450008000000003A
:100020000000000000000000000000000D3D00087E
:10003000E914000800000000713B0008113D0008B1
:10004000BB010008BB010008BB010008BB010008A0
:10005000BB010008BB010008BB010008BB01000890
:10006000BB010008BB010008BB010008BB01000880
:10007000BB010008BB010008BB010008BB01000870
:10008000BB010008BB010008BB010008BB01000860
:10009000BB010008BB010008BB010008BB01000850
:1000A000BB010008BB010008BB010008BB01000840
:1000B0001D3E0008C53E0008BB010008BB0100084A
:1000C000BB010008BB010008BB010008753B00082C
:1000D000BB01000841450008BB010008BB01000846
:1000E000BB010008BB010008BB010008BB01000800
:1000F000BB010008BB010008BB010008BB010008F0
:10010000BB010008BB010008BB010008BB010008DF
:10011000BB01000809420008BB010008BB01000840
:1001200015140008BB010008211400082D14000854
:10013000BB010008BB010008BB010008BB010008AF
:10014000BB010008BB010008BB010008BB0100089F
:10015000BB010008BB01000839140008BB010008FE
:10016000BB010008BB010008BB010008BB0100087F
:10017000BB010008BB010008BB0100080000000033
:10018000BB010008BB010008DFF810D001F09EF8A9
:1001900000480047194F0008AFF300809870002016
:1001A0000648804706480047FEE7FEE7FEE7FEE711
:1001B000FEE7FEE7FEE7FEE7FEE7FEE7013E00089A
:1001C000890100089FED3A0A5FEA920C53D000BF04
:1001D000F0EC010A0B1DB0EC011A60EEA00A41EE32
:1001E000010AF5EEC00AF1EE10FAC6BFB1EEE01A50
:1001F00081ED001A81ED000AF0EC010A191DB0EC46
:10020000011A60EEA00A41EE010AF5EEC00AF1EE15
:1002100010FAC6BFB1EEE01A83ED001A83ED000AB2
:10022000F0EC010A0B1DB0EC011A60EEA00A41EEE1
:10023000010AF5EEC00AF1EE10FAC6BFB1EEE01AFF
:1002400081ED001A81ED000AF0EC010A191DB0ECF5
:10025000011A60EEA00A41EE010AF5EEC00AF1EEC5
:1002600010FAC6BFB1EEE01A83ED001A83ED000A62
:10027000BCF1010CACD112F0030208BF704700BF03
:10028000F0EC010A0B46B0EC011A091D60EEA00A61
:1002900041EE010AF5EEC00AF1EE10FAC6BFB1EE6A
:1002A000E01A83ED001A83ED000A521EE8D1704770
:1002B000000000002DE9F04F8D082DED048B82B079
:1002C0000026AC463446019506EB0C0909EB0C0AF6
:1002D0000AEB0C0800EBC60700EBC90900EBCA0AE1
:1002E00000EBC80897ED003AD9ED003ADAED006A64
:1002F00098ED006A97ED010ADAED014A33EE265ACD
:1003000073EE860A99ED014AD8ED015A30EE241AAF
:100310004FEA440B02EBCB0E70EE644A74EE251AE2
:1003200035EE200A9EED002ADEED012A87ED000A57
:1003300031EE210A73EEC63A34EE656A87ED010AA2
:1003400035EE600A33EE663A71EE610A02EBC407DD
:1003500074EEE35A33EE064A97ED005A73EEA41A90
:10036000D7ED014A33EE461A24EE056A0BEB04077B
:1003700025EE855A02EBC70760EE026A65EEA45AC5
:1003800024EE244A97ED003AD7ED013A60EEA24AF6
:1003900020EE822A21EE037A20EE220A61EEA30AE1
:1003A00021EE833A61EE231A76EEA42A32EE400A59
:1003B00036EE251A75EE443AC9ED002A77EE200A8A
:1003C00089ED010A73EE611A8AED001ACAED013A4D
:1003D000C8ED000A761CC8ED011A1C446D1E7FF49E
:1003E00073AF4FF6FF7404EA830B019B0093042B59
:1003F0007DD966464FEA9C0C4FF00008C146ACF12F
:10040000010E00BF4FEA480303EB080402EBC303ED
:1004100002EBC80593ED003AD3ED014A02EBC403A9
:1004200095ED005AD5ED015A93ED006A93ED014A1E
:10043000D8444B4603EB0C0404EB0C0707EB0C0A07
:1004400000EBC30500EBC70700EBC40400EBCA0ACE
:10045000D5ED003A97ED007AD4ED008A9AED008A46
:1004600095ED010AD4ED010AD7ED017ADAED011A12
:1004700033EEC72A70EE676A70EEE12A33EE877AB0
:1004800078EE883A30EE270A38EEC81A70EEA11AD4
:1004900072EE227A32EE622A77EE232A70EE618AB9
:1004A00036EEC18A30EE210A77EE630A31EE261A63
:1004B000C5ED002A85ED010A28EE050A67EE856A7A
:1004C00028EE258A20EE837A20EEA49A68EE831A1D
:1004D00062EE062A61EE063A62EE040A67EEA57A3B
:1004E00068EEA48A21EE041A36EE882A00E027E09E
:1004F00077EE286A71EEC91A30EE670AC4ED006A19
:1005000032EE811AC4ED011A73EEE00A87ED002A7B
:1005100087ED010A8AED001A3344CAED010A8B42C5
:1005200088D309F10109F1457FF66CAF4FF6FF73EF
:1005300003EA8B0B009B9B080093042B3FF659AFFB
:10054000DDF8041090ED000AD0ED042A90ED025A77
:1005500090ED031AD0ED064A90ED073A30EE222ACC
:10056000D0ED011AD0ED050A75EE243A31EE034ABA
:1005700030EE620A71EEA02A31EE431A32EE233ACF
:1005800071EEE00A75EE641A72EE844A32EE632A66
:1005900072EEC43A80ED003A70EE012AC0ED014AD5
:1005A00030EEE14A80ED022A30EE410AC0ED033A16
:1005B00071EEA00AC0ED042A80ED054A80ED060A1E
:1005C000C0ED070A2030491EBCD102B0BDEC048B3F
:1005D000BDE8F08F2DE9F04F4FEA910A2DED048B25
:1005E00082B00024D446A046CDF804A004EB0C054C
:1005F00005EB0C0606EB0C0900EBC40700EBC60686
:1006000000EBC50500EBC909D7ED011AD6ED012AAB
:1006100095ED006AD9ED006AD7ED005A96ED007AA3
:10062000D5ED010A99ED011A36EE262A71EEA23AAD
:1006300035EE873A71EEE21A30EE815A70EEC12A39
:100640004FEA480B02EBCB0E73EE020A9EED004A16
:10065000DEED014AC7ED000A73EE850A36EE666AE2
:1006600075EEC75AC7ED010A33EE422A02EBC807FE
:1006700031EE861A33EEC53A71EEC61A97ED006A6E
:1006800097ED015A75EEE20A0BEB080702EBC7077C
:1006900075EEA22AD7ED005AD7ED013A60EE866AD0
:1006A00022EE047A62EEA57A23EE044A21EE066A6F
:1006B00061EEA55A60EE850A23EE243A22EE242A42
:1006C00021EE051A61EEA31A62EEA32A76EE203A15
:1006D00037EE433A74EE020A36EEC11A85ED003A5F
:1006E00077EEE11AC5ED010A35EEA22A86ED001A71
:1006F000C6ED013AC9ED001A641C89ED012A98443F
:10070000BAF1010A7FF472AF4FF6FF7404EA830B6B
:10071000019B0093042B7CD966464FEA9C0C4FF05A
:100720000008C146ACF1010E4FEA480303EB080490
:1007300002EBC30302EBC805D3ED003A93ED017A57
:1007400002EBC403D5ED006AD5ED015AD3ED004AA2
:1007500093ED013AD8444B4603EB0C0404EB0C0731
:1007600007EB0C0A00EBC30500EBC70700EBC40462
:1007700000EBCA0A95ED012A97ED018A95ED001A62
:10078000D4ED008AD4ED017A97ED009ADAED001AE3
:10079000DAED010A32EE485A71EE492A38EEE14AA2
:1007A00032EE082A37EEA08A37EEE06A78EEA11A18
:1007B00031EE091A75EE048A72EEC67A72EE862A56
:1007C00071EE610A31EE211A35EE444A32EE489A52
:1007D00085ED001A32EE081A28EEA66A27EEA65A10
:1007E00068EEA58A85ED011A20EEA31A69EE231A98
:1007F00022EEA42A24EE248A67EEA57A29EE079A2F
:1008000060EE870A24EE034A62EE832A35EE685AC8
:1008100000E027E036EE276A71EE497A31EEA01A41
:1008200072EE440AC4ED007A84ED011A78EE221AC1
:1008300087ED005A87ED016ACAED000A3344CAED1C
:10084000011A8B4288D309F10109F1457FF66CAF9B
:100850004FF6FF7303EA8B0B009B9B080093042B5E
:100860003FF65AAFDDF8041090ED003AD0ED044A9F
:10087000D0ED032A90ED071A90ED024AD0ED061A4A
:10088000D0ED013AD0ED050A33EE242A72EE815AFA
:1008900033EE643A34EE215A73EEA04A73EEE03A36
:1008A00032EEC11A74EE610A32EE454A72EE052A42
:1008B00074EEA51A34EEE55A73EE414A33EEA02ADF
:1008C00033EE011A33EEE03A62EE805A61EE800AAE
:1008D00064EE003A65EE002AC0ED005A64EE801A1C
:1008E000C0ED010A22EE002AC0ED023A21EE004AD4
:1008F000C0ED032A23EE001AC0ED041A80ED052A8C
:1009000080ED064A80ED071A2030491EACD102B0B6
:10091000BDEC048BBDE8F08F70B504460D468078C1
:100920002188A389626801280ED02846FFF7C2FCFF
:10093000E078012818BF70BDE28921882846A368A5
:10094000BDE8704000F008B994ED040A2846FFF7AE
:1009500041FEEDE770B44FF0000CB0EC010A4E1E02
:100960006446B50830D000BFF0EC010AB0EC011AC3
:10097000B4EEE00AF1EE10FA3CBFB0EE600A0CF102
:100980000104F0EC010AB4EEC10AF1EE10FA3CBF2A
:10099000B0EE410A0CF10204B0EC011AB4EEE00A28
:1009A000F1EE10FA3CBFB0EE600A0CF10304B4EEB5
:1009B000C10AF1EE10FA3CBFB0EE410A0CF104049A
:1009C0000CF1040C6D1ECFD106F0030CBCF1004FEE
:1009D0000FD300BFF0EC010AB4EEE00AF1EE10FA1A
:1009E0003CBFB0EE600AA1EB0C04BCF1010CF1D1EC
:1009F00015E0BCF1000FC4BF002566460FDD00BF47
:100A0000F0EC010AB4EEE00AF1EE10FA04D2ACEB1D
:100A10000504B0EE600A0C1B6D1C761EF0D182ED51
:100A2000000A1C6070BC70472DE9F003002450F8E8
:100A300004CBA1F1010926465FEA99051BD000BF4E
:100A400050F8047B50F8048BBC45BCBFBC46661C08
:100A500050F8047BC445BCBFC446A61C50F8048BA8
:100A6000BC45BCBFBC46E61CC445BCBFC446261D35
:100A7000241D6D1EE4D109F00304B4F1004F08D326
:100A800050F8045BAC45BCBFAC460E1B641EF7D1EE
:100A900010E0251EC8BF4FF000080BDD50F8047BA6
:100AA000BC4503DAA4EB0806BC468E1B08F101081E
:100AB0006D1EF3D1C2F800C01E60BDE8F0037047A0
:100AC0002DE9F003002450F804CBA1F101092646DA
:100AD0005FEA99051BD000BF50F8047B50F8048BE7
:100AE000BC45C4BFBC46661C50F8047BC445C4BFAB
:100AF000C446A61C50F8048BBC45C4BFBC46E61CCB
:100B0000C445C4BFC446261D241D6D1EE4D109F092
:100B10000304B4F1004F08D350F8045BAC45C4BFE4
:100B2000AC460E1B641EF7D110E0251EC8BF4FF067
:100B300000080BDD50F8047BBC4503DDA4EB080680
:100B4000BC468E1B08F101086D1EF3D1C2F800C02F
:100B50001E60BDE8F00370472DE9F0014E08012446
:100B60004FF0000C04EB51076146A6F102082CE09F
:100B700061452AD200EBCC0500EBC104D5ED000A9B
:100B800094ED000AC4ED000A85ED000AD5ED010AD6
:100B900094ED010AC4ED010A85ED010ACC1900EBC0
:100BA000C4050CEB070400EBC40495ED000AD4ED7A
:100BB000000AC5ED000A84ED000AD4ED010A95EDA6
:100BC000010AC5ED010A84ED010A00EBC104B44439
:100BD00000EBCC0C94ED020ADCED000A891CC4ED9C
:100BE000020A8CED000ADCED010A94ED030AC4ED63
:100BF000030A8CED010AB3F800C089B203EB42038B
:100C00004145B5D9BDE8F00170472DE9F007012550
:100C10004C0805EB51064FF0000C651E6146002D97
:100C200088BFA8462ED8BDE8F0077047614529D295
:100C300050F8315050F83C7040F8317040F83C505A
:100C400000EBC10700EBCC097D68D9F804A0C7F818
:100C500004A0C9F804508D190CEB060750F8359024
:100C600050F837A040F835A040F8379000EBC505A4
:100C700000EBC707D5F80490D7F804A0C5F804A086
:100C8000C7F8049000EBC105A444AF6850F83C904D
:100C9000C5F8089040F83C7000EBCC0CEF68DCF82D
:100CA0000490C5F80C90CCF80470B3F800C0891C0F
:100CB00003EB42034145B9D3BDE8F00770472DE986
:100CC000F00F01244D084FF0000C04EB5107012DEB
:100CD0009CBFBDE8F00F7047014600EB870400267B
:100CE0004FEA550815E000BFBCEB460F11D950F88C
:100CF0002CA0D1F80090C1F800A040F82C900CEB8B
:100D00000709D4F800A050F829B0C4F800B040F8A2
:100D100029A0AC44D1F8049050F82CA0C1F804A04C
:100D200040F82C90B3F800C008310834761C03EB6F
:100D30004203B8F10108D7D1BDE8F00F70472DE9A3
:100D4000F05F0546002092469B468846064681464F
:100D500040241BE0284641464746224600F006FA5A
:100D600053465A46C01A914110D31146184622469E
:100D700000F0EDF92D1A67EB01084F4622460120DD
:100D8000002100F0E4F917EB00094E41201EA4F108
:100D90000104DFDC484631462A464346BDE8F09F61
:100DA000D2B201E000F8012B491EFBD270470022AD
:100DB000F6E710B513460A4604461946FFF7F0FF5A
:100DC000204610BD421C10F8011B0029FBD1801ADF
:100DD00070472DE9FE4F804681EA0300C00F0C46A4
:100DE000009021F0004123F00045B8EB0200A9413A
:100DF00005D24046214690461C460B46024623F04B
:100E00000040104347D0270DC7F30A00C3F30A512F
:100E10000290401A019040286BDAC3F3130040F4AB
:100E2000801B0098924620B10023D2EB030A63EBAB
:100E30000B0B01985946C0F14002504600F087F96B
:100E400006460D4650465946019A00F09FF910EBB0
:100E500008006141002487EA115284EAE7731A43CB
:100E600040D0009A62B3019A012A4FEA075215DC7A
:100E7000001B61EB02014FF0004202EA0752CDE98C
:100E80000042001C41F5801132462B4600F09FF9CC
:100E900003B0BDE8F08F40462146F9E7001B61EB47
:100EA0000201001C41F5801300185B412018A2F5D7
:100EB000001747EB030140EAD570B6196D4111E008
:100EC0006D084FEA360645EAC0754FEA0752001B27
:100ED00061EB0201001C41F5801149084FEA300026
:100EE0000019514132462B4603B0BDE8F04F00F0E7
:100EF0005FB90098012240000023D0EB020263EBAF
:100F0000E073009821464FEAE074B8EB000061EB13
:100F10000401E9E783F000435BE781F0004158E713
:100F20002DE9FE4F81EA030404F0004421F0004162
:100F300000944FF0000B23F0004350EA01045ED010
:100F400052EA03045BD0C3F30A54C1F30A552C449C
:100F5000A4F2F3340194A0FB0254C1F3130141F451
:100F60008011C3F3130343F4801301FB024400FB1D
:100F7000034E840A970A44EA815447EA8357A4FB44
:100F8000076802958D0A05FB07854FEA932C04FB41
:100F90000C542705029D4FEA065847EA1637B5EB71
:100FA00008056EEB070C870E920E47EA811742EA9E
:100FB0008312A7FB0201B6EB0B0164EB00042B0DBF
:100FC00043EA0C335E1844EB1C50DA465146E7FB0B
:100FD0000201C5F313044FEA0B3343EA14534FEAFB
:100FE0000432019C43EA0603A4F10C040294009C21
:100FF000CDE900B400F0EBF803B0BDE8F08F0020BD
:101000000146F9E72DE9F04D81EA030404F0004BB5
:1010100021F0004514464FF0000A23F0004150EA49
:10102000050220D054EA01021DD0C5F30A5702463A
:10103000C5F31303C1F31300C1F30A5640F480153E
:1010400043F48013A7EB0608101BD64608F2FD38C0
:1010500073EB050002D308F1010801E092185B412F
:10106000B8F1000F03DA00200146BDE8F08D002042
:101070004FF48011064684460EE0171B73EB0507FC
:1010800005D3121B63EB050306434CEA010C490828
:101090004FEA300092185B4150EA0107EDD152EA65
:1010A000030012D082EA040083EA0501084305D058
:1010B000101BAB4106D20122002306E000224FF0B4
:1010C000004302E06FF0010253101AEB06004CEBF4
:1010D000085110EB0A0041EB0B01BDE8F04D00F0A8
:1010E00067B80EB540F2334102910021CDE90011FD
:1010F0000A460B4600F06BF803B000BD00F000425A
:1011000030F000400AD0C10D01F56071C0F3160047
:1011100042EA0151C20840071143704700200146CE
:10112000704730B50B46014600202022012409E01B
:1011300021FA02F59D4205D303FA02F5491B04FA90
:1011400002F52844151EA2F10102F1DC30BD202A6F
:1011500004DB203A00FA02F1002070479140C2F10E
:10116000200320FA03F3194390407047202A04DB40
:10117000203A21FA02F00021704721FA02F3D04010
:10118000C2F120029140084319467047202A06DB2D
:10119000CB17203A41FA02F043EAE07306E041FA45
:1011A00002F3D040C2F12002914008431946704733
:1011B00010B5141E73F1000408DA401C41F100015F
:1011C00092185B411A4301D120F0010010BD2DE9B6
:1011D000F04D92469B4611B1B1FA81F202E0B0FAAD
:1011E00080F220329046FFF7B2FF04460F4640EAF5
:1011F0000A0041EA0B0153465A46084313D01146F0
:1012000053EA010019D0C8F140025046FFF7AEFF83
:1012100005460E46504659464246FFF798FF08439A
:1012200005D0012004E020463946BDE8F08D0020BD
:10123000054346EAE0762C4337430A986305E40AFF
:10124000A0EB08000022FD0A44EA47540A3002D508
:1012500000200146E9E7010510196941DDE908456B
:1012600000196941BDE8F04DA2E7C1F30A52C1F38C
:10127000130140F2FF3341F480119A4202DA002058
:101280000146704740F233439A42A2F2334202DCF5
:101290005242FFF76BBFFFF75ABF000030B5041E84
:1012A00071F1000404DB4FF00044404264EB0101A3
:1012B000141E73F1000405DB1C464FF0004352423C
:1012C00063EB0403994208BF904230BD064C074DC2
:1012D00006E0E06840F0010394E807009847103406
:1012E000AC42F6D3FEF754FFF07D0008107E0008F4
:1012F00030B58C1810F8012B12F00F0301D110F843
:10130000013B120906D110F8012B03E010F8015B34
:1013100001F8015B5B1EF9D101E001F8013B521EAF
:10132000FBD1A142E6D3002030BD10B50146806B51
:10133000026C12F0500F05D0026CD20626D500F0D8
:10134000DCF810BD016C41F40071016401688A6829
:1013500012F0405F17D1027EAAB9CA6A12F4700F68
:1013600002D08A6852050ED44A6822F020024A60F0
:10137000016C21F480710164016CC90403D4016C17
:1013800041F00101016400F0B1F810BD806BC26C46
:10139000BDE810400846104710B5806B402101643D
:1013A000416C41F00401416400F0A7F810BD10B594
:1013B000806B00F0A1F810BD10B586B0142168460E
:1013C000FFF7F5FC104C0F4810494FF480422060A5
:1013D000A2800B6843F040030B60096801F04001F4
:1013E00005910121CDE900210222CDE902216946C2
:1013F00000F044FBA1880022206800F025FC06B024
:1014000010BD0000001802405C000020303802408F
:10141000FEE70000014800F0ADB90000E40500203F
:10142000014800F0A7B900009C030020014800F02B
:10143000A1B90000BC010020014800F09BB90000E8
:10144000FC03002001681823CAB2103AB2FBF3F281
:10145000054B6FF30901032A9B5CC36500D9091D85
:101460008165084670470000C453000810B5014666
:1014700000208B698A6A4FF0C07453B1B3F5005FE6
:1014800015D072B1012A0CD0022A0AD0032A09D140
:1014900004E01AB1012A06D0022A03D1C96AC9019F
:1014A00000D5012010BDC96AA142FAD010BD002AA2
:1014B000F7D0012AF2D0022AF3D0032AF3D010BDCC
:1014C00030B50468256825F48025256004686360CC
:1014D0008368402B036803D099600068C26030BD08
:1014E0009A600068C16030BD7047704701490120B3
:1014F000087070473001002070477047F8B500232E
:101500000446009390F83C00012807D0012084F89D
:101510003C0020688568ED0702D011E00220F8BD8C
:10152000856845F0010585604048414D0068B0FB85
:10153000F5F000EB400000E0401E00900028FBD1D9
:1015400020688568ED0503D5856825F4807585607C
:1015500020688568ED075FD0256C40F20166B543D1
:1015600045F4807525644068400505D5206C20F45D
:10157000005040F480502064206CC00404D5606C9E
:1015800020F00600606400E0636484F83C30A36BE4
:101590002948284DD863A36B28481864A36B2848B2
:1015A000D86423686FF0220018602068436843F015
:1015B000806343602068836843F4807383601346CC
:1015C00020680A46A66B00F14C01304600F00CFA88
:1015D00068681C49C006206806D0884224D181680A
:1015E00011F0405F13D01FE08842F8D0164A9042B5
:1015F00003D1D1F80423D206F1D0144A904213D17A
:10160000D1F8041301F01F011029E8D30CE0816820
:1016100041F08041816007E0206C40F010002064C0
:10162000606C40F0010060640020F8BD18000020EC
:1016300040420F00002301402B130008AF130008A5
:1016400099130008002001400021014000220140C0
:1016500010B50446002094F83C1001290CD001215B
:1016600084F83C1021688A6822F001028A602168AF
:101670008A68D20702D01DE0022010BD8A6822F4D9
:1016800080728A60A16B91F83520022A07D1084642
:1016900000F014F818B1216C41F040012164216878
:1016A0004A6822F080624A60216C21F4885141F03E
:1016B00001012164002184F83C1010BD2DE9F041A6
:1016C0000446876D00F0C6FA054694F835000026FA
:1016D000022806D08020606584F834600120BDE8CF
:1016E000F0812068016821F01601016020684169DD
:1016F00021F080014161206C08B9A06C20B1206804
:10170000016821F0080101602068016821F00101F1
:1017100001600BE000F09EFA401B052806D920204E
:10172000606504F8346F03206070D8E720680068B3
:10173000C007EFD194F85C103F208840B86004F8EF
:10174000346F012060700020C9E790F8351002293D
:1017500003D08021416501207047052180F83510B4
:101760000068016821F0010101600020704790F8D5
:10177000350070472DE9F84304464FF00009CDF8D5
:10178000009063484FF41651A56D0068B0FBF1F767
:101790002E6894F85C20082101FA02F030420FD044
:1017A0002068026852070BD5026822F0040202602A
:1017B00094F85C008140A960606D40F001006065B4
:1017C00094F85C104FF0010808FA01F0304208D09C
:1017D00021684969090604D5A860606D40F00200DF
:1017E000606594F85C1004208840304208D021687D
:1017F0000968890704D5A860606D40F00400606541
:1018000094F85C1010208840304218D02168096894
:10181000090714D5A86020680168490304D5006849
:10182000000308D5A16C07E00168C90503D401686D
:1018300021F008010160216C09B12046884794F825
:101840005C1020208840304231D021680968C906E8
:101850002DD5A86094F8350005282068016806D0C9
:10186000490347D5006800031DD4616C1CE021F0DA
:10187000160101602068416921F080014161206CFE
:1018800008B9A06C20B12068016821F0080101604E
:1018900094F85C103F208840A86084F8349084F865
:1018A0003580216D1FE0E16B09B120468847606DEE
:1018B00000282BD0606DC00714D0052084F83500B7
:1018C0002068016821F0010101600098401C00902F
:1018D000B84203D820680068C007F6D184F8349075
:1018E00084F83580E16C002910D001B02046BDE8B5
:1018F000F04308470168C905D5D4016821F01001FB
:10190000016084F8349084F83580CCE7BDE8F88332
:10191000180000202DE9F041044600F09BF905462F
:101920005CB1002684F83460022084F83500206819
:10193000016821F0010101600DE00120BDE8F081A6
:1019400000F088F9401B052805D920206065032098
:1019500084F83500F2E720680068C007F0D12168FC
:101960000A6820480240D4E901031843D4E903354A
:101970002B43184363691843A3691843E369184369
:10198000236A18431043626A042A03D1D4E90B2363
:101990001A431043086020684069656A20F0070117
:1019A00028460D43012704280CD1A06A0543E06AAC
:1019B00040B12046FFF75AFD20B14020606584F811
:1019C0003570BAE7206845612046FFF73BFD94F883
:1019D0005C203F2191408160666584F8357000206D
:1019E000ACE700003F8010F02DE9F0410446866D21
:1019F00090F83400002501280DD0012084F834002F
:101A000094F835700020012F07D084F834000225A7
:101A10002846BDE8F0810220FBE7022784F83570F4
:101A200060652046FFF74CFD94F85C103F2088402D
:101A3000B0602068016841F016010160206C20B19F
:101A40002068016841F0080101602068016841F0E8
:101A500001010160DCE7000070B5044600F0FAF80F
:101A60000546601C02D004480078044400F0F2F8F7
:101A7000401BA042FAD370BD0C0000202DE9F84FA6
:101A8000DFF880B100224FF003094FF00F0A0BF18D
:101A9000040E01250B6895402B40AB4272D14C6877
:101AA000012C05D0022C03D0112C01D0122C10D106
:101AB0008668540009FA04F7BE43CF68A74037434D
:101AC000876046680C79AE43C4F3001494403443F5
:101AD0004460C468570009FA07F58E68AC43BE40FD
:101AE0002643C6604C68022C01D0122C12D1D408B7
:101AF00000EB840CDCF820605407E40E0AFA04F8CA
:101B000026EA0806D1F8108008FA04F848EA060820
:101B1000CCF820800468AC430D7905F00305BD4086
:101B2000254305604C68E40065D5374C256845F4CD
:101B300080452560246822F0030504F48044009465
:101B4000324C2E19D6F808789407250F0AFA05F4B6
:101B5000A7432F4CA04201D1002424E02D4CA042E9
:101B600001D101241FE02C4CA04201D102241AE033
:101B70002A4CA04201D1032415E0294CA04202D1F5
:101B8000042410E037E0274CA04201D105240AE0EC
:101B9000254CA04201D1062405E0244CA04201D1ED
:101BA000072400E00824AC403C43C6F80848DBF8B2
:101BB00000405D464E689C43F60300D51C432C60F4
:101BC000DEF8004075464E689C43B60300D51C43C2
:101BD0002C600C4D08352C684E689C43F60200D5ED
:101BE0001C432C60074D0C352C684E689C43B60294
:101BF00000D51C432C60521C102AFFF44AAFBDE8EC
:101C0000F88F0000003C01404438024000300140A1
:101C1000000002400004024000080240000C0240A4
:101C2000001002400014024000180240001C024054
:101C30000069084000D001207047426931EA020281
:101C400000D10904816170470AB1816170470904BC
:101C5000FBE7000001488068704700000C0000208E
:101C60000248816802781144816070470C000020AE
:101C70000B4810B5016841F400710160016841F43E
:101C800080610160016841F480710160032000F00F
:101C90006DF8002000F006F800F024F8002010BDD8
:101CA000003C024070B50D4D04464FF47A7128781F
:101CB000B1FBF0F00A490968B1FBF0F000F076FCE6
:101CC00048B9102C07D200222146501E00F02EF8F1
:101CD00000206C6070BD012070BD00000C00002071
:101CE000180000200A4808B5016841F480410160ED
:101CF000006800F4804000900548001F016841F032
:101D000080510160006800F08050009008BD000024
:101D10004438024000F01F02012191404009800038
:101D200000F1E020C0F8001170470000F0B40E4B45
:101D30001B68C3F30223C3F10704042C00D9042455
:101D40001D1D072D01D2002300E0DB1E012606FA2F
:101D500004F56D1E0D409D409E40761E164045EADE
:101D60000601F0BC01F082BE0CED00E0064A00F076
:101D7000070110684FF6FF03184040EA01200349AD
:101D800008431060704700000CED00E00000FA0509
:101D90002DE9F0470D46040065D0DFF81491D9F81D
:101DA0000000EFB200F00F00A84207D289F80070DF
:101DB000D9F8000000F00F00A84254D120683D4E31
:101DC000810712D5400703D5306840F4E0503060F9
:101DD0002078000703D5306840F4604030603068F8
:101DE000A16820F0F000084330602078C0072DD0B3
:101DF000304960680839012812D0022813D003281E
:101E000011D00968890700292DDA316821F0030112
:101E100001433160FFF71EFF804641F2883A0EE031
:101E200009688903EFE709688901ECE7FFF712FF0A
:101E3000A0EB0801514502D90320BDE8F0873068C6
:101E4000616800F00C00B0EB810FEFD1D9F8001001
:101E5000484601F00F01A94207D90770006800F059
:101E60000F00A84201D00120E7E72078400705D500
:101E70003068E16820F4E0500843306020780007C3
:101E800006D53068216920F4604040EAC100306026
:101E900000F038F83168084AC1F30311515CC840BA
:101EA0000649086006480068FFF7FCFE0020C4E70A
:101EB000003C024008380240CC53000818000020C3
:101EC000100000200448054900680968044AC1F36D
:101ED0008221515CC8407047180000200838024039
:101EE000DC5300080448054900680968044AC1F346
:101EF0004231515CC8407047180000200838024049
:101F0000DC530008154810B5006810F00C011448A7
:101F100013D0431004290FD008290ED10F4C241FD1
:101F2000216801F03F022168490207D52068C0F30B
:101F30008810A0FB030106E0184610BD2168C1F31C
:101F40008811A1FB00010023FEF7F9FE2168C1F30F
:101F50000141491C4900B0FBF1F010BD08380240B6
:101F60000024F4002DE9F84F040075D02078DFF844
:101F700028A3C007AAF1040548D00AF104000168AB
:101F8000C1F38101012908D00068C0F38100022853
:101F90000AD1DAF80000400206D52868800335D55A
:101FA00060680028E1D031E06068B0F5803F10D073
:101FB000B0F5A02F286810D020F480302860286861
:101FC00020F4802028606068A0B1FFF743FE064639
:101FD0000CE0286840F48030F4E740F4802028606A
:101FE000F7E7FFF737FE801B642871D82868800365
:101FF000F7D50BE0FFF72EFE064604E0FFF72AFEBA
:10200000801B6428F1D828688003F7D42078DFF893
:102010008C9280074FF0000B3DD59F48001D016852
:1020200011F00C0F08D00068C0F3810002280AD11B
:10203000DAF80000400206D42868800715D5E06869
:10204000012809D111E0E068B8B10121C9F80010F8
:10205000FFF700FE064605E01AE1FFF7FBFD801BD7
:102060000228C2D828688007F7D52868216920F09F
:10207000F80040EAC10028600DE0C9F800B0FFF7A1
:10208000E9FD064604E0FFF7E5FD801B02281FD8A6
:1020900028688007F7D42078000722D57E4F804833
:1020A0006169703771B101210160FFF7D3FD064608
:1020B00004E0FFF7CFFD801B022809D838688007AD
:1020C000F7D50EE0C0F800B0FFF7C4FD064605E006
:1020D00082E0FFF7BFFD801B02287DD838688007AB
:1020E000F7D42078400765D56B484FF000083C30A6
:1020F0000068C0000BD468483C30016841F0805152
:10210000016000684FF0010800F080500090654FBA
:102110003868C0050FD4386840F480703860FFF725
:1021200099FD064604E0FFF795FD801B022853D871
:102130003868C005F7D5584FA0686C3701280FD014
:102140000528386810D020F001003860386820F089
:1021500004003860A068B0B1FFF77CFD06460EE0D1
:10216000386840F00100F4E740F004003860F7E719
:10217000FFF770FD811B41F28830814263D83868D7
:102180008007F5D50DE0FFF765FD064606E0FFF791
:1021900061FD811B41F28830814254D83868800744
:1021A000F5D4B8F1000F05D03B483C30016821F070
:1021B00080510160A069B8B33749091D0968C1F3AE
:1021C0008101022946D00228584606D0C9F860008D
:1021D000FFF740FD044639E035E04F46C9F860009E
:1021E000FFF738FD064604E0FFF734FD801B0228A8
:1021F00029D828688001F7D4D4E907010843A16AE7
:10220000294A490802EB0141626A41EA8211084306
:1022100094F82C1040EA0161CAF8001001203866D9
:10222000FFF718FD044605E034E0FFF713FD001B3F
:10223000022808D828688001F7D52BE0FFF70AFDAF
:10224000001B022802D90320BDE8F88F286880010E
:10225000F4D41FE00128F7D0DAF80000E26900F4B6
:102260008001914214D1226A00F03F0191420FD1C6
:1022700047F6C071626A0140914209D1A26A00F436
:102280004031914204D1E16A00F07060884201D08F
:102290000120D9E70020D7E7043802400000474278
:1022A000800E4742007000400000FFFF70470000B2
:1022B00038B5016804464A688868C043430606D5B5
:1022C000C30704D1D3435B0601D4216C05E0830727
:1022D00008D4D3431B0605D4616C01B02046BDE889
:1022E00030400847830603D5430601D5C30551D4C2
:1022F000D3439B064ED443060AD494F85130032BA3
:1023000049D0636D43F004036365CB688B68009329
:10231000830609D4636D43F0010363658B68009302
:102320000B6823F040030B60C00506D4606D40F0DD
:1023300008006065206880680090606D002829D0E2
:102340002068416821F0E0014160012084F85100DB
:10235000900701D4D00722D02068416821F0030102
:102360004160114DE06C40B10565E06CFFF7EDF99F
:1023700018B1606D40F040006065A06C002809D085
:102380000565A06CFFF7E1F9002803D0606D40F00F
:102390004000606538BDC8688868009038BD204638
:1023A000FFF784FF38BD0000813B000870B50400D2
:1023B00005D00025A56294F8510010B106E0012077
:1023C00070BD84F85050204600F030F8022084F8A8
:1023D00051002068016821F040010160D4E9010149
:1023E0000843D4E903121143084361690843218B70
:1023F00001F400710843E1690843216A0843A16AB6
:10240000084321680860A069042101EA1040616A5C
:102410000843216848602068C16921F40061C161F6
:102420006565012084F85100002070BD70B586B04C
:10243000064614216846FEF7BAFC234930688842F4
:1024400040D122480025016841F4805101600068B4
:1024500000F4805005901D481438016841F00201D5
:1024600001600068694600F0020005903820009085
:102470000220CDE9010503200390052004901448B3
:10248000FFF7FCFA144C134820604FF0C060606006
:102490004020C4E902050001C4E90405A561E56125
:1024A000256220466562FFF735FA08B1FFF71DF88F
:1024B000B464002203212320A663FFF737FC232006
:1024C000FFF728FC06B070BD0030014044380240E0
:1024D0000004024058640240BC0100202DE9F04194
:1024E000044690F850000025012809D0012784F8FF
:1024F000507094F851000026012804D0022549E0CC
:102500000220BDE8F08189B182B1032084F8510036
:1025100066652163A286E286A66366642664A68752
:10252000E687A068B0F5004F02D006E0012531E053
:102530002068016841F480410160A16C174808647B
:10254000A16C1748C863A16C1648C864A06C0665E6
:10255000E38E2268216B0C32A06CFFF745FA38B18C
:10256000606D40F010006065012584F8517011E045
:1025700020680168490603D4016841F04001016008
:102580002068416841F0200141602068416841F0C5
:102590000201416084F850602846B2E7B33B00086E
:1025A000BD3B0008913B00087047704710B5401EC6
:1025B000B0F1807F01D3012010BD4FF0E0246061B5
:1025C0000F21601701F052FA0020A061072020615E
:1025D000002010BD70477047022180F83D1001684F
:1025E0008A6802F00702062A03D00A6842F0010254
:1025F0000A60012180F83D1000207047022180F818
:102600003D1001680A6A41F211131A4207D10A6AA1
:102610009B101A4203D10A6822F001020A600121CC
:1026200080F83D10002070470168CA6822F001025E
:10263000CA600068016A41F21112114207D1016AB1
:102640009210114203D1016821F0010101600020C4
:102650007047704770B50446006801694FF0000587
:10266000C943890715D4C168C943890711D4E91E34
:10267000016101202077206880698007204602D010
:10268000FFF7E7FF04E000F098F8204600F096F826
:10269000257720680169C943490717D4C168C94330
:1026A000490713D46FF004010161022020772068EC
:1026B000806910F4407F204602D0FFF7CAFF04E093
:1026C00000F07BF8204600F079F825772068016952
:1026D000C943090716D4C168C943090712D46FF06A
:1026E00008010161042020772068C0698007204626
:1026F00002D0FFF7AEFF04E000F05FF8204600F0E4
:102700005DF8257720680169C943C90617D4C168F7
:10271000C943C90613D46FF0100101610820207766
:102720002068C06910F4407F204602D0FFF791FF77
:1027300004E000F042F8204600F040F825772068D9
:102740000169C943C90708D1C168C943C90704D190
:10275000891E0161204600F032F820680169C943F2
:10276000090609D4C168C943090605D46FF0800180
:1027700001612046FFF72EFF20680169C943490621
:1027800009D4C168C943490605D46FF0400101610D
:10279000204600F015F820680169C94389060BD46A
:1027A000C168C943890607D46FF020010161204642
:1027B000BDE87040FFF70FBF70BD704770477047AE
:1027C000704710B504460068416994F83920C1F398
:1027D000C011212A0BD151B1416921F08001416121
:1027E000206B08B1FEF76AFF204601F08FFD2068DC
:1027F000416994F83A20C1F38011222A0BD151B1DA
:10280000416921F040014161606B08B1FEF756FF5C
:10281000204601F06DFD002010BD704770B50268C4
:1028200004461068D168536910F00F0F52D003F0BE
:10283000010501F490762E435FD0C20705D0CA058A
:1028400003D5E26B42F00102E263420705D5DA07E5
:1028500003D0E26B42F00202E263820705D5DA0799
:1028600003D0E26B42F00402E263020707D501F0F5
:1028700020022A4303D0E26B42F00802E263E26BDB
:10288000002A33D0800604D5880602D5204601F000
:1028900046FD20684069E16BC0F38010090700D451
:1028A00028B3204601F024FD2068416949061AD565
:1028B000416921F040014161606BA0B11B49016594
:1028C000606BFEF742FF002810D0606B016DBDE821
:1028D00070400847830610D58B060ED52046BDE80C
:1028E000704001F01CBD2046FFF797FF70BD2046E9
:1028F000FFF793FF0020E06370BD030606D50B06CB
:1029000004D52046BDE8704001F0E8BD4006F3D58F
:102910004806F1D5D168204621F04001D160202140
:1029200084F8391000F05AFA70BD000051420008D6
:1029300070B5040004D094F83900002510B106E009
:10294000012070BD84F83850204600F023F8242080
:1029500084F839002068C16821F40051C160204624
:1029600001F028FD2068016921F49041016120688F
:10297000416921F02A0141612068C16841F4005198
:10298000C160E563202084F8390084F83A00002013
:1029900070BD00002DE9F04F87B004461421684651
:1029A000FEF705FA9E499D4B20689D4A1039022684
:1029B0000327DFF870A200254FF4406B4FF00109A8
:1029C0004FF00808984220D1106840F400201060B1
:1029D000106800F400200590086840F004000860CA
:1029E0000868CDF800B000F00400CDE9048003973A
:1029F000CDE9016969465046FFF740F800220421FD
:102A00003420FFF793F9342032E0874B984234D1D9
:102A1000106840F480101060106800F48010059079
:102A2000086840F004000860086800F004000590A1
:102A3000086840F0080008600868694600F008006F
:102A4000059098148DE84102CDE903785046FFF7D0
:102A500015F804208DE84102CDE9037869467348F2
:102A6000FFF70CF8002204213520FFF75FF935202D
:102A7000FFF750F907B0BDE8F08FDFF8B4C1DFF819
:102A8000A0910723DFF8ACE109F10409604554D1B6
:102A9000D9F8002042F01002C9F80020D9F800004F
:102AA00000F010000590086840F001000860086818
:102AB000029500F0010005904FF4C060CDE90006DA
:102AC000CDE9037369467046FEF7D8FF5B4E5A485E
:102AD0004FF000673060C6E901754FF48068C6E9C1
:102AE00003587561B561F561356230467562FEF770
:102AF00011FF08B1FEF7F9FC6663B4634F4E4E4810
:102B000060367830E6E802074020A6E821014B480D
:102B100046F814596030B561F56135627562FEF7AB
:102B2000F9FE08B1FEF7E1FC266300220221252010
:102B3000B463FFF7FBF825209AE7414CA04220D16F
:102B4000106840F400301060106800F40030059008
:102B5000086840F0010008600868029500F0010074
:102B600005900C20CDE90006CDE903736946704657
:102B7000FEF784FF002211462620FFF7D7F8262013
:102B800076E7304CA04220D1106840F480201060DD
:102B9000106800F480200590086840F0020008608A
:102BA0000868CDF800B000F00200CDE904300397CA
:102BB000CDE9016569462448FEF760FF0022114611
:102BC0002720FFF7B3F8272052E7204A90427FF4EE
:102BD00051AFD9F8002042F02002C9F80020D9F8FE
:102BE000000000F020000590086840F00400086034
:102BF000086802AA00F004000590C020CDE9000694
:102C000082E8A00169465046FEF738FF00221146CF
:102C10004720FFF78BF847202AE70000004C0040D0
:102C2000403802400008024000500040000C0240C2
:102C30000010014000000240406402409C0300205C
:102C400000440040004800400004024000140140DD
:102C500037B5044690F83A0082B0134620283AD19E
:102C6000039AAAB3A3B394F83800012833D0012003
:102C700084F83800A262A3850025E563222084F849
:102C80003A00616B1548C863616B15480864616B55
:102C90001448C864606B05652168606B091DFEF708
:102CA000A3FE206801684168009184F83850C1682B
:102CB00041F48071C1602068416941F001014161C6
:102CC0002068416941F040014161002005B030BDFC
:102CD000FFE70120FAE70220F8E70000AB42000816
:102CE000E74200086142000890F83A30202B22D1D8
:102CF000F9B1F2B190F83830012B1CD08162828595
:102D0000C2850021C163222280F83A2080F8381061
:102D10000168CA6842F48072CA6001684A6942F078
:102D200001024A610068C16841F02001C1600020D1
:102D300070470120704702207047000010B50068FE
:102D40000F4988420BD10F48FEF73CF882B20D497B
:102D50000D4800F024F814220A490B480AE00B49F8
:102D600088420BD10B4A0A4910780144401C10706C
:102D700009480122BDE81040FFF7B6BF10BD0000B2
:102D800000480040500100201C030020005000407B
:102D9000A81F0020080000205C020020704790F867
:102DA0003930202B18D1A9B1A2B190F83830012BBD
:102DB00012D001628284C2840021C163212280F882
:102DC000392080F838100068C16841F08001C16086
:102DD0000020704701207047022070477047FEE7CF
:102DE00070B504464FF42076304602F061F905468E
:102DF0000020210AE2B22954401C80B22A54401C0F
:102E000080B2B042F7D30021EF2340F23F120846D0
:102E100000F0B2FA00243146284600F0E5FA641CBE
:102E2000A4B2F02CF7D32846BDE8704002F04CB8AD
:102E300070B504464FF42076304602F039F9054665
:102E40000020210AE2B22954401C80B22A54401CBE
:102E500080B2B042F7D3F0234FF4A07212210020C9
:102E600000F08AFA14243146284600F0BDFA641CAA
:102E7000A4B2F02CF7D92846BDE8704002F024B87F
:102E800070B5044615460E462A2000F093FA2046F7
:102E900000F0C4FA2B2000F08DFA304600F0BEFAA4
:102EA0002C2000F087FA2846BDE8704000F0B6BA42
:102EB00010B5654C0022A1882068FEF7C5FE4FF4CE
:102EC000FA70FEF7C9FDA18801222068FEF7BCFE5A
:102ED0006420FEF7C1FD112000F06CFA7820FEF7A7
:102EE000BBFD362000F066FAA02000F0B5FA3A20CB
:102EF00000F060FA652000F0AFFAB22000F05AFA54
:102F00000C2000F0A9FA0C2000F0A6FA002000F036
:102F1000A3FA332000F0A0FA332000F09DFAB72086
:102F200000F048FA722000F097FABB2000F042FA55
:102F30003D2000F091FAC02000F03CFA2C2000F077
:102F40008BFAC22000F036FA012000F085FAC32087
:102F500000F030FA192000F07FFAC42000F02AFABD
:102F6000202000F079FAC62000F024FA0F2000F0AB
:102F700073FAD02000F01EFAA42000F06DFAA12010
:102F800000F06AFAE02000F015FAD02000F064FAB0
:102F9000042000F061FA0D2000F05EFA112000F02C
:102FA0005BFA132000F058FA2B2000F055FA3F206E
:102FB00000F052FA542000F04FFA4C2000F04CFA86
:102FC000182000F049FA0D2000F046FA0B2000F01E
:102FD00043FA1F2000F040FA232000F03DFAE120E0
:102FE00000F0E8F9D02000F037FA042000F034FABD
:102FF0000C2000F031FA112000F02EFA132000F01E
:103000002BFA2C2000F028FA3F2000F025FA44206B
:1030100000F022FA512000F01FFA2F2000F01CFAD5
:103020001F2000F019FA1F2000F016FA202000F0EF
:1030300013FA232000F010FA202000F0BBF9BDE8BD
:103040001040292000F0B6B97C0000200FB42821E0
:1030500000B58BB00DAB01A80C9A01F0B5FA4FF496
:10306000FC6000210090102301AA084600F0EAF855
:103070000BB05DF814FB00002DE9F04387B014217C
:103080006846FDF794FE244E224808213060B18046
:1030900006F1080704213860B98006F11004DFF852
:1030A0007C901F490125C4F80090A5800A684FF064
:1030B000000842F004020A600A6802F00402059265
:1030C0000A6842F008020A60096801F008010591E7
:1030D0000C218DE8220169460395FEF7CFFCA088FC
:1030E00069468DE8210148460395FEF7C7FCB18883
:1030F00000223068FEF7A8FDB98800223868FEF784
:10310000A3FDA18801222068FEF79EFD07B0BDE85F
:10311000F0830000000802406C000020000C024018
:10312000303802402DE9F05F1E46DDF828B00D462C
:103130000746B0F59D7F6AD2E92D68D8203ADFF8BE
:10314000F8A0D4B2202E21D0102E60D12A2000F079
:1031500031F9384600F062F9FF1DB8B200F05EF9AF
:103160002B2000F027F9284600F058F90F35A8B2B7
:1031700000F054F92C2000F01DF93048002700EB36
:103180000419D04619F8074000254DE02A2000F028
:1031900011F9384600F042F90F37B8B200F03EF9A5
:1031A0002B2000F007F9284600F038F91F35A8B2A7
:1031B00000F034F92C2000F0FDF82148002500EB48
:1031C0008418002718F81540D146E00701D058466A
:1031D00001E0B9F8020000F021F97F1C6408FFB299
:1031E000082FF2D308EB450008274478E00701D008
:1031F000584601E0B9F8020000F010F97F1C64089D
:10320000FFB2102FF2D36D1CEDB2B542D9D3BDE899
:10321000F09FE00701D0584601E0B8F8020000F046
:10322000FDF864086D1CEDB2B5EB560FF1D37F1CB1
:10323000FFB2B742A6D3EAE764000020A46B0008FF
:10324000E45300082DE9F8431E4614460F46054690
:103250004FF4A079DDF820800EE04D450FD8F02F17
:103260000DD8334639462846CDF80080FFF75AFF7F
:1032700005EB560085B2641C2278002AEDD1BDE82A
:10328000F88300002DE9FF4F81B080460298164672
:103290000F30DFF8D8B0009062E0802838D30027E4
:1032A000334907EB0710337811F810209A4225D1E3
:1032B00001EB400A71789AF8010088421ED108F1AA
:1032C0000F024046009B029900F056F800250024AA
:1032D0000AEB0509012099F80210A040014201D033
:1032E000049801E0BBF8020000F098F8641CE4B216
:1032F000082CEFD36D1CEDB2202DE8D37F1CBFB29C
:10330000452FCDD308F1100000F0FF08B61C27E0D0
:1033100008F107024046009B029900F02DF8307832
:1033200014492038C0B2002701EB0019DA4619F819
:1033300007500024E80701D0049801E0BAF8020021
:1033400000F06CF8641C6D08E4B2082CF2D37F1C0A
:10335000FFB2102FEBD308F1080000F0FF08761C35
:103360003078002899D105B0BDE8F08F64000020C6
:1033700094710008A46B00082DE9F04104461D4635
:1033800016460F462A2000F015F8204600F046F8B1
:10339000304600F043F82B2000F00CF8384600F0DF
:1033A0003DF8284600F03AF8BDE8F0412C2000F046
:1033B00001B8000008B500228DF800000748818898
:1033C0000068FEF741FC012269460548FFF786F8D0
:1033D0000448FEF7CCF90228FAD008BD6C000020A2
:1033E00064010020BC01002070B5054608480C4669
:1033F000012281880068FEF727FC224629460548FD
:10340000FFF76CF80448FEF7B2F90228FAD070BD55
:103410006C00002064010020BC01002038B5044687
:103420000A48012281880068FEF70EFC200A8DF808
:1034300000008DF80140022269460548FFF74EF86A
:103440000448FEF794F90228FAD038BD6C00002039
:1034500064010020BC01002008B501228DF80000A5
:10346000074881880068FEF7EFFB0122694605489E
:10347000FFF734F80448FEF77AF90228FAD008BDBD
:103480006C00002064010020BC0100202DE9F04FF9
:1034900087B014216846FDF78AFC464D444A05F181
:1034A000080690152A60A88080203260B08005F15F
:1034B00010084020C8F8002005F11809A8F80400F9
:1034C0003D4CC9F80040A9F8040005F1200B20216B
:1034D000CBF80040ABF8041005F12800102104607F
:1034E0008180083008210460818000F108070420F1
:1034F0003C60B8803148016841F0200101600168FA
:1035000001F020010591016841F01001016000689F
:103510004FF0010A00F0100005904FF4E070CDE983
:10352000000A0020CDE9020A69461046FEF7A6FA15
:103530007C20CDE9000A0020CDE9020A6946204638
:10354000FEF79CFAA98801222868FEF77DFBB18866
:1035500001223068FEF778FBB8F804100122D8F891
:103560000000FEF771FBB9F804100122D9F8000041
:10357000FEF76AFBBBF804100122DBF80000FEF73F
:1035800063FB05F12800012281880068FEF75CFBDF
:1035900005F13000012281880068FEF755FBB988EB
:1035A00001223868FEF750FB07B0BDE8F08F00003D
:1035B000001402401C00002000100240303802407D
:1035C000154808B5016841F48001016000680022D7
:1035D00000F48000009002213820FEF7A7FB38207D
:1035E000FEF798FB002203213B20FEF79FFB3B20C8
:1035F000FEF790FB002202213A20FEF797FB3A20CB
:10360000FEF788FB002202214620FEF78FFBBDE873
:1036100008404620FEF77EBB3038024010B586B029
:1036200014216846FDF7C3FB26480024016841F0D9
:1036300004010160016801F004010591016841F095
:1036400080010160016801F080010591016841F08D
:1036500001010160016801F001010591016841F07B
:1036600002010160016801F002010591016841F069
:1036700008010160016801F008010591016841F04D
:10368000200101600068694600F0200005901E20BE
:10369000CDE900040C480294FEF7F0F94FF44040E5
:1036A000CDE90004694609480294FEF7E7F94BF6B4
:1036B0002020CDE90004694605480294FEF7DEF9B2
:1036C00006B010BD30380240001402400010024025
:1036D000000C02400F4810B50D4901604FF4827193
:1036E000416000218160C1604FF400720161C0E956
:1036F0000512C1610162416281620A21C162FEF765
:1037000055FE002803D0BDE81040FDF7EEBE10BD09
:1037100000300140640100200C4810B50A490160E6
:103720004FF416514160002181600C22C160C0E954
:1037300004128161C161FFF7FBF8002803D0BDE8E6
:103740001040FDF7D2BE10BD004C00401C0200200E
:103750000C4810B50A4901604FF4E1314160002185
:1037600081600C22C160C0E904128161C161FFF770
:10377000DFF8002803D0BDE81040FDF7B6BE10BD4D
:10378000005000405C0200200C4810B50A4901605E
:103790004FF4E1314160002181600C22C160C0E939
:1037A00004128161C161FFF7C3F8002803D0BDE8AE
:1037B0001040FDF79ABE10BD001001409C02002091
:1037C0000C4810B50A4901604FF4E1314160002115
:1037D00081600C22C160C0E904128161C161FFF700
:1037E000A7F8002803D0BDE81040FDF77EBE10BD4D
:1037F00000440040DC0200200C4810B50A4901607A
:103800004FF4E1314160002181600C22C160C0E9C8
:1038100004128161C161FFF78BF8002803D0BDE875
:103820001040FDF762BE10BD004800401C030020A0
:103830000C4810B50A4901604FF4E13141600021A4
:1038400081600C22C160C0E904128161C161FFF78F
:103850006FF8002803D0BDE81040FDF746BE10BD4C
:10386000001401405C0300202DE9F0477C4C7D4DA5
:10387000E08805F1280760BBA98801222868FEF7C7
:10388000E3F9A9890122A868FEF7DEF9A98A0122D5
:103890002869FEF7D9F9A98B0122A869FEF7D4F9A6
:1038A000A98C0122286AFEF7CFF9B988002238686E
:1038B000FEF7CAF9B9890022B868FEF7C5F9B98AD6
:1038C00000223869FEF7C0F9B98B0022B869FEF70B
:1038D000BBF9E08800264FF001084FF002094FF0D5
:1038E000030A0A2839D8A9882868FEF7A1F9C0B1C7
:1038F000A989A868FEF79CF9B8B1A98A2869FEF7DA
:1039000097F9C0B1A98BA869FEF792F9C8B1A98C43
:10391000286AFEF78DF9D0B12670E68066702681A0
:103920007CE0E088401CE08060E0E088401CE080B3
:1039300084F8008072E0E088401CE08084F8009009
:103940006CE0E088401CE08084F800A066E0E0883D
:10395000401CE0800420207060E0208960BBA988C2
:1039600000222868FEF770F9A9890022A868FEF7EE
:103970006BF9A98A00222869FEF766F9A98B002253
:10398000A869FEF761F9A98C0022286AFEF75CF9A4
:10399000B98801223868FEF757F9B9890122B86859
:1039A000FEF752F9B98A01223869FEF74DF9B98B51
:1039B0000122B869FEF748F920890A2832D8B98867
:1039C0003868FEF735F998B1B989B868FEF730F96B
:1039D00098B1B98A3869FEF72BF9A0B1B98BB869EB
:1039E000FEF726F9A8B126816670E680267015E0FC
:1039F0002089401C2081667010E02089401C2081B5
:103A000084F801800AE02089401C208184F801901C
:103A100004E02089401C208184F801A0A0780128BE
:103A20000ED019E06078217800EB8100401C6081A5
:103A300084F802802671E070E68026816670267028
:103A4000608948B92079401CC0B22071642803D332
:103A5000E07860712671A6706681BDE8F08700008D
:103A6000200100201C200020FEE770470907090EF6
:103A7000002806DA00F00F0000F1E02080F8141DA5
:103A8000704700F1E02080F80014704770B52B4DAE
:103A90002878B0B3687810B101F040FB31E0EE68EF
:103AA000002456F82400FDF71CFB95ED041B53EC95
:103AB000112BFDF78EF9641CC82CC5E90401F0DB5D
:103AC0009FED1F0B53EC102B95ED040B51EC100BDD
:103AD000FDF726FA9FED1C1B53EC112BFDF792FA14
:103AE00041EC100B1AA185ED040B53EC102B1D4873
:103AF00000F056FD4FF6FF731A4A30210020FFF701
:103B0000C1FB19490878002816D00A23174A012852
:103B100002D002280ED104E06868B0FBF3F3184429
:103B200005E068680A2805D9B0FBF3F3C01A68609D
:103B3000126890620020087070BD00003001002003
:103B40006666666666660A400000000000FEAF40DA
:103B500061766720766F6C746167653A20256C66C4
:103B60000000000070200020840000205C05002080
:103B7000704700000148FEF79BBB00006401002075
:103B800010B5806B0021C187C186FEF78FFB10BD89
:103B900010B5806B01684A6822F003024A60416DEB
:103BA00041F010014165012180F85110FEF77EFBC4
:103BB00010BD10B5806BFEF7F8FC10BD38B505469A
:103BC000846BFEF747F8024628680068C00523D4D6
:103BD0002068416821F0200141602068416821F09F
:103BE000020141606421204600F01AF818B1606DAE
:103BF00040F020006065A068002118B92068C26804
:103C000080680090E186012084F85100606D18B151
:103C10002046FEF74BFB38BD2046FEF7C5FC38BDFD
:103C200038B504461248134D4FF47A730068B0FB60
:103C3000F5F0584300906068B0F5827F0DD10B46D7
:103C4000009200228021204600F016F870B1606DCD
:103C500040F020006065032038BD009830B1401E60
:103C6000009020688068C0430006F6D5002038BD6B
:103C70001800002000366E012DE9F0411D46174660
:103C80000E460446DDF8188008E0681C06D0FDF7F3
:103C9000E1FFA0EB0800A8420BD255B12068806874
:103CA00036EA000030D00020B842EED10020BDE856
:103CB000F0812068416821F0E00141606068B0F562
:103CC000827F0BD1A068B0F5004F02D0B0F5806FB5
:103CD00004D12068016821F040010160A06AB0F5BC
:103CE000005F09D12068016821F40051016020685B
:103CF000016841F400510160012084F85100002066
:103D000084F850000320D2E70120CDE7704700007F
:103D100010B5FDF7A5FF00F08FF900F035FAFFF7B9
:103D2000A3FD00F02FFC0E49012008700D49088802
:103D3000401C80B20880B0F5FA7F06D300200880CE
:103D4000094881880068FDF778FF0848084900683D
:103D5000884203D007490868401C086010BD000075
:103D600000000020020000201C0000202C01002088
:103D7000642000200400002030B593B03021684654
:103D8000FDF715F814210CA8FDF711F81A480025C5
:103D9000016841F080510160006800F0805011908E
:103DA0001648016841F4804101600068022400F473
:103DB0008040119001200090000401908001CDE925
:103DC0000640082008904FF4A870CDE909040420AB
:103DD0000B906846FEF7C6F80CA90F2081E8310069
:103DE0004FF4A0500F90E002109005210CA8FDF7B1
:103DF000CFFF13B030BD00004038024000700040DB
:103E00000548016841F47001016003494FF000600A
:103E1000803908607047000088ED00E070B52648E2
:103E2000FEF718FC254DA97C2548002981880068EB
:103E300003D0BDE87040FDF700BFFDF7FEFE286827
:103E4000401E286069681C4CA82969684FF4D2702C
:103E50002A68A1EB020116D86A68B1EB520F05D2AD
:103E600029686A68891A00EB810017E06868296888
:103E7000401A696880004908494200EB810000F55A
:103E8000D27021680BE05429EAD32868542807D25D
:103E900028685421C0F1540001EB80002168886239
:103EA0002868002807D10448FEF7BEFB002068748C
:103EB0002168801E086170BD9C040020DC1F00206A
:103EC000F000002070B52648FEF7C4FB254DA97C04
:103ED000254800298188006803D0BDE87040FDF7BF
:103EE000ACBEFDF7AAFE2868401E286069681C4C1D
:103EF000A82969684FF4D2702A68A1EB020116D88C
:103F00006A68B1EB520F05D229686A68891A00EB1A
:103F1000810017E068682968401A696880004908CC
:103F2000494200EB810000F5D27021680BE0542972
:103F3000EAD32868542807D228685421C0F15400D5
:103F400001EB8000216888622868002807D10448B6
:103F5000FEF76AFB002068742168801E086170BD4E
:103F6000DC040020F01F002010010020F0B587B015
:103F700014216846FCF71BFF2B482A4C2B4AE114FE
:103F800004608180083040210260818008300B018C
:103F90000460838008300823026083800830244F47
:103FA0000125076085800830046081800830802109
:103FB0000460818008304900046081801D4800262B
:103FC000016841F001010160016801F00101059102
:103FD000016841F008010160016801F008010591E4
:103FE000016841F0400101600068694600F040004E
:103FF00005904820CDE9000602951046FDF73EFDEC
:104000004FF45C60CDE90006694602952046FDF755
:1040100035FDCDE90056694638460295FDF72EFD7F
:1040200007B0F0BD001802408C000020000C0240D8
:104030000000024030380240524810B581880068C4
:10404000FDF7F6FD4F4CE41F217860F3000104F109
:104050000F00217081880068FDF7EAFD217860F388
:10406000410104F11700217081880068FDF7E0FD2F
:10407000217860F3820104F11F00217081880068BB
:10408000FDF7D6FD217860F3C30104F1270021700C
:1040900081880068FDF7CCFD217860F3041104F1FC
:1040A0002F00217081880068FDF7C2FD217860F340
:1040B000451104F13700217081880068FDF7B8FDD3
:1040C000217860F3861104F13F0021708188006837
:1040D000FDF7AEFD217860F3C711601E21700279F3
:1040E000002332B1FF293FD0C178491CC1708370D1
:1040F00010BDFF2917D08278521CD2B28270C370D3
:10410000142AF5D383700122C370F72920D00FDC65
:104110007F2926D0BF2921D0DF291CD0EF29E7D164
:104120000271052112E08370C178491CC17010BD75
:10413000FB2909D0FD2904D0FE29F8D102710270B3
:1041400010BD0271022101E002710321017010BD56
:1041500002710421FAE702710621F7E702710721D3
:10416000F4E702710821F1E78178491CC9B2817036
:10417000C3701429EBD30371FF2121708370C370C6
:1041800010BD00008C00002070B51D4881880068BB
:10419000FDF74EFD1A4D01261A490024203D20B19D
:1041A0002C706878401C687008E02878401CC0B209
:1041B00028706C70322801D90E742C7068783228FF
:1041C00001D96C700C740E48203081880068FDF7AE
:1041D0002FFD0C49143120B1AC70E878401CE87018
:1041E00008E0A878401CC0B2A870EC70322801D951
:1041F0000E74AC70E878322801D9EC700C7470BD84
:10420000F8000020DC1F002038B50E49086802685D
:10421000D243D20610D4026840680090202081F872
:104220003A0009480124014680F8324022460548F8
:10423000FEF75AFD05480470BDE838400148FEF716
:10424000EDBA00005C020020A81F0020080000203A
:1042500010B5806B0021C185C184FEF7DEFA10BD68
:1042600070B5846B2068406994F83910C0F3C010B1
:104270000025212904D118B1E584204600F046F834
:104280002068406994F83A10C0F38010222904D1C4
:1042900018B1E585204600F02BF8E06B40F01000E7
:1042A000E0632046FEF7B9FA70BD10B50146806B99
:1042B00009680968C90513D40021C1850168CA6865
:1042C00022F48072CA6001684A6922F001024A61E0
:1042D00001684A6922F040024A61202180F83A10C0
:1042E000FEF72CFD10BD10B5806BFEF757FD10BD1D
:1042F0000168CA6822F49072CA6001684A6922F0B3
:1043000001024A61202180F83A1070470168CA68AA
:1043100022F0C002CA60202180F83910704710B521
:1043200090F83A10222901D0022010BD8168B1F521
:10433000805F11D00169002901681FD0496801F030
:104340007F03816A4A1C82620B70C18D491E090479
:10435000090CC18518D02BE00269816A002A026825
:10436000526805D0D2B20A80816A491C8162ECE7AA
:10437000C2F308020A80816A891CF7E74A68816AE9
:104380004B1C83620A70E0E70168CA6822F02002D1
:10439000CA600168CA6822F48072CA6001684A690A
:1043A00022F001024A61202180F83A10FEF7C6FC93
:1043B000002010BD2DE9F041044600680169E26863
:1043C00021F4405111430161A1682069E269014370
:1043D0006069104301432068C26849F20C639A4344
:1043E0000A43C26020684169A26921F44071114307
:1043F0004161E069192764253226B0F5004F354A3E
:10440000354920684FF0000806D0884201D090421C
:1044100036D1FDF767FD35E0884201D0904202D1E8
:10442000FDF760FD01E0FDF74DFD61684A18A0FB56
:10443000070148EB0803FCF782FC0146B0FBF5F0EE
:104440000201B1FBF5F06FF01803584301EB800057
:1044500006EBC000B0FBF5F000F0F80002EB400204
:10446000B1FBF5F0584301EB800006EBC000B0FB58
:10447000F5F000F00700216810448860BDE8F08185
:10448000FDF720FD01466068830F8200A1FB070154
:10449000FCF755FC0146B0FBF5F06FF018025043F5
:1044A00001EB800006EB0010B0FBF5F000F0F0022D
:1044B000B1FBF5F002EB0012B1FBF5F06FF0180361
:1044C000584301EB800006EB0010B0FBF5F000F064
:1044D0000F00D0E7001401400010014090F839109F
:1044E000212901D0022070478168B1F5805F016AFF
:1044F0000BD04A1C0262026809785160C18C491EC7
:104500000904090CC1840ED017E009880268C1F3C0
:104510000801516001690029016A02D0491C016249
:10452000ECE7891CFBE70168CA6822F08002CA60D8
:104530000068C16841F04001C16000207047000080
:1045400008B50D48FEF76AF90B4800680168C943D1
:10455000C90610D40168406808490090012081F81C
:1045600032000548FEF72DF9BDE808403222034924
:104570000148FEF76DBB08BD9C02002044060020E8
:10458000FEE70000054810B581880068FDF750FB84
:1045900000B101200149091F087010BDD0000020A2
:1045A0000FB4084B10B504A902AA039800F0F8F85C
:1045B000044602A9002000F081FC204610BC5DF8F2
:1045C00014FB0000BD4E00087CB50C001D461646CD
:1045D000014601D0601E00E00020CDE90010064B2E
:1045E0006A462946304600F0DBF8002C02D0009ADB
:1045F000002111707CBD0000A74E000802E008C831
:10460000121F08C1002AFAD170477047002001E04C
:1046100001C1121F002AFBD1704700002DE9FF5F86
:1046200082B00021DDE90430020DDDF840B0034323
:1046300018D044F61050A2F2FF32424315141198DC
:1046400001281FD0A5EB0B00401C5FEA000A4FF0C9
:1046500000064E4FDFF83891B046504615D5CAF1E6
:10466000000413E0119801244AA3012801D16FEA44
:104670000B010298119AC0E90031C0E9024206B06C
:10468000BDE8F09FCBF10000DFE704460021404A7F
:10469000491842EB0450CDE9001012E0E00707D0C2
:1046A00032463B4640464946FCF73AFC804689463E
:1046B00032463B4610461946FCF732FC06460F468A
:1046C0006410002CEAD1DDE90401DDE90023BAF130
:1046D000000F06DAFCF724FC42464B46FCF720FCB0
:1046E00005E0FCF78FFC42464B46FCF78BFC04468A
:1046F0000E460022284BFCF7D1FD03D84FF0FF30C7
:10470000014607E00022254B20463146FCF761FBBD
:10471000FCF7ABFD102409E0002C0ADB0A22002381
:10472000FCF70DFB039B30321A55641E50EA010260
:10473000F2D1641C039AC4F111031444119A012AA2
:1047400003D0012208430DD10AE0084304D0002021
:104750004FF0110B119072E7A3EB0B056D1E0DE0EE
:104760005B4504DD4FF0000205F1010504E003DACA
:104770004FF00002A5F10105002AECD00298119932
:10478000C0E90231C0E9004579E7000000001440AB
:104790000000F03F300000000000F0430000E03F68
:1047A0002DE9FF4F95B09A46884606460025EEE172
:1047B000252877D100242746F94A0121039400E0F7
:1047C000044316F8013F203B01FA03F01042F7D1F1
:1047D00030782A2811D06FF02F033078A0F1300202
:1047E000092A16D8039A44F0020402EB820203EB72
:1047F00042021044761C0390EFE758F8042B039212
:10480000002A03DA504244F40054039044F00204B6
:10481000761C30782E2816D116F8010F44F00404C7
:104820002A280DD06FF02F023078A0F13003092B29
:1048300009D807EB870302EB4303C718761CF3E79D
:1048400058F8047B761C30786C280FD006DC4C2896
:1048500017D068280DD06A2814D104E0742810D02D
:104860007A280FD10DE044F400140AE044F48014D7
:1048700001E044F440147278824202D104F58014BD
:10488000761C761C307866280BD013DC582877D03D
:1048900009DC002875D04528F6D04628F4D04728F2
:1048A0001AD193E118E0632835D0642879D06528BF
:1048B00012D18BE1702873D008DC6728F1D0692809
:1048C0006FD06E280DD06F2806D1ACE073282CD0A5
:1048D000752874D0782853D05246179990476D1C8C
:1048E00054E1C4F30250022809D003280DD0D8F8AF
:1048F000001004280DD00D6008F1040846E1D8F836
:104900000010EA17C1E90052F6E7D8F800100D8050
:10491000F2E70D70F0E718F8041B8DF80010002086
:104920008DF80100EB46012003E058F804BB4FF07E
:10493000FF3061074FF0000102D40DE009F10101E1
:104940008946B9420FDA8145F8DB1BF809100029C6
:10495000F4D108E009F1010189468142FADB1BF834
:1049600009100029F6D103985346A0EB0907214608
:104970003846179A00F080FA284400EB090507E052
:1049800044E008E10DE01BF8010B524617999047EF
:10499000B9F10109F7D2534621463846179AF2E099
:1049A00039E00A21C4F302524FF0000B0091022AB1
:1049B00006D058F8040BC117032A09D00AE023E0F7
:1049C00008F1070020F00702F2E80201904605E036
:1049D00000B2C117042A01D140B2C117002906DA7A
:1049E0000A460021404261EB02012D2202E022052D
:1049F00004D52B228DF80420012203E0E20701D028
:104A00002022F7E7914657E00A2100E010214FF0FD
:104A1000000B00910BE010214FF0000B44F0040458
:104A20000827009103E008204FF0000B0090C4F32A
:104A30000252022A05D058F8040B0021032A08D09C
:104A400008E008F1070020F00702F2E802019046B2
:104A500003E080B2042A00D1C0B24FF0000922075F
:104A60002AD53278702A07D0DDF800C08CF0100CFF
:104A70005CEA0B0C05D00EE040228DF804200122E8
:104A800008E050EA010306D030238DF804308DF899
:104A9000052002229146009B83F0080353EA0B0392
:104AA0000AD150EA010201D1620705D530228DF802
:104AB00004204FF001097F1E3278582A04D039A211
:104AC0000C920CAA02920BE03BA2F9E75B46009A1B
:104AD000FCF735F90C9B9B5C029A521E02921370F4
:104AE00050EA0102F2D1029804A9081A00F1200B41
:104AF000600702D524F4803400E001275F4502DD21
:104B0000A7EB0B0000E0002000EB0B0100900398E6
:104B10004944401A0390E00306D453462146179AAD
:104B2000039800F0A9F90544002706E001A85246C1
:104B3000C05D179990476D1C7F1C4F45F6DBE00365
:104B40000CD553462146179A039800F095F9054471
:104B500004E030205246179990476D1C0099481E7A
:104B600000900029F5DC08E002980299524600788E
:104B7000491C0291179990476D1CBBF10001ABF1E4
:104B8000010BF1DC5BE100F065F90544761C30783F
:104B900000287FF40DAE19B02846BDE8F08F000064
:104BA0000928010030313233343536373839616203
:104BB00063646566000000003031323334353637C7
:104BC000383941424344454600000000600700D4A4
:104BD000062708F1070020F00700F0E802238046CE
:104BE00003F0004C5FEA0C0001D097A009E020051B
:104BF00001D596A005E0E00701D095A001E0AFF255
:104C00004C001390307823F0004365280CD006DC6C
:104C1000452809D046281DD047287FD13BE066288B
:104C200018D067287AD136E00021112F01DB11203E
:104C300000E0781CCDE9000104A90CA8FFF7EEFC08
:104C4000DDE90D010C9A4FF0000B07F101091092FC
:104C500000914EE04FF000400097CDE9011004A90B
:104C60000CA8FFF7DBFCDDE90D020C9B0F994FF060
:104C7000000B91461093009211B9791C00EB0109C9
:104C8000B7EB090003D4C0F1FF3B07F10109A9EB21
:104C90000700019042E0012F00DA01270021112FC7
:104CA00001DD112000E03846CDE9000104A90CA87F
:104CB000FFF7B4FCDDE90D010C9A00914FF0000BF9
:104CC000B946109221070FD4009A4A4503DA91465B
:104CD00001E0A9F10109B9F1010F05DD109AA9F16F
:104CE0000101515C3029F4D0B84202DA10F1040F0E
:104CF00003DA0121CDE9011010E0002803DC834430
:104D0000A9EB000102E0411C494500DD8946A0EB0A
:104D10000B00401C01904FF000400290200705D48A
:104D20000198484502DB4FF0FF30019000208DF8DC
:104D30004B0002980DF14B07B0F1004F25D0022037
:104D40000C902B200D90029800280CDA4042029023
:104D50002D200D9007E00A210298FCF7E2F930318E
:104D6000029007F8011D0C99481E0C900029F2DCF6
:104D700002980028EFD1791E0D980870307800F065
:104D8000200040F0450007F8020D11A8C01BC01D0F
:104D900002901398007800B1012000EB09010198FE
:104DA00001EBE071029801440398401A401E039001
:104DB000E00306D453462146179A039800F05CF8A6
:104DC00005441398007818B15246179990476D1C06
:104DD000E00323D553462146179A039800F04CF878
:104DE00005441BE0BBF1000F07DB0098584504DDCC
:104DF0001098179910F80B0001E0179930205246CF
:104E0000904701980BF1010B401E05F1010501903F
:104E100004D12E205246179990476D1CB9F100011C
:104E2000A9F10109DEDC05E017F8010B52461799DC
:104E300090476D1C0299481E02900029F4DC5346ED
:104E40002146179A03989EE62D0000002B000000D3
:104E5000200000002DE9F041044600251E461746BB
:104E6000880404D405E039462020B0476D1C641E38
:104E7000F9D52846BDE8F0812DE9F041044600252A
:104E80001E469046C80301D5302700E0202788043D
:104E900004D505E041463846B0476D1C641EF9D57F
:104EA0002846BDE8F0814A68002A06D00A68531CEB
:104EB0000B6010704868401E486070470A68531CB9
:104EC0000B6010707047000010B5002821D0114B06
:104ED0000022001F196803E0814203D80A4649688E
:104EE0000029F9D152B11368841A9C4204D1006898
:104EF00018441060104602E0506000E0186039B1BC
:104F000002680B1A934203D10B681A440260496885
:104F1000416010BD48010020FCF7AAFEFEF72CFFFF
:104F2000FEF77CFBFEF7B2FAFCF746FAFFF71EF835
:104F30004FF4FA673846FCF78FFDFEF7EDFBFEF7FE
:104F400007FCFEF721FCFEF73BFCFEF755FCFEF7E5
:104F50006FFCFEF735FBFEF7BDFBFEF78DF8FDF7A6
:104F6000A7FF1F20FDF73CFF4FF6FF7600213346D9
:104F70002DA20846FEF786F9334631A21021002003
:104F8000FEF780F9334631A220210020FEF77AF99E
:104F9000324D00242878072812D0082825D005286B
:104FA000F8D12C703846FCF757FD28780528F1D148
:104FB0002B4804701F20FDF713FFFEF767FDFCE789
:104FC0002C703846FCF748FD28780728E2D12C7071
:104FD0001F20FDF705FF0021334622A20846FEF7F9
:104FE00051F9334622A2102119E02C703846FCF703
:104FF00033FD28780828CDD12C701F20FDF7F0FE56
:10500000002133461DA20846FEF73CF933461FA295
:1050100010210020FEF736F9334621A2202100207E
:10502000FEF730F9B6E70000D6C7C4DCB5E7D7D342
:10503000B2FAC6B7C9E8BCC6D3EBBFAAB7A2000094
:10504000B9A4CEBBBAC53A3137000000B0B423BC16
:10505000FCBDF8C8EBD6F7BDE7C3E600840000202E
:1050600031010020312ECEC2B6C8B2E2C1BF00006D
:10507000322ECFEEC4BFB9A6C4DC0000CEC2B6C883
:10508000B2E2C1BFD3EBCFD4CABE0000B5B1C7B046
:10509000CEC2B6C83A32302E3720A1E3430000001A
:1050A000B0B42ABCFCB7B5BBD8D6F7BDE7C3E600A1
:1050B000F0B50B30154D20F007010024144A0FE025
:1050C00003688B420BD38B4205D95E1A431847689D
:1050D000C3E9006700E04368136002C004E0021DFA
:1050E00010680028ECD12046002802D1286808B1B9
:1050F0000020F0BD064A07481060074A121A22F045
:105100000702C0E9002401202860D7E74C010020F5
:10511000480100209C200020984800202DE9F047FD
:1051200095496FF001002DED048BADF5415D0968E7
:1051300008619148FDF762FA9048FCF789FA904CB3
:10514000A07803284FF0000005D2FDF749FEA078B3
:10515000401CA07001E0FDF76BFE4FF4A07604AB9D
:1051600006AA3146E068FBF75FFC05AB07AA3146AB
:10517000E068FBF7A5FCDDE90610091A00EB510514
:105180000023E168184651F82020521B00D55242F6
:10519000401C80B21344B042F5D3B3FBF6F09FED50
:1051A000798ADFED798AB3EE069A4FF48069022896
:1051B0004CD941F2240700206F444D4651F820207D
:1051C00000EE102A07EBC002401CB8EE400A80B285
:1051D000A84270EE680A80EE890A82ED000A82ED2C
:1051E000018AEBD339466948FBF796FB2A4608AD9E
:1051F00029463846FAF7E6FF43F224028DED088A85
:105200000DF581536A444FF400712846FBF7A2FB69
:1052100094ED020AB8EE400A9FED5D1AC1EE000A55
:1052200094ED010AB8EE401A80EE810ADFED590ACA
:105230000DF5805060EE200A90ED080AB8EE400AA5
:1052400020EE800ADFED540A80EE208A00254FF61A
:10525000E0774FF4FC684FF6FF7AE16851F82500DB
:10526000DC2800D9DC2041F82500C0F1F00081B233
:105270003A462846FDF704FE424611212846FDF72E
:10528000FFFD5246A7212846FDF7FAFD6D1CADB281
:10529000B542E2D30498032800D80320049005986F
:1052A000032800D8032005904FF478400090E1686F
:1052B0000498A046102351F82010C01EC1F1EA0145
:1052C00089B280B22A22FDF72DFF40F2FF700090D4
:1052D000D8F80C10059810232A2251F82010C01E6F
:1052E000C1F1EA0189B280B2FDF71CFF9DED060A0B
:1052F00018EE100AB8EE400A30EE680AC0EE090A4D
:105300009DED070AB8EE400A30EE681A81EE090AF0
:10531000B1EE041A60EE818A20EE019AFBF7EEFEF0
:1053200006460F4619EE100AFBF7E8FE04460D4646
:1053300018EE900AFBF7E2FE8DE8F00041EC100B4E
:1053400016A053EC102BFDF781FE4FF47A70FCF79A
:1053500083FB4A460948D8F80C10FCF7CFF80648FA
:10536000FDF73AF9002188F800100DF5415DBDEC1C
:10537000048BBDE8F08700005C0500209C05002040
:105380003001002000000000000090428420002036
:10539000A037204D0000803A00007A444D61783AF1
:1053A00025312E326656204D696E3A25312E3266F1
:1053B0005620467265713A25322E32666B487A2045
:1053C0002020000000061016000610160000000045
:1053D00000000000010203040607080900000000A5
:1053E00001020304000000000000000000000000B3
:1053F00000000000000000000000000000000000AD
:10540000000000000000000000000000000000009C
:10541000000000000000000000000000000000008C
:105420000000000000000000000000000000C001BB
:10543000C001C001C001C001C001C00180008000E6
:1054400080008000800080008000000000000000DC
:1054500000008001C003C0038001000000000000C4
:1054600000000000000000000000E01CE01CF01E36
:10547000700E3807180308018400000000000000C7
:10548000000000000000000000000000000000001C
:10549000000000000000000000000000000000000C
:1054A00000000000000000000000000000000000FC
:1054B00020102010201020102010FE7FFE7F1008EA
:1054C000100810081008100810081008FE7FFE7F52
:1054D0000804080408040804080400000000000090
:1054E00000000000000000000000000000010001BA
:1054F000C007601910311831183918393801700196
:10550000E001C0038007000F001D003900311C318D
:105510001C310C310C11180DE007000100010001D5
:10552000000000000000000000000000000000007B
:105530001C1036186308630C63046304630263027F
:105540006301361D9C378022806340634063206383
:105550002063306310221836081C00000000000091
:10556000000000000000000000000000000000003B
:10557000F00098018C018C018C018C018C00CC0016
:105580007800183E1C083608320863046304C3041C
:10559000C303834306438E26781C000000000000EE
:1055A000000000000000000000001C003C003C0067
:1055B0003000300010000C00060000000000000069
:1055C00000000000000000000000000000000000DB
:1055D00000000000000000000000000000000000CB
:1055E000000000000000000000000040002000104B
:1055F0000008000C00040006000300030003800103
:105600008001800180018001800180018001000310
:105610000003000300060006000C00080010002034
:10562000004000000000000000000200040008002C
:105630001000300020006000C000C000C0008001E9
:105640008001800180018001800180018001C00013
:10565000C000C000600060003000100008000400BE
:105660000200000000000000000000000000000038
:105670000000000000018003800300011C713C79E0
:10568000783DC0070001C007783D3C791C710001DE
:105690008003800380010000000000000000000083
:1056A00000000000000000000000000000000000FA
:1056B00000000000000000010001000100010001E5
:1056C00000010001FC7F0001000100010001000158
:1056D00000010001000000000000000000000000C8
:1056E00000000000000000000000000000000000BA
:1056F00000000000000000000000000000000000AA
:105700000000000000000000000000000000000099
:10571000000000001C003C003C0030003000100085
:105720000C00060000000000000000000000000067
:105730000000000000000000000000000000000069
:1057400000000000FE7F00000000000000000000DC
:105750000000000000000000000000000000000049
:105760000000000000000000000000000000000039
:105770000000000000000000000000000000000029
:105780000000000000000000000000000000000019
:10579000000018003C003C00180000000000000061
:1057A0000000000000000000000000400060002039
:1057B0000030001000180008000C00040006000271
:1057C0000003000180018000C00040006000200054
:1057D00030001000180008000C0004000600020051
:1057E00000000000000000000000000000000000B9
:1057F000C007600C30181830183018200C600C608E
:105800000C600C600C600C600C600C600C6018206C
:10581000183018303018600CC0070000000000007D
:105820000000000000000000000000000000000078
:1058300000018001F8018001800180018001800168
:105840008001800180018001800180018001800150
:10585000800180018001C003F81F000000000000EB
:105860000000000000000000000000000000000038
:10587000E007101C0818043004300C300C300030E5
:1058800000180008000400020001800040002020F1
:10589000102008200430FC1FFC1F00000000000046
:1058A00000000000000000000000000000000000F8
:1058B000E003180E0C0C0C180C180C180018000C37
:1058C0000006C003000E00180010003000300C303D
:1058D0000C300C100C18180CE00300000000000045
:1058E00000000000000000000000000000000000B8
:1058F000000C000E000E000F800E800E400E600E99
:10590000200E100E100E080E040E040EFE7F000E68
:10591000000E000E000E000E000EC07F0000000002
:105920000000000000000000000000000000000077
:10593000F03FF03F10001000100008000800C807FA
:10594000280C1818081000300030003000300C30DF
:105950000C3004180418080CF003000000000000CC
:105960000000000000000000000000000000000037
:10597000800FC010203010301800180008000C00F4
:105980008C0F6C183C301C600C600C600C600C6060
:105990001860182030306018C007000000000000B8
:1059A00000000000000000000000000000000000F7
:1059B000F83FF83F1C100C0804080404000400021F
:1059C0000002000100010001800080008000C00092
:1059D000C000C000C000C000C00000000000000007
:1059E00000000000000000000000000000000000B7
:1059F000E007300C18180C300C300C301C30381804
:105A00007008E007B007180E0C1C06380630063088
:105A1000063006300C18180CE003000000000000EF
:105A20000000000000000000000000000000000076
:105A3000E00318040C080C18061006300630063077
:105A4000063006380C3C1836F031003000180018CB
:105A500000180C0C0C060C03F00100000000000004
:105A60000000000000000000000000000000000036
:105A700000000000000000000000000000008001A5
:105A8000C003C0038001000000000000000000000F
:105A900000008001C003C00380010000000000007E
:105AA00000000000000000000000000000000000F6
:105AB0000000000000000000000000000000C00026
:105AC000C000000000000000000000000000000016
:105AD000000000000000C000C00080008000400006
