:020000040800F2
:10000000B8FB00209D01000841160008A902000865
:100010003D16000851040008891B0008000000007C
:10002000000000000000000000000000AF01000818
:100030005504000800000000EF010008A1160008A8
:10004000B7010008B7010008B7010008B7010008B0
:10005000B7010008B7010008B7010008B7010008A0
:10006000B7010008B7010008B7010008B701000890
:10007000B7010008B7010008B7010008B701000880
:10008000B7010008B7010008B7010008B701000870
:10009000B7010008B7010008B7010008B701000860
:1000A000E5170008B7010008B7010008B70100080C
:1000B000F5170008B7010008B7010008B7010008EC
:1000C000B7010008B7010008B7010008B701000830
:1000D000B7010008B7010008B7010008B701000820
:1000E000B7010008B7010008B7010008B701000810
:1000F000B7010008B7010008B7010008B701000800
:10010000B7010008B7010008B7010008B7010008EF
:10011000B7010008B7010008B7010008B7010008DF
:10012000B7010008B7010008B7010008B7010008CF
:10013000B7010008B7010008B7010008B7010008BF
:10014000B7010008B7010008B7010008B7010008AF
:10015000B7010008B7010008B7010008B70100089F
:10016000B7010008B7010008B7010008B70100088F
:10017000B7010008B7010008B7010008000000003F
:10018000B7010008B7010008DFF80CD000F048F90B
:100190000048004745040008B8FB00200648804797
:1001A00006480047FEE7FEE7FEE7FEE7FEE7FEE75C
:1001B000FEE7FEE7FEE7FEE7D11700088901000829
:1001C000EFF3108072B6704780F310887047444A8E
:1001D0001368012B04D04FF001031360414A1060F3
:1001E000414A116041484FF0805101607047EFF380
:1001F000108272B63A48016851B34FF000010160B5
:100200003848016891B1EFF309811EF0100F08BF63
:1002100021ED108B21E9F00F4FF000041EF0100FBC
:1002200008BF012441F8044D006801602E490968A7
:10023000096808C9B1E8F00F002B18BFB1EC108BAA
:1002400081F309884EF0100E002B18BF2EF0100E0F
:1002500082F310884EF0040E704723490860EFF3D4
:10026000148222F0040282F314881E494FF0000029
:1002700008601B494FF0010008601D481D49D0F877
:10028000002041EA0201016018484FF080510160EE
:1002900019480068006880F3088861B662B6BFF349
:1002A0004F8FBFF36F8F70471EF0040F0CBFEFF33B
:1002B0000880EFF3098020E9F00F40F804ED40F8E2
:1002C00004ED1EF0040F0CBF80F3088880F309884A
:1002D00000B503F099FA5DF804EB4EF0040E704798
:1002E000F0F500205CF3002064F3002004ED00E052
:1002F00020ED00E00000FFFF08ED00E02DE9F05FD9
:100300000546002092469B46884606468146402484
:100310001BE0284641464746224600F071F8534606
:100320005A46C01A914110D311461846224600F091
:1003300058F82D1A67EB01084F462246012000218C
:1003400000F04FF817EB00094E41201EA4F1010404
:10035000DFDC484631462A464346BDE8F09FD2B22C
:1003600001E000F8012B491EFBD270470022F6E79E
:1003700010B513460A4604461946FFF7F0FF20461B
:1003800010BD10B5044604E00B7800F8013B03B142
:10039000491C521EF8D2204610BD421C10F8011B09
:1003A0000029FBD1801A704710B5002200E0521CD2
:1003B000835C8C5CA34201D1002BF8D1D8B2E1B2AE
:1003C000401A10BD30B505460020034600E05B1C16
:1003D000934205D2EC5CC85C201A01D1002CF6D106
:1003E00030BD202A04DB203A00FA02F100207047D9
:1003F0009140C2F1200320FA03F319439040704763
:10040000202A04DB203A21FA02F00021704721FA69
:1004100002F3D040C2F120029140084319467047D0
:10042000064C074D06E0E06840F0010394E8070041
:1004300098471034AC42F6D3FFF7AAFECC5A000816
:10044000EC5A000880B504F075FC002080BD000067
:10045000FEE700007047000072B600BFFEE7000034
:100460002DE9F04F83B000F13E4202F1FF724FEAF6
:10047000B22241F600470192C4F2020708224FF06F
:10048000010E00254FF0000A4FF00008B84208BFE7
:10049000072200920AE000BF08F101080AF1040AED
:1004A000B8F1100F05F1020500F0A4800C680EFAF7
:1004B00008FB14EA0B09EFD04C6804F0030CACF114
:1004C000010EBEF1010F11D80322876802FA05F66A
:1004D000CA68B743AA403A4382604268C4F300172F
:1004E00022EA0B0207FA08F73A434260BCF1030F15
:1004F0001CD0C26803238E6803FA05F7BA4306FAD4
:1005000005F73A43BCF1020FC2600FD16FF003024E
:1005100002EA580202440AF01C060F23176A03FA83
:1005200006F40B69A743B3403B43136202680323FD
:100530004F68AB409A4307F00303AB401A4317F4EC
:10054000403F4FF0010E0260A6D0002243F6440364
:100550000292C4F202031A6843F6004442F4804255
:100560001A601A68C4F2010402F480420292029AEC
:1005700028F003024FF6084B2244CFF6FF7B52F8D7
:100580000B300AF00C070F26BE4023EA060C019B35
:10059000009E072B38BF1E4606FA07F747EA0C03F2
:1005A00042F80B30A2684B6842EA090743F60C4C4C
:1005B000DE0258BF22EA0907A760C4F2010CDCF88A
:1005C00000209E0242EA090758BF22EA0907CCF838
:1005D000007062689E0342EA090758BF22EA0907D1
:1005E00067602268DB0342EA090358BF22EA090375
:1005F000236051E703B0BDE8F08F0000426902EAD2
:100600000103914341EA034181617047002A08BF19
:1006100009048161704700004FF2B070C2F200001F
:100620000068704740F270004FF2B071C2F20000F3
:10063000C2F2000100780A681044086070470000A8
:1006400080B543F60040C4F20200016841F4007135
:100650000160016841F480610160016841F48071CA
:100660000160032000F08EF80F2000F005F800F084
:1006700059F8002080BD000070B586B0002543F613
:1006800040010195C4F202010A68044642F00102E9
:100690000A60096801A801F0010101910199694608
:1006A00000F024F9049E002E18BF012600F044F942
:1006B0004DF68361B040C4F21B31A0FB01014FF045
:1006C000FF3000EB914140F2A010C2F200004FF069
:1006D000804240F2E733C0E90021C0E902530561DE
:1006E000856100F089FB0546C0B940F2A010C2F256
:1006F000000000F0D3FB054680B91C2000F02EF866
:100700000F2C0AD81C202146002200F02BF840F2C2
:100710007400C2F20000046000E00125284606B023
:1007200070BD000082B0002043F640010190C4F289
:1007300002014A6842F480424A604A6802F48042F8
:100740000192019A0090086840F0805008600868A3
:1007500000F080500090009802B0704780B501F022
:1007600015FA80BD70B514460D46064601F01EFA16
:100770002946224600F066FF0146304601F01EFA87
:1007800070BD000080B501F02BFA80BD2DE9F0416D
:10079000002800F08B8043F60808C4F202080446E3
:1007A000D8F8F8030D4600F00700884207D288F811
:1007B000F853D8F8F80300F00700A84276D1206873
:1007C000810717D5410705D5D8F8001041F4E0514D
:1007D000C8F80010010705D5D8F8001041F46041B1
:1007E000C8F80010D8F80010A26821F0F0011143F9
:1007F000C8F80010C0073FD1D8F8F80300F0070090
:10080000A84207D988F8F853D8F8F80300F0070091
:10081000A8424BD12068410707D5D8F80010E268FC
:1008200021F4E0511143C8F80010000708D5D8F8AA
:100830000000216920F4604040EAC100C8F80000CF
:1008400000F09EF8D8F8001045F25452C1F303119D
:10085000C0F60002515C40F2040220FA01F140F2BD
:100860007400C2F200000068C2F200021160FFF7DB
:1008700003FF0020BDE8F0816068811E022907D2D5
:1008800058F8081C89015CBF0120BDE8F08110E028
:10089000012807D158F8081C89035CBF0120BDE876
:1008A000F08106E058F8081C890702D40120BDE851
:1008B000F081D8F8001021F003010843C8F80000C7
:1008C000FFF7AAFE064641F2883700BFD8F80000BD
:1008D000616800F00C00B0EB810F8DD0FFF79CFE3B
:1008E000801BB842F2D90320BDE8F0810F220260DC
:1008F00043F60802C4F20202136803F003034360E4
:10090000136803F0F0038360136803F4E053C360DB
:10091000D2F800C04FF4E05303EADC030361D2F8DD
:10092000F80300F0070008607047000040F2040080
:10093000C2F200000068704780B5FFF7F7FF43F68A
:100940000801C4F20201096845F26452C1F3822130
:10095000C0F60002515CC84080BD000080B5FFF7C2
:10096000E5FF43F60801C4F20201096845F264524A
:10097000C1F34231C0F60002515CC84080BD0000A6
:1009800010B543F60404C4F20204606800F00C00E1
:1009900008280AD0042819BF42F20040C0F2F4002F
:1009A00047F64000C0F27D1010BD20682168236822
:1009B000490247F64001C0F27D1100F03F02C3F347
:1009C00088105CBF42F20041C0F2F401A1FB0001BB
:1009D0000023FFF793FC21680222C1F3014102EBDF
:1009E0004101B0FBF1F010BD2DE9F04182B00028CB
:1009F00000F0A2800446007843F60006C007C4F267
:100A0000020643D0B06800F00C00042805D130681D
:100A100080033BD56068C8BB8EE0B06800F00C0076
:100A2000082802D170684002F1D46568B5F5A02F9E
:100A30000AD0B5F5803F0BD0306820F480303060AC
:100A4000306820F4802006E0306840F48020306078
:100A5000306840F480303060FFF7DEFD002D054641
:100A600011D000BF3068800310D4FFF7D5FD401BC4
:100A70006428F7D922E100BFFFF7CEFD401B6428B0
:100A80004FF0030055D830688003F5D420788007F4
:100A90001AD5B06810F00C0F09D0B06800F00C0047
:100AA000082840F08A807068400200F18680306833
:100AB000800702D5E06801283ED13068216920F026
:100AC000F80040EAC10030602078000738D4207870
:100AD00040074CD4A5695DB3B06800F00C0008284D
:100AE00040F09E80012D27D07068E16900F48002FB
:100AF0008A4221D1216A00F03F028A421CD147F686
:100B0000C071626A0140B1EB821F15D1A26A002355
:100B1000CFF6FF7303EBC23200F440316FF30F02E4
:100B2000914209D1E16A00F07060B0EB016F03D12E
:100B3000002002B0BDE8F081012002B0BDE8F081E4
:100B40006069002840F20000C4F2472057D001211C
:100B5000C0F8801EFFF760FD054600BF706F80077C
:100B6000B5D4FFF759FD401B0228F7D9A6E0306C39
:100B700010F080580AD100200190306C40F0805075
:100B80003064306C00F080500190019847F200070B
:100B9000C4F200073868C00524D4386840F4807077
:100BA0003860FFF739FD05463868C0051AD4FFF7ED
:100BB00033FD401B0228F7D980E0E068002851D0BF
:100BC0000020C4F2472001210160FFF725FD054602
:100BD000306880073FF571AFFFF71EFD401B02280C
:100BE000F6D96BE0A568052D50D0012D52D0306F9D
:100BF00020F001003067306F20F004004DE000214C
:100C0000C0F8801EFFF708FD054600BF706F800723
:100C10007FF55DAFFFF700FD401B0228F6D94DE0E0
:100C20000027C4F2472700203866FFF7F5FC022DA5
:100C300005460BD13068800158D5FFF7EDFC401B0D
:100C400002284FF00300F5D973E700BF3068800138
:100C50007FF56EAFFFF7E0FC401B02284FF003006A
:100C6000F4D966E70020C4F2472000210160FFF7B5
:100C7000D3FC0546306880077FF526AFFFF7CCFC34
:100C8000401B02284FF00300F4D952E7306F40F0C8
:100C900004003067306F40F001003067FFF7BCFCA4
:100CA000002D054641F2883714D000BF306F800711
:100CB00013D4FFF7B1FC401BB842F7D9032002B0B0
:100CC000BDE8F081FFF7A8FC401BB8424FF00300DD
:100CD0003FF62FAF306F8007F4D4B8F1000F7FF4E8
:100CE000F9AE306C20F080503064F3E604F11C055E
:100CF0002FCD08430021CFF6FF7140EA821001EBAF
:100D0000C3316FF30F0140EA0560084370600120B2
:100D10003866FFF781FC0446306880013FF508AF74
:100D2000FFF77AFC001B02284FF00300F4D900E71C
:100D300080B500F09DFC80BD70470000704700004A
:100D400010B590F83C20012A4FF0020252D0012346
:100D500080F83C3080F83D200268D2F804E0D2F8F8
:100D600008C00C682EF07003234341F2FF74C4F2F4
:100D70000004A24253600DDC40F2FF73C4F2000392
:100D80009A4215DCB2F1804F29D040F20043C4F200
:100D9000000322E040F2FF33C4F201039A4212DC66
:100DA00041F60003C4F200039A4218D0002312E077
:100DB00040F60003C4F200039A4210D040F600430C
:100DC000C4F2000309E044F20003C4F201039A42B2
:100DD00005D040F20043C4F201039A4204D14968AD
:100DE0002CF08003194391600121002280F83D100E
:100DF00080F83C20104610BD002804BF0120704739
:100E000010B5044690F83D0028B9002084F83C0055
:100E1000204600F01FF8022084F83D002068211DC4
:100E200000F0F0FC012084F8460084F83E0084F8CD
:100E30003F0084F8400084F8410084F8420084F8C0
:100E4000430084F8440084F8450084F83D00002005
:100E500010BD000080B582B000680021C4F201011D
:100E6000884201D002B080BD0020019043F64400CA
:100E7000C4F202000168002241F001010160006833
:100E8000002100F00100019001981820FFF76AFC92
:100E90001820FFF763FC02B080BD000090F83D1001
:100EA00001291CBF01207047022180F83D10006815
:100EB00041F2FF72C168C4F20002904241F00101A8
:100EC000C1600DDC40F2FF71C4F20001884215DC04
:100ED000B0F1804F29D040F20041C4F2000122E07D
:100EE00040F2FF31C4F20101884212DC41F60001F8
:100EF000C4F20001884218D0002112E040F600013F
:100F0000C4F20001884210D040F60041C4F2000152
:100F100009E044F20001C4F20101884205D040F228
:100F20000041C4F20101884206D1816801F0070145
:100F3000062904BF00207047016841F001010160EB
:100F40000020704710B5044690F83C0001284FF08F
:100F5000020008BF10BD012284F83C2084F83D0047
:100F600020684FF6777382689A4382600A684F2A36
:100F70000FDC1F2A22DD202A23D0302A21D0402A4C
:100F80004DD14B68CA68194600F0E6FC2068402144
:100F90003BE06F2A17DDB2F5005F20D0B2F5805F2D
:100FA0002AD0702A3BD1D1E9012CCB68614600F0F0
:100FB000BFFC2068816841F077011AE00AB1102A6D
:100FC0002DD1114621E0502A18D0602A27D14B6834
:100FD000CA68194600F0D2FC2068602115E0D1E90A
:100FE000012CCB68614600F0A3FC2068816841F4C5
:100FF0008041816000200BE0002009E04B68CA6856
:10100000194600F0A9FC2068502100F09DFC00204A
:10101000012184F83D10002184F83C1010BD01200E
:10102000F6E7000070470000B0B504460068C168EC
:10103000026902EA0105A9071DD4680731D428070F
:1010400047D4E8065CD4E80773D128067BD4680649
:1010500006D520686FF040010161204600F08AF853
:10106000A80658BFB0BD20686FF02001016120467E
:10107000FFF764FEB0BD6FF002010161012121772D
:101080008069800703D02046FFF7CCFF05E02046AB
:1010900000F064F8204600F063F80020207768072D
:1010A000CDD520686FF004010161022121778069AC
:1010B00010F4407F03D02046FFF7B4FF05E0204640
:1010C00000F04CF8204600F04BF80020207728076D
:1010D000B7D520686FF00801016104212177C0694C
:1010E000800703D02046FFF79DFF05E0204600F073
:1010F00035F8204600F034F800202077E806A2D525
:1011000020686FF01001016108212177C06910F497
:10111000407F03D02046FFF785FF05E0204600F022
:101120001DF8204600F01CF800202077E8073FF467
:101130008CAF20686FF001010161204600F012F8C9
:1011400028067FF584AF20686FF08001016120469A
:10115000FFF7F2FD68067FF583AF7AE7704700007E
:101160007047000080B50068B0F1804F08BFFFF7FE
:1011700059FA80BD70470000002804BF0120704765
:1011800010B5044690F8410028B9002084F84000CA
:10119000204600F021F8242084F841002068C1682E
:1011A00021F40051C160204600F022FC2068016952
:1011B00021F490410161416921F02A014161C16836
:1011C00041F40051C16000202021606484F8411086
:1011D00084F84210606310BD80B586B0006844F2A8
:1011E0000042C4F2000200219042CDE90411CDE991
:1011F0000211019127D044F60001C4F20001884297
:101200003FD041F20001C4F20101884265D10020C3
:1012100043F630010090C4F202014A6942F0100224
:101220004A614A6902F010020092009A0090086830
:1012300040F001000860086800F00100009000988C
:101240004FF4C06018E043F630000091C4F2020091
:10125000026942F400320261026902F40032009233
:10126000009A0091016841F001010160006800F0FE
:101270000100009000980C2001900020C4F20200B0
:1012800020E0002043F630010090C4F202010A6918
:1012900042F480220A610A6902F480220092009AD4
:1012A0000090086840F002000860086800F0020042
:1012B000009000984FF4406001900020C4F20200BA
:1012C00000F5806002210291002103910321049125
:1012D0000721059101A9FFF7C3F806B080BD000002
:1012E0002DE9F041044690F8420020281CBF02205E
:1012F000BDE8F0810E4600294FF0010049D01746A5
:10130000002A08BFBDE8F0814FF0000822201D46EA
:10131000C4F8448084F84200C4F83080FFF77CF9B8
:10132000A785E785A1680746B1F5805F10D12069E0
:10133000002814BF3046B046064609E02068002663
:1013400040686FF35F2028F8020BE08D0138E085DC
:10135000E08DD0B1204620213A462B4600F0D0FB4C
:10136000C8B9002EEAD0A068B0F5805F08D008B9EF
:10137000206928B12068406800F07F0002E000BFCB
:101380002068406806F8010BDFE7202084F842005F
:101390000020BDE8F081202084F842000320BDE851
:1013A000F081000010B590F84230202B1CBF0220C5
:1013B00010BD00294FF0010418BF002A01D12046BA
:1013C00010BD0024046300F081FB204610BD000026
:1013D0002DE9F041044690F8410020281CBF02206E
:1013E000BDE8F0810E4600294FF0010042D01746BB
:1013F000002A08BFBDE8F0814FF0000821201D46FB
:10140000C4F8448084F84100FFF706F9A784E78414
:10141000A1680746B1F5805F0DD12069002814BF8F
:101420003046B046064606E016F8010B21684860D3
:10143000E08C0138E084E08C80B1204680213A467F
:101440002B4600F05DFBB8B9002EEDD138F8020B49
:1014500021686FF35F2048600026E9E720464021BD
:101460003A462B4600F04CFB202184F8411000281E
:1014700018BF0320BDE8F081202084F8410003203C
:10148000BDE8F08170B586B0002543F630000595C3
:10149000CDE90355CDE901550095C4F2020001687C
:1014A00040F2004441F0040101600168C4F202040A
:1014B00001F004010091009900950168002241F0BB
:1014C000800101600168102601F0800100910099FF
:1014D0000095016841F001010160016801F001011E
:1014E000009100990095016841F0020101600068D7
:1014F000102100F00200009000982046FFF786F8C7
:101500000120CDE9020501A9204601960495FEF7C8
:10151000A7FF06B070BD000080B586B040F258103D
:1015200000220021C2F20000C4F201024FF6FF7354
:10153000CDE90411CDE90211CDE90011C0E9002186
:10154000C0E90213C0E904118161FFF755FC0028CE
:1015500018BFFEF781FF4FF48050029040F2581000
:10156000C2F2000002A9FFF7EDFC002818BFFEF749
:1015700073FF0020CDE9000040F25810C2F20000D5
:101580006946FFF7DDFB002818BFFEF765FF06B0D0
:1015900080BD000080B540F2E81041F20001C2F2C7
:1015A0000000C4F2010100234FF00C0C4FF4E132B3
:1015B00080E80E00C0E90333C0E905C3C361FFF74B
:1015C000DBFD002818BFFEF747FF80BD80B540F265
:1015D000302044F20041C2F20000C4F200010023B6
:1015E0004FF00C0C4FF4E13280E80E00C0E90333F9
:1015F000C0E905C3C361FFF7BFFD002818BFFEF7B0
:101600002BFF80BD80B540F2782044F60001C2F285
:101610000000C4F2000100234FF00C0C4FF4E13243
:1016200080E80E00C0E90333C0E905C3C361FFF7DA
:10163000A3FD002818BFFEF70FFF80BDFEE70000E6
:10164000FEE7000000F0070080F00703042B28BF2E
:1016500004234FF0FF3C03380CFA03F338BF00209B
:10166000994381400CFA00F022EA000008437047D9
:10167000B0B501380024B4EB106F1CBF0120B0BD21
:101680004EF21005CEF2000568604FF0FF300F21DA
:1016900000F094FA0720AC6028602046B0BD00003E
:1016A00080B502F0A5F903F069F802F0AFF980BD4A
:1016B00070B592B006AC20463021FEF757FE0025EB
:1016C00043F640000595CDE90355CDE90155009558
:1016D000C4F202000168022641F0805101600068F6
:1016E00000F080500090009847F200000095C4F28E
:1016F0000000016841F480410160006800F480400E
:10170000009000980120099010200A9008200E9067
:10171000A820CDE90F060420119020460696CDE9B9
:101720000C65FFF761F988B90F20CDE901064FF488
:10173000A05004904FF48050059001A80521039516
:10174000FFF724F8002804BF12B070BDFEF784FE36
:1017500043F60400C4F20200416801F00C0242F2B8
:101760000041082AC0F2F40106D0042A1DD147F630
:101770004001C0F27D1118E002680368520247F68A
:101780004002C0F27D1203F03F0358BF0A460168D1
:10179000B2FBF3F20368C1F388115143C3F3014272
:1017A000022303EB4202B1FBF2F140F20402C2F267
:1017B00000021160406845F25451C0F30310C0F6B6
:1017C0000001085C116821FA00F010607047000009
:1017D0004EF68850CEF20000016841F470010160BD
:1017E0007047000080B540F25810C2F20000FFF7C9
:1017F0001BFC80BD80B540F2A010C2F20000FFF7D4
:1018000013FC80BDB0B540F6FF3E0568C4F2000E83
:1018100040F2004C7045C4F2010C0FDCB0F1804F77
:1018200019D040F20043C4F20003984213D040F6AE
:101830000003C4F2000398420DD011E040F60043CB
:10184000C4F20003984206D0604504D00023C4F2DD
:101850000103984204D14B6825F0700243EA020567
:1018600041F6FF73C4F2000398420DDC70451FDCA3
:10187000B0F1804F41D040F20043C4F200039842DF
:101880003BD040F6000321E043F6FF73C4F20103AE
:10189000984220DC42F20003C4F2000398422CD0AC
:1018A0000023C4F20103984227D0604525D029E0E7
:1018B00040F60043C4F2000398421ED041F60003F4
:1018C000C4F20003984218D041F60043C4F200036A
:1018D000984212D016E044F20003C4F20103984289
:1018E0000BD044F60003C4F20103984205D044F241
:1018F0000043C4F20103984204D1CB6825F440723E
:1019000043EA02050A688C684B69C46240F480644B
:101910008262644504BF09690163026825F08001A1
:1019200042F0040219430260012242610160B0BD2D
:10193000D0F808C011432CF47F4C41EA032141EA5E
:101940000C01816070470000826822F07002114330
:1019500041F0070181607047D0F820C0036A23F08E
:1019600001030362836923F0F00343EA02122CF0BF
:101970000A0319438261016270470000D0F820C059
:10198000036A23F010030362836923F4704343EA7C
:1019900002322CF0A00343EA011182610162704718
:1019A000016851E8031F026821F4907142E80313B3
:1019B000002BF5D1016851E8051F026821F00101F3
:1019C00042E80513002BF5D1016B01290AD100BFB4
:1019D000016851E8031F026821F0100142E8031377
:1019E000002BF5D1202180F84210002101637047BF
:1019F00010B504460068D4E902C22369016921F4E4
:101A0000405111430161626943EA0C01E3691143EA
:101A1000C268194349F20C639A431143C16041699A
:101A2000A26921F4407141F20043114340F4806205
:101A3000C4F201039A42416102D1FEF78FFF01E037
:101A4000FEF77AFFE16963681922B1F5004FA0FB48
:101A500002011CD15A00DB0FFEF750FC48F21F5167
:101A6000C5F2EB11A0FB01235A096FF0630302FBDF
:101A70000300322303EBC000A0FB01014FF4F87018
:101A800000EA111000EB0210C1F342111AE09A00B3
:101A90009B0FFEF733FC48F21F51C5F2EB11A0FB80
:101AA00001235A096FF0630302FB0300322303EBA7
:101AB0000010A0FB0101F02000EA511000EB021021
:101AC000C1F3431122680843906010BD8162002178
:101AD0008285C2854164222180F84210016921B1CA
:101AE0000168CA6842F48072CA600168486940F0BF
:101AF00001004861C86840F020020020CA607047B9
:101B00002DE9F04182B00446006800680840884230
:101B100003D1002002B0BDE8F0811D460E4690467C
:101B20005F1C04E0206800683040B04228D0002FDD
:101B3000F8D0FEF771FD01464FF003000DB3A1EBA5
:101B40000801A9421DD82068C1684907EAD5402E7E
:101B5000E8D0802EE6D001680907E3D5002501957D
:101B6000016801914068019001982046FFF718FF35
:101B70000820606484F84050012002B0BDE8F08184
:101B8000002002B0BDE8F081FEE70000002848BF59
:101B9000704700F01F01012202FA01F14EF200121B
:101BA0004009CEF2000242F8201070474EF60C5069
:101BB000CEF200000068C0F3022070474EF61453C6
:101BC00000F00F02CEF2000309011A4400F1604355
:101BD000B0F1FF3FC8BF03F56442117070470000C9
:101BE0004EF60C51CEF200010A684FF6FF031A4080
:101BF00060F30A2242F0806040F0FD700860704798
:101C0000002804BF00207047C1B209B101200CE0D8
:101C100010F47F4102D0090A092006E010F47F0188
:101C200007BF010E1920090C112045F26C52C0F6B5
:101C30000002515C0844704780B501F029FD80BD69
:101C400080B501F033FD80BD80B50068143802F026
:101C5000F3FC80BD70B50446084616460D4602F0FA
:101C600047FDE6B1012E19D1264600BF3668A642CF
:101C70000FD095F8350096F821108842F6D2A6F1DB
:101C80001400143005F1140101F01AFFA64218BF28
:101C900070BD05F11401204601F012FF70BD05F181
:101CA0001401204601F00CFF70BD000080B5143017
:101CB00001F0DAFE80BD00002DE9F04188B09046C9
:101CC0000D460646002100BF705C092806D020287A
:101CD00004D08D4201D00131F6E72946C1B130462A
:101CE00001F052FAA0B16C4607462046002120229E
:101CF00002F062F830462946224601F0A9FA38B1CE
:101D00006946B847C8F80000002008B0BDE8F08177
:101D10004FF0FF3008B0BDE8F081000010B54FF281
:101D2000EC41C2F20001096804460846FFF768FF6B
:101D3000411E4FF2EC30C2F2000050F83100216039
:101D4000143810BD4FF2046CC2F2000C18B1DCF86C
:101D50000030DB69036019B1DCF80000006A08603C
:101D6000002A08BF7047DCF80000406A1060704726
:101D7000B0B502F07FFC0446FEF722FA0546204685
:101D800002F086F904F1440002F0BCFD042084F85E
:101D90003400204602F0EAFB2846FEF715FA02F06E
:101DA000C1F8B0BD2DE9F04782B00446DDF83090AF
:101DB000DDE90A8A14301D4616460F4601F05CFE26
:101DC000284623214246C4E90876C4E90A5801F0AE
:101DD000F3FF04F120030FCB1A4441F67153043A88
:101DE000C0F6000301F0E2FD41F62162E061002748
:101DF00004F14400C0F600022146234684F835A0D1
:101E0000C4E90E79C4F84090276384F83470C4E9BB
:101E10001C770097019702F089FD02B0BDE8F087BA
:101E2000B0B50446FEF7CCF905466FF0010020631B
:101E300004F1140001F08AFE204602F0F3F828466F
:101E4000FEF7C2F902F06EF8B0BD000080B5DDF813
:101E500008C000F11C0E0CF0FE0C80F809C0143014
:101E60004FF0000C8EE80E1001F00AFE80BD00005D
:101E700080B5143001F072FE80BD000010B54EF642
:101E800029541CA0CEF2000401F0CEFD21781CA044
:101E900001F0CAFD2078C00702D01FA001F0C4FDE8
:101EA0002078800702D51FA001F0BEFD20784007F2
:101EB00002D51FA001F0B8FD2078000702D520A0B0
:101EC00001F0B2FD2078C00602D520A001F0ACFDE3
:101ED00094F90000B0F1FF3F06DD45F6A200C0F620
:101EE000000001F0A1FD10BDD4F80F1019A001F001
:101EF0009BFD10BD627573206661756C743A0A00B3
:101F00005343425F434653525F424653523A3078FE
:101F10002530325820000000494255534552522086
:101F200000000000505245434953455252200000E2
:101F3000494D50524543495345525220000000003C
:101F4000554E53544B4552522000000053544B45BC
:101F5000525220005343422D3E424641523A2530D0
:101F600038580A0080B502A001F05EFD002080BD57
:101F70001B5B324A1B5B480080B584B00020039095
:101F8000CDE9010003A802A901AA01F007FF039906
:101F900009A001F049FD02990BA001F045FD01994E
:101FA0000DA001F041FDDDE90210411A0EA001F083
:101FB0003BFD002004B080BD746F74616C20202054
:101FC000203A2025640A00007573656420202020D3
:101FD000203A2025640A00006D6178696D756D20D6
:101FE000203A2025640A0000617661696C61626CA8
:101FF000653A2025640A000010B5022825D14C68F6
:1020000045F6D901C0F600012046FEF7CDF9C8B368
:1020100045F6FA01C0F600012046FEF7C5F9A8B35F
:1020200022A12046FEF7C0F9A0B345F60011C0F684
:1020300000012046FEF7B8F980B345F6F201C0F67C
:1020400000012046FEF7B0F960B345F2E970C0F632
:10205000000001F0E9FC16A001F0E6FC45F66A007C
:10206000C0F6000001F0E0FC14A001F0DDFC1AA0B5
:1020700001F0DAFC1FA001F0D7FC26A001F0D4FC8F
:10208000002010BD00F0E6FD002010BD00F0A2FE13
:10209000002010BD00F042FD002010BD00F0E2FB6A
:1020A000002010BD00F088FC002010BD73656D009D
:1020B0005B6F7074696F6E735D3A0A002020202098
:1020C00074696D6572202D206C6973742074696D5C
:1020D0006572730A000000002020202073656D20C7
:1020E0002D206C6973742073656D6170686F726503
:1020F000730A0000202020206D61696C626F7820D7
:102100002D206C697374206D61696C626F78730A3D
:1021100000000000202020206D656D706F6F6C2026
:102120002D206C697374206D656D6F727920706FEE
:102130006F6C730A0000000080B500F08BFD00207A
:1021400080BD000010B5844603684CF6CD40CCF647
:10215000CC40A3FB000E03F00F001A094FEADE0487
:1021600004EB84040A2904BF4FEADE02A3EB440017
:10217000CCF8002010BD000010B54FF20060C2F294
:102180000000006890F82100800706D440F2D000DB
:10219000C2F20000002101701DE040F25410C2F2B2
:1021A0000000016840F2D004C2F2000439B140F2EC
:1021B000D000C2F200008022FEF7E3F806E0002023
:1021C000207147F26D30C2F2680020602046FEF7B1
:1021D000E4F83E21215240F2D000C2F2000010BDCE
:1021E00080B501F0BFFA80BD4FF20061C2F200017C
:1021F000096800F0010091F8212002F0FD0242EA96
:10220000400081F82100704740F2C002C2F2000293
:10221000106040F2C400C2F200000160704700008C
:10222000B0B582B045F63C2045F6CC21C0F60000A2
:10223000C0F60001FFF7E8FF0120782101F0C8F99E
:102240004FF20065C2F200052860F8B10A2015219E
:10225000CDE9001042F2C52110A0C0F60001002215
:102260004FF48063002402F043F92A6805460DA16B
:1022700010460022002301F02DFF0120FFF7B4FFDC
:102280004DB1284602F020FA002404E007A001F036
:10229000CBFB4FF0FF34204602B0B0BD74736865CD
:1022A0006C6C000073687278000000006E6F206D27
:1022B000656D6F727920666F72207368656C6C0A49
:1022C000000000004FF20069C2F20009D9F80000D6
:1022D00090F8211041F0010180F82110FFF74CFF28
:1022E00040F2D004C2F20004204601F09DFB45F606
:1022F000081645F6A2074FF001084FF0000AC0F695
:102300000006C0F600074FF0020B01E080F82080C5
:10231000FFF766FF0028FBD40546D9F800001B2D07
:10232000F4D090F82010022908D0012940F07180E3
:102330005B2D40F06C8080F820B0E9E7A5F1410109
:10234000022980F820A0E3D3442D00F28D80DFE83D
:1023500015F04500900090009000900090009000D3
:102360009000CC000A016C00900090006C0090007E
:1023700090009000900090009000900090009000DD
:1023800090009000900090009000900090009000CD
:1023900090009000900090009000900090009000BD
:1023A00090009000900090009000900090009000AD
:1023B000900090009000900090009000900090009D
:1023C000900090009000900090009000900090008D
:1023D00090009000900090004600560198E7B0F8F9
:1023E0007610B0F874209142BFF492AF084490F890
:1023F000221045F60A10C0F6000001F015FBD9F8CE
:102400000000B0F876100131A0F8761080E780F86F
:1024100020A00D2D28D8DFE805F0072C2C2C2C2C23
:102420002C2C68A6082C2C0872E790F82100C00715
:1024300002D0384601F0F8FAD9F80000B0F874106C
:10244000223000F067FEFFF797FE204601F0ECFA1D
:10245000D9F8000000212230512201F0ADFCD9F85A
:102460000000C0F874A053E77F2D3ED0FF2D3FF44D
:102470004FAFB0F87410502928BFA0F874A0B0F87E
:102480007630B0F874209A4240F28C80C11801F185
:1024900023002231D21A01F063FCD9F80000B0F811
:1024A0007610084480F82250D9F8000090F82110E6
:1024B000C90707D0B0F87610084400F122015BA0EC
:1024C00001F0B2FAD9F80000B0F87650B0F8740014
:1024D000854277D2304601F0A7FAD9F800000135DD
:1024E000B0F874008542F5D36CE0B0F8761000299E
:1024F0003FF40EAFB0F874200139531E9AB2A0F821
:1025000074308BB29A42A0F876106DD9C11801F1DF
:1025100022002331D21A01F023FCD9F80000B0F8D0
:102520007410084480F822A0D9F80000B0F87610A2
:10253000084400F122013BA001F076FAD9F800101E
:10254000B1F87600B1F8741088423FF6E1AE451E4E
:10255000304601F069FAD9F800000135B0F874008E
:102560008542F5D3D4E6D9F80000B0F8761059B119
:10257000002500BF304601F057FAD9F800000135B8
:10258000B0F876108D42F5D3223002F0E9FBD9F88D
:10259000005005F12200FDF700FFA5F87400A5F832
:1025A0007600B5E6104480F82250D9F8000090F883
:1025B0002100C00706D045F60A10C0F600002946E3
:1025C00001F032FAD9F80000B0F87410B0F87620B3
:1025D0000131A0F8741089B201325029A0F8762098
:1025E00028BFC0F874A093E60DA001F01DFAD9F839
:1025F0000000B0F87410084480F822A088E6B0F813
:10260000760000283FF484AE304601F00DFAD9F888
:102610000000B0F876100139A0F8761078E600BF17
:1026200008200800082573202008000025730000FA
:1026300080B582B0019040F2E810C2F2000001A91A
:1026400001224FF6FF73FEF7C3FE019802B080BD72
:1026500010B54EF62C54CEF200042068800702D547
:1026600010A001F0E1F92068400011D514F8030C26
:10267000002818BFFFF702FC14F8040C002818BF4C
:1026800000F08CFC34F8020C002818BF02F08CFC1F
:102690002068B0F1FF3FC8BF10BD08A001F0C4F929
:1026A00010BD00BF6661696C656420766563746FF8
:1026B000722066657463680A0000000064656275D4
:1026C00067206576656E740A00000000B0B582B0C0
:1026D00031A00A21002201F05BFA40F24831C2F237
:1026E000000108602DA00A21002201F051FA40F2F9
:1026F0004C31C2F20001086044F63D61142428A068
:10270000C0F6000100224FF480630094019401F0B0
:10271000EFFE002818BF01F0D7FF0F2044F66961D3
:10272000009022A0C0F6000100224FF480630194C3
:1027300001F0DEFE002818BF01F0C6FF44F6B161CB
:1027400002241DA0C0F600017B224FF47A7300948E
:1027500002F0BEF84FF20865C2F2000544F6C5610A
:10276000286017A0C0F600014FF4E4724FF47A73AA
:10277000009402F0ADF84FF20C622968C2F2000238
:102780001060084602F0E8F802F0D8FB0EA002F054
:10279000CFFE02B0B0BD00BF6D6231006D6232008D
:1027A0007468726561642D310000000074687265A0
:1027B00061642D320000000074696D65722D310076
:1027C00074696D65722D3200696E6974206F6B2DAE
:1027D0002D2D2D2D0000000070B50646084614462C
:1027E0000D4601F061FB0430C6E900040820002119
:1027F0003572C6E9030170BDF0B581B00646C86800
:1028000000240C6150B3087A0D46E0B134462F68BD
:10281000002E08BF3C46FDF7D3FC36B114F8041C6B
:102820002A7A01F07F01914215D16A68002100BF28
:102830002468BC4209D0EB684E1C42F821409E42FD
:102840003146F5D103E0002408E000240E46FDF7F0
:10285000BBFC2E6102E0FDF7B7FC0024204601B06E
:10286000F0BD00002DE9F04F93B00DF118090EA84E
:1028700005214A46FFF7B0FF45F6001232A0C0F628
:102880000002082101F0D0F800F06EFD37A001F041
:10289000CBF8002003E000BF049800284FD00EA919
:1028A000FFF7AAFF129904900129F5DB9DF840A0DB
:1028B000129E4FF0000B059606E000BFFDF784FC6A
:1028C0000BF1010BB345E7DA59F82B40FDF778FC23
:1028D00014F8041C01F07F015145EFD1A4F10C075D
:1028E000FDF772FC04F10806304601F0F5F8B4F883
:1028F0001680A58A0446304601F006F9002C0446ED
:1029000009D021A0082108223B46CDE90085029488
:1029100001F08AF811E022A0082108223B46CDE907
:102920000085029401F080F8304602F033FA45F653
:10293000A200C0F6000001F077F8059EC0E7002075
:1029400013B0BDE8F08F00BF252D2A2E7320656ED1
:102950007472792073697A652073757370656E641B
:10296000207468726561640A00000000202D2D2D1E
:102970002D20202D2D2D2D202D2D2D2D2D2D2D2DAE
:102980002D2D2D2D2D2D0A00252D2A2E2A732025A3
:102990003034642020253034642025640A0000008F
:1029A000252D2A2E2A73202530346420202530340A
:1029B000642025643A0000002DE9F04F93B006AD85
:1029C0000EA808212A46FFF707FF45F6F20232A0BB
:1029D000C0F60002082101F027F800F0C5FC38A07D
:1029E00001F022F845F6A20B0020C0F6000B02E031
:1029F000059800284BD00EA9FFF7FEFE129905900E
:102A00000129F5DB9DF84070DDF848804FF00009A2
:102A100006E000BFFDF7D8FB09F10109C145E7DA7F
:102A200055F829A0FDF7CCFB1AF8041C01F07F0132
:102A3000B942EFD1FDF7C8FB564656F8201F0020DB
:102A4000B14203D009680130B142FBD1DAF810205D
:102A5000DAE90614A6F12C0378B1CDE90021039040
:102A600020A008210822029400F0DEFF304602F088
:102A700091F9584600F0D8FFCEE7CDE90021039048
:102A80001FA008210822029400F0CEFFC4E7002016
:102A900013B0BDE8F08F00BF252D2A2E7320626C85
:102AA0006F636B20746F74616C2066726565207350
:102AB000757370656E64207468726561640A0000E5
:102AC000202D2D2D2D20202D2D2D2D20202D2D2D77
:102AD0002D202D2D2D2D2D2D2D2D2D2D2D2D2D2D33
:102AE0000A000000252D2A2E2A7320253034642068
:102AF00020253034642020253034642025643A00B9
:102B0000252D2A2E2A7320253034642020253034A8
:102B1000642020253034642025640A002DE9F04F1C
:102B200091B004AD0CA802212A46FFF755FE31A052
:102B300037A2082100F078FF00F016FC37A000F063
:102B400073FF002003E000BF039800284DD00CA9BC
:102B5000FFF752FE109903900129F5DB9DF838909C
:102B6000DDF840A04FF0000B06E000BFFDF72CFBA6
:102B70000BF1010BD345E7DA55F82B40FDF720FBAD
:102B800014F8041C01F07F014945EFD1A4F10C07B2
:102B9000FDF71AFB04F10806304600F09DFFB4F87B
:102BA00010800446304600F0AFFF002C044609D0E8
:102BB00020A0082108223B46CDF80080019400F0B7
:102BC00033FFD5E71FA0082108223B46CDF800803F
:102BD000019400F029FF304602F0DCF845F6A2002F
:102BE000C0F6000000F020FFC2E7002011B0BDE8F1
:102BF000F08F00BF252D2A2E73207620202073759C
:102C00007370656E64207468726561640A00000008
:102C100073656D6170686F7265000000202D2D2D49
:102C2000202D2D2D2D2D2D2D2D2D2D2D2D2D2D0A04
:102C300000000000252D2A2E2A7320253033642021
:102C400025640A00252D2A2E2A732025303364207E
:102C500025643A002DE9F04FAFB00DF1880B2AA89A
:102C600001215A46FFF7B8FD45F6000045F6D902A6
:102C7000C0F60000C0F60002082100F0D5FE00F00A
:102C800073FB39A000F0D0FE002002E0029800287B
:102C900065D02AA9FFF7B0FD2E9902900129F5DB36
:102CA0009DF8B0A02E9F4FF00009039707E000BFEA
:102CB0003046FDF789FA09F10109B945E6DA5BF812
:102CC0002940FDF77DFA14F8041C064601F07F0147
:102CD0005145EDD1A4F10C0704A83946782201F042
:102CE00003F83046FDF770FA94F829602EA0082109
:102CF00008223B46009600F097FE94F82800F12148
:102D000000F0070080F00400C140C90704D029A1E9
:102D100051F8200000F088FEE2690021505C01318A
:102D20002328FBD0D4E908606427711A236979430A
:102D3000656B32446431B1FBF6F7A2EB030801F096
:102D40003DFB044645F64400C0F6000041463246CD
:102D50003B460095019400F067FE039FABE700201F
:102D60002FB0BDE8F08F00BF202D2D2D20202D2D60
:102D70002D2D2D2D2D202D2D2D2D2D2D2D2D2D2D90
:102D8000202D2D2D2D2D2D2D2D2D2D20202D2D2D9A
:102D90002D2D2D20202D2D2D2D2D2D2D2D2D2D208A
:102DA0002D2D2D0A00000000252D2A2E2A73202506
:102DB00033642000BA580008C3580008C3580008FC
:102DC000C3580008B1580008C3580008E05800086C
:102DD000E95800082DE9F04F91B004AD0CA80A2184
:102DE0002A46FFF7F9FC45F6FA0233A0C0F60002C6
:102DF000082100F019FE00F0B7FA3CA000F014FE24
:102E000045F6A4080020C0F6000802E00398002858
:102E100044D00CA9FFF7F0FC109903900129F5DBD1
:102E20009DF83890DDF840A04FF0000B29E000BF7E
:102E3000A7F10C04FDF7C8F9D7E9060608210090B0
:102E400036A008222346019600F0EEFD17F8030C89
:102E500045F6CC01C0074046C0F6000108BF084651
:102E600000F0E2FD17F8030C80075ABF45F6850015
:102E7000C0F600002FA000F0D7FD0BF1010BD345E9
:102E8000C4DA55F82B70FDF79BF917F8041C01F014
:102E90007F014945CCD0FDF797F9EEE701F068FCDA
:102EA000014645F68F00C0F6000000F0BDFD002091
:102EB00011B0BDE8F08F00BF252D2A2E73202070A1
:102EC0006572696F64696320202074696D656F7530
:102ED0007420202020616374697661746564202009
:102EE0002020206D6F64650A00000000202D2D2D2C
:102EF0002D2D2D2D2D2D2D202D2D2D2D2D2D2D2D0F
:102F00002D2D202D2D2D2D2D2D2D2D2D2D2D202D0B
:102F10002D2D2D2D2D2D2D2D0A000000252D2A2E95
:102F20002A7320307825303878203078253038786A
:102F300020000000706572696F6469630A00000018
:102F400080B5FDF77DFBFEF7B3FBFEF79BFAFEF7BE
:102F5000E3FAFEF71FFBFEF739FBFEF753FB05A074
:102F600002F0E6FAFFF7B2FB05A002F08FF80020AE
:102F700080BD00BF696E6974207468726561640009
:102F8000656E64206F66207468726561642030002D
:102F900080B500F043FBFFF7D3FF80BD10B54EF6C0
:102FA000285419A0CEF2000400F03EFD21781BA0A9
:102FB00000F03AFD2078C00702D01EA000F034FDDA
:102FC0002078800702D51EA000F02EFD2078000793
:102FD00002D51EA000F028FD2078C00602D51EA054
:102FE00000F022FD94F90000B0F1FF3F06DD45F648
:102FF000A200C0F6000000F017FD10BDE16819A0A6
:1030000000F012FD10BD00BF6D656D206D616E6139
:103010006765206661756C743A0A00005343425F2D
:10302000434653525F4D4653523A3078253032581A
:10303000200000004941434356494F4C2000000006
:103040004441434356494F4C200000004D554E53D8
:10305000544B4552522000004D53544B4552522080
:10306000000000005343422D3E4D4D41523A253061
:1030700038580A002DE9F04704460078A8B340F21A
:10308000C00040F2C40AC2F20000C2F2000A07689F
:10309000DAF8000087422CD200250FF274084FF0B6
:1030A00000090FE04846314601F0B4FEA842B8BF1F
:1030B00005464046314600F0B7FCDAF800000C3710
:1030C000874219D23E682046FDF767F9024620463E
:1030D0003146FDF777F90028EFD1002DE2D13046D7
:1030E000FDF75BF90546B146DCE700F075F8BDE891
:1030F000F0874FF000090025B9F1000F08BFBDE8C7
:10310000F087204649462A4601F086F9BDE8F08757
:1031100025730A0010B582B0C9B1044604E000BFAF
:10312000013904F1010412D020782028F8D00928B0
:10313000F6D001AA2046FEF7BFFDA8B1204600BF89
:10314000017841F02001202904D00130F8E7002067
:1031500002B010BD0021017005A0214600F064FC02
:103160004FF0FF3002B010BD019802B010BD00BF9B
:1031700025733A20636F6D6D616E64206E6F7420ED
:10318000666F756E642E0A002DE9F04140F2C002B0
:10319000C2F20002176840F2C402C2F200021368D1
:1031A0009F4216D2D2F800800C46054603E000BFCD
:1031B0000C3747450DD23E68294630462246FDF77A
:1031C00001F90028F4D1305D0028F1D1B868BDE8DC
:1031D000F0810020BDE8F08170B513A000F024FC60
:1031E00040F2C00040F2C405C2F20000C2F2000585
:1031F0000068296888420ED2A0F10C0611A400BF15
:1032000056F80C1F2046726800F00EFC286806F184
:103210000C018142F4D345F6A200C0F6000000F094
:1032200003FC002070BD00BF52542D5468726561CC
:1032300064207368656C6C20636F6D6D616E647380
:103240003A0A0000252D313673202D2025730A00FF
:103250002DE9F041904600294FF000024FF00004A4
:1032600056D0002604E01E468E4251D28E424FD2E6
:103270000B468E4288BF3346013010F8017C202F68
:1032800001D0092F07D1B34204D000F8012C013638
:10329000F2E700BF1E46082C3DD28E4238D2222FC4
:1032A0001CD148F824000778731C03E010F8017F54
:1032B0001E4601338B424FF0000538BF0125222FF7
:1032C0001ED08B421CD25C2FF0D1074617F8015F4D
:1032D000222D04BF3846B31CE8E700BF013848F888
:1032E000240001340B468E4288BF33460778092FED
:1032F000BAD0202FB8D0B342B5D001300136F5E7AF
:1033000004F1010425B100F8012B02368E42AFD33F
:103310002046BDE8F0810BA000F086FB002511A639
:1033200058F82510304600F07FFB0135AC42F7D14C
:1033300045F6A200C0F6000000F076FB2046BDE88E
:10334000F08100BF546F6F206D616E7920617267EC
:10335000732021205765206F6E6C79205573653A74
:103360000A00000025732000B0B56FF0070503A424
:10337000204600F059FB0135FAD3B0BD2D00000006
:1033800080B5D0F828C04A680CEB02038B4214D0F9
:103390001A78D20711D1C26A93420ED0026B4FF055
:1033A000000E9A4208BF01635A68C3F800E04A6001
:1033B0005A68A1EB0C0362449360D1F808E00CEB6F
:1033C0000E028A4208BF80BD1378DB070BD1036B66
:1033D0008B4208BF026348680023506048680B6056
:1033E0006044C0F808E080BD2DE9F04F8BB01E4668
:1033F000169B0446580645F6112045F6B01BC0F64C
:103400000000C0F6000B58BF8346D8060D4648BFE3
:1034100023F00103D8074FF0300108BF202198079F
:103420000A9204D400274FF0010C002210E0B2F100
:10343000FF3F05DD580707D41807F3D5202204E025
:1034400050420A902D2200E02B224FF0000C012761
:103450000A98DDF854800593CDE90121CDE9037C7C
:10346000A8B10A98C0B14FF000090AAF0DF1180ACF
:1034700038463146FEF766FE1BF800100A9A09F13D
:1034800001000AF80910002A8146F1D105E0302038
:103490008DF81800012000E0002042464045C8BFDA
:1034A0000246DDF814C0149F1CF0110FA7EB0201B7
:1034B00002D0049ED6B11FE000230029C8BF01231B
:1034C000039E3340C91A01295FDB59423944049EE7
:1034D000891A2023AC42A1F1010138BF23700029D1
:1034E00004F10104F6DC4FF0FF312EB9AC423CBFD1
:1034F000019B2370013901345FEACC6302D540455A
:1035000015DB1EE001290FDB029B00BFAC42A1F1DD
:10351000010138BF2370002904F10104F6DC4FF0EB
:10352000FF31404503DB0CE00139404509DA302327
:10353000AC42A2F1010238BF2370904204F10104B1
:10354000F6DBB8F1000F0ED001280CDB06AA013A19
:10355000AC423CBF135C2370B8F1000F04F10104CE
:1035600001D00138F4DC01290BDB481C202100BF0D
:10357000AC42A0F1010038BF2170012804F1010420
:10358000F6DC20460BB0BDE8F08F049E0139002E1A
:10359000ACD0B1E780B500F02DF980BD80B582B028
:1035A0000A2042F691714FF0140C009006A0C0F66C
:1035B000000100224FF48063CDF804C000F098FFB2
:1035C00001F082F802B080BD6D61696E00000000FC
:1035D000B0B501FB00F4204600F0C8FA054620B162
:1035E00028460021224600F0E7FB2846B0BD000037
:1035F000B0B545F6302445F62820C0F60004C0F6E4
:103600000000A04228BFB0BD45F62825C0F6000541
:1036100055F8040B8047A542FAD3B0BDB0B545F6C6
:10362000382445F63020C0F60004C0F60000A04261
:1036300028BFB0BD45F63025C0F6000555F8040B8F
:103640008047A542FAD3B0BD70B500F077FF0028DF
:1036500008BF70BD044603E000F070FF0446A8B147
:10366000266F204600F05AFC0546012802D120466C
:1036700000F00AFC0EB12046B047002DECD1A06A44
:1036800000F034F8204600F0EDFBE5E770BD0000E7
:1036900080B5FCF795FD4FF2E831C2F200010A88CF
:1036A00001320A80FCF790FD80BD000080B5FCF778
:1036B00087FD4FF2E831C2F200010A88013A13B2E5
:1036C000002B0A8002DDFCF77FFD80BD00220A800E
:1036D000FCF77AFD40F25430C2F200000068002886
:1036E00008BF80BD00F01EFC80BD0000002808BFA0
:1036F000704710B50446FEF79FFA204600F0CAFD59
:10370000FEF79EFABDE810407047000040F25C30C2
:10371000C2F200007047000040F25C30C2F20000CC
:1037200000F570407047000010B5FCF789FFFDF709
:10373000BFFFFEF70DF8FDF7F9F844F6D351C1F2DB
:103740006201A0FB01018809FDF7F2FAFFF750FFC3
:10375000FFF7DCFF0446FFF7DFFF0146204600F0DD
:1037600075FE10BD10B582B040F278004FF0FF3406
:10377000C2F2000001A9012200230194FDF7B0FD6F
:1037800018B10A20019400F051FF9DF8040002B026
:1037900010BD0000F0B581B004460D208DF8030087
:1037A00040F27800C2F20000002180F8401020466C
:1037B00000F02AFEE0B140F278060546C2F20006AB
:1037C0000DF103070AE000BF304621460122012324
:1037D000FDF7FEFD013D04F1010409D020780A281F
:1037E000F2D13046394601220123FDF7F1FDEBE726
:1037F00001B0F0BD4EF60C500421CEF20000C0F234
:10380000FA5101607047000010B540F25831C2F221
:1038100000010968044629B104F1280088470028FE
:1038200008BF10BD616C45F69310C0F6000000F0B3
:10383000FBF8A16A45F65210C0F6000000F0F4F85B
:10384000E16A45F65F10C0F6000000F0EDF8216B6C
:1038500045F66C10C0F6000000F0E6F8616B45F626
:103860007910C0F6000000F0DFF8A16845F6861078
:10387000C0F6000000F0D8F8E16824A000F0D4F809
:10388000216926A000F0D0F8616928A000F0CCF8EA
:10389000A1692AA000F0C8F8E1692CA000F0C4F8E2
:1038A000216A2EA000F0C0F8616A30A000F0BCF8D8
:1038B000A16B32A000F0B8F8E16B34A000F0B4F8CE
:1038C000216C36A000F0B0F82078400706D445F609
:1038D0000D10C0F6000000F0A7F80AE000F0CAFEE4
:1038E000014645F62710C0F6000000F09DF8FFF7EE
:1038F000B1F92078C00605D445F64410C0F60000A2
:1039000000F092F8FEF7A4FEFEE700BF7230353AF1
:10391000203078253038780A000000007230363ABE
:10392000203078253038780A000000007230373AAD
:10393000203078253038780A000000007230383A9C
:10394000203078253038780A000000007230393A8B
:10395000203078253038780A000000007231303A83
:10396000203078253038780A000000007231313A72
:10397000203078253038780A000000007231323A61
:10398000203078253038780A00000000206C723A28
:10399000203078253038780A000000002070633A23
:1039A000203078253038780A0000000070B50432E5
:1039B00022F0070E4BF6EF64AEF1440C6FF04702B5
:1039C000CDF6AD640EEB02050432161D6C60F9D124
:1039D0004FF0807400224EE9020460464EE908125E
:1039E0004EE906224EE904234EF8442C70BD000037
:1039F00080B5FCF7E5FB4FF26031C2F200010A78B6
:103A000001320A70FCF7E0FB80BD000080B5FCF7D6
:103A1000D7FB4FF26031C2F200010A78013A0A7016
:103A2000FCF7D2FB80BD000083B070B581B04FF2CF
:103A30006834844605A8C2F200040EC005AB2046D7
:103A40007F21624600937F2600F0DCFF05467F2839
:103A5000204628BF3546FFF79DFE284601B0BDE849
:103A6000704003B070470000C0E9000070470000DC
:103A7000C0E9000070470000C0E900007047000086
:103A8000C0E900007047000040F26801C2F2000186
:103A90000A685060026008604160704702685160C7
:103AA0000A60016048607047026851600A60016006
:103AB00048607047026851600A6001604860704762
:103AC000426811604A604160086070474268116056
:103AD0004A604160086070470168081AB0FA80F0D7
:103AE000400970470168081AB0FA80F04009704731
:103AF0000168081AB0FA80F0400970470168081A96
:103B0000B0FA80F04009704701464FF0FF300A4696
:103B1000126801308A42FBD170470000D0E90012E0
:103B20004A6042681160C0E900007047D0E90012A5
:103B30004A6042681160C0E900007047D0E9001295
:103B40004A6042681160C0E900007047D0E9001285
:103B50004A6042681160C0E900007047D0E9001275
:103B60004A6042681160C0E90000704710B5044621
:103B7000FEF762F84FF20460C2F2000000682146CE
:103B800000F01AFB0446FEF75BF8204610BD00006B
:103B900070B50D4601460520164600F03BF9C0B150
:103BA00004464672FEF782F84FF6FC70C0F203003E
:103BB00000EA85002584FFF7D9FFE06158B10020B5
:103BC000C4F82200E08404F12800FFF74DFF2046EE
:103BD00070BD002070BD204600F044F9002070BD8B
:103BE0002DE9F04F81B088460446009200F042FD76
:103BF0000746FCF7E5FA618C054649B9009838B9E3
:103C00002846FCF7E1FA6FF0010001B0BDE8F08F43
:103C1000608CD8B1E169E28C013851F82210C8F803
:103C20000010511C228C8BB2934228BF0021E184EA
:103C3000608428342046FFF755FF00283FD02846EF
:103C4000FCF7C2FA002001B0BDE8F08F04F11409BE
:103C500007F1440B4FF0000A002602E0608C0028B8
:103C6000D8D10098C7F830A0A8B3627A4846394640
:103C7000FDF7F0FF009801280ADB00F079FD064609
:103C8000584600216A4600F0F9FD584600F064FEEF
:103C90002846FCF799FA00F045F9386B0028D2D194
:103CA000FCF78EFA009905460129D7DB00F060FD8C
:103CB0000099861B881B20EAE0700090CEE7204622
:103CC000FDF7C2FF2846FCF77FFA00F02BF9002031
:103CD00001B0BDE8F08F2846FCF776FA6FF00100DE
:103CE000386301B0BDE8F08F102A03D341EA000326
:103CF0009B070CD00346002A08BF70470139013BDF
:103D000011F801CF013A03F801CFF9D17047102A19
:103D10001AD3A1F1100CA0F1100300BF5CF8101F22
:103D2000103A43F8101FDCF804100F2A5960DCF831
:103D300008109960DCF80C10D960EFD80CF1100174
:103D40001033042AD7D303E00346042AD3D300BF99
:103D500051F804CB043A032A43F804CBF8D8CAE755
:103D600081420FD28B1883420CD9002A08BF7047BA
:103D7000A1F1010C431E00BF1CF802109954013A36
:103D8000FAD109E042B10139431E00BF11F801CF59
:103D9000013A03F801CFF9D17047000070B514461D
:103DA0000D460646FDF748FF304629462246FDF7F8
:103DB000C9FFFDF745FF70BD10B50446042ACBB21C
:103DC00001D3A00707D020461AB111461A46FCF7C6
:103DD000C6FA204610BD43EA0320102A40EA0041FB
:103DE0000ED3A4F1100000BF103A40F8101F0F2AA4
:103DF000C0E90111C160F7D81030042A04D2E3E70A
:103E00002046042AE0D300BF043A032A40F8041BEA
:103E1000FAD8D9E72DE9F0418846074600F044F882
:103E20000546C068FFF7A2FE4FF00006B8B1EA6889
:103E300000210446FFF7C0FF2046414608222772B2
:103E4000667200F0E9FAFCF7BBF90646281D04F19A
:103E50000C01FFF723FE3046FCF7B6F92646304644
:103E6000BDE8F081B0B5044600202072FCF7A8F947
:103E7000054604F10C00FFF759FE2846FCF7A4F9AB
:103E80002046FFF733FCB0BDB0B5044600202072D9
:103E9000FCF796F9054604F10C00FFF747FE2846AB
:103EA000FCF792F9B0BD000040F208020021C2F216
:103EB000000200BF535C834204BF501870471031AA
:103EC000602904BF00207047F4E70000F0B581B01E
:103ED0000446084615460F46FFF7E6FF0646FFF77D
:103EE000D7FB0436304600BF0068B042FCD1FFF774
:103EF000DDFB47F08000207220462946082200F0B2
:103F00008BFAFCF75DF9054604F10C013046FFF72A
:103F1000C5FD2846FCF758F901B0F0BD007AC0098C
:103F200070470000F0B581B0FCF74AF94FF2E83174
:103F3000C2F200010988044619B12046FCF744F991
:103F40006EE04FF2EC40C2F200000068B0B168468B
:103F5000FDF7E4FE40F25437C2F200073D68064622
:103F600095F8341001F00702032A0BD195F83500BB
:103F7000009A82422CD900202E4630E000200028F2
:103F80004ED1DAE70020AE422FD0009940F25032F5
:103F9000C2F2000211703E6010B1284600F042F8F3
:103FA000304600F075F896F8340000F0F800033061
:103FB00086F834004FF26030C2F20000017805F15B
:103FC0001C00002906F11C011DD0FCF700F917E0C8
:103FD000504001F00802104314BF01202E4601F0AA
:103FE000F70185F83410AE42CFD1284600F050F8E2
:103FF000386890F8341001F0F801033180F834107B
:104000000020012106E0FCF7E2F82046FCF7DCF88E
:1040100002200021002918BF002000283FF48DAFA6
:1040200001B0F0BDB0B50546FCF7CAF8044640F251
:104030005430C2F20000006895F83410A84201F034
:10404000F80012D040F0010085F8340095F83500F2
:104050004FF2EC32C2F20002090702EBC00005F198
:10406000140107D4FFF720FD06E040F0030085F8B7
:10407000340009E0FFF72AFD4FF2EC41C2F20001E3
:10408000A86B0A68104308602046FCF79DF8B0BD95
:10409000B0B50546FCF794F8044605F11400FFF7A7
:1040A0004DFD95F835004FF2EC31C2F2000101EB05
:1040B000C000FFF71DFD40B14FF2EC41C2F200011C
:1040C000A86B0A6822EA000008602046FCF77CF82A
:1040D000B0BD000070B515460A4602211C460646D2
:1040E000FFF7F4FE3046FDF7E1FD0020B583747262
:1040F00070BD000080B582B045F6A010C0F600008B
:10410000FFF792FC09A0FFF78FFC14A00FF2400C00
:10411000009015A0042101220123CDF804C0FFF76F
:1041200083FC1AA0FFF780FC02B080BD2D20525402
:10413000202D2020202020546872656164204F705B
:1041400065726174696E672053797374656D0A00D6
:1041500031363A32333A3232000000004170722078
:104160002039203230323600202F207C205C202065
:1041700020202025642E25642E2564206275696C1C
:10418000642025732025730A00000000203230309F
:1041900036202D203230323220436F7079726967B9
:1041A00068742062792052542D54687265616420CD
:1041B0007465616D0A0000002DE9F04191B1033191
:1041C00021F00301D0F834C00C2998BF0C218C4594
:1041D00008D3D0F828E0026BACEB0104A2EB0E038D
:1041E000A34202D90020BDE8F0810EF1040502E0EF
:1041F000EB58A342F6D81EF80320D207F8D10EEBF5
:104200000308D8F8046003F10C07F21B8A42EFD3CD
:1042100001F11804A24205D2F11AD0E90823114491
:104220008B4218E001F10C0439440EEB010220F03E
:1042300001055660C8F804104EF8015055680CF19D
:104240000C07BD4293601CBF0EEB05029160D0E9E4
:10425000081221448A42016238BF4162016B40F07A
:1042600001024145C8F8002010D1016B0A78D2073D
:104270000CD0C36A99421FBF4A680EEB020101636A
:104280001EF8022018BF5FEAC272F3D108F10C00D9
:10429000BDE8F081002808BF704780B5014602469E
:1042A00051F80C0D20F00100036B08608B4288BFB1
:1042B000016352F8082C836AD0F820C08A1AD21AF7
:1042C00062440262FFF75CF8BDE88040704700007E
:1042D0002DE9F0470A4422F00306192E09D30546BA
:1042E000C81C20F0030404F13800A6F1180383422F
:1042F00005D21CA0FFF798FB0020BDE8F08704F171
:104300003B0020F00307A6EB0708204600213822D7
:10431000A8F118094FF0000AFFF74EFD20460C21C6
:104320002A46FFF7D3FD0DA004F1140181E88102B4
:10433000A8F10C0044F001013246C7E90040C7F87B
:1043400008A042F80C1D46E902002046C4F834904B
:10435000A762E2622763BDE8F08700BF736D616CFE
:104360006C0000006D656D20696E69742C206572AB
:10437000726F7220626567696E2061646472657332
:104380007320307825782C20616E6420656E64205F
:104390006164647265737320307825780A000000C8
:1043A00082B080B582B0CDE9042304AA019200F066
:1043B000B1FC02B0BDE8804002B07047002848BFA1
:1043C00040420B2899BF04A151F8200045F6FB108C
:1043D000C0F60000704700BFC1590008DE59000850
:1043E000F3590008CB590008095A0008D3590008AE
:1043F000E4590008035A0008DA590008EB5900088C
:10440000C4590008FB590008002100BF425C01317B
:10441000002AFBD1481E704710B5044662B1C2F1B4
:104420000102601C0B7800F8013C3BB10132013104
:10443000012A00F10100F5D1204610BD002AFBD071
:104440005142FBF793FF204610BD000080B50346A4
:10445000033020F0030021F003010A1A04A01946DA
:10446000FFF736FF4FF20461C2F20001086080BD21
:104470006865617000000000B0B54FF2E8304FF29F
:10448000EC35C2F200000024C2F20005048000BF37
:104490002819FFF7EDFA0834B4F5807FF8D14FF210
:1044A000EC40C2F2000000210160B0BD10B582B046
:1044B00001A8FDF733FC044640F25430C2F200007C
:1044C00004602046FFF7E4FD032084F8340004F183
:1044D0001C00FBF7C2FE02B010BD000080B540F228
:1044E000C800C2F20000FFF7CBFA80BD70470000A1
:1044F000F0B583B00E46014601201F461546FFF772
:1045000089FC88B104463846FFF730FB70B103469A
:10451000DDE9080C3146CDE9007020462A46CDF889
:1045200008C0FDF73FFC05E0002403E02046FFF74C
:1045300099FC0024204603B0F0BD000070B540F2A5
:104540006800C2F20000056885420CD0A5F1140491
:10455000FBF736FE06462846FFF7E0FA3046FBF743
:1045600033FE204670BD0024204670BD80B5143057
:10457000FFF78AFA80BD000040F238340025C2F20D
:10458000000400BF54F82500002818BF80470135FB
:10459000042DF7D1FFF758F80025F3E7B0B586B042
:1045A00004AC12A120460022FFF7FAFE4FF2F042BF
:1045B0004FF48071C2F2000240F2C0251F20CDE905
:1045C0000021C2F2000544F279524FF0200C029013
:1045D000C0F60002284621460023CDF80CC000F0AA
:1045E00009F8284600F070F806B0B0BD7469646C34
:1045F000652564002DE9F04784B015460A46DDE9DB
:104600000C86DDE90E9A01211C460746FFF75EFC89
:104610003846294622464346CDE90069CDF808A030
:10462000FDF7C0FB002004B0BDE8F08780B500F0C6
:1046300081F800F025F880BDB0B5044690F834004C
:1046400000F0070002281CBF4FF0FF30B0BDFBF7A1
:10465000B7FD054604F11400FFF778FA04F14400B1
:1046600000F0B8F92046FFF7DDFC2846FBF7ACFD6B
:104670000020B0BD40F25430C2F200000068704724
:10468000F0B581B00090FFF7F5FF0446FBF798FD09
:10469000054600272046276300F02AF804F1440667
:1046A0006A463046002100F0E9F8304600F054F93F
:1046B0002846FBF789FDFFF735FC206B023008BF69
:1046C0002763206B01B0F0BD80B590F83510012252
:1046D00002FA01F18163022180F83410FFF7ACFF88
:1046E000FFF7C8FF002818BFFFF71CFC002080BDA3
:1046F000B0B5044690F8340000F0050001281CBF56
:104700004FF0FF30B0BDFBF75BFD05462046FFF7DD
:10471000BFFC94F8340000F0F800023084F8340054
:1047200004F1440000F056F92846FBF74DFD002047
:10473000B0BD0000002844BF4FF0FF30704744F682
:10474000D351C1F2620150FB01F2931103EBD2721B
:104750004FF47A7302FB1300584300F2E73050FB2A
:1047600001F0811101EBD07002FB030070470000E3
:104770004FF2F450C2F200000068704710B5FBF72A
:104780001FFD4FF2F451C2F200010A680446501CAA
:104790000860FFF76FFF016C0139016405D0204606
:1047A000FBF712FD00F012F810BDC16B90F8342039
:1047B000016442F0080180F834102046FBF704FD44
:1047C000FFF7B0FB00F002F810BD00002DE9F04744
:1047D00082B06846FFF754F9FFF7CAFF0746FBF7B8
:1047E000EFFC40F2C805C2F2000580462846FFF7FC
:1047F00085F928B14046FBF7E7FC02B0BDE8F08739
:104800004FF6FE7AC7F6FF7AE94604E02846FFF73E
:1048100075F90028EED12C686069381A5045E9D83E
:10482000A4F114063046FDF723FB14F80B0C8107A6
:104830005CBF00F0FE0004F80B0C48462146FFF771
:1048400039F9D4E902108847FFF792FF0746484636
:10485000FFF754F90028D9D12046FFF77FF914F863
:104860000B0C00F003010329D0D100F0FE0004F886
:104870000B0C304600F070F8C8E7000070B5144625
:104880000E460546FBF79CFC052E1DD8DFE806F01A
:104890000306090E131A2168696215E0696A21602E
:1048A00012E0697A01F0FD0169720DE0697A41F068
:1048B0000201697208E0697AC9070CBF0021012171
:1048C000216001E0A96A2160FBF77EFC002070BD39
:1048D000F0B581B00F4601460A201C461646FFF788
:1048E00099FA50B1DDF818C03946324623460546DC
:1048F000CDF800C0FDF7AAFA00E00025284601B077
:10490000F0BD0000B0B50446FBF75AFC0546204652
:10491000FDF7AEFA607A00F0FE0060722846FBF701
:1049200053FC2046FFF7B0FA0020B0BD2DE9F0415E
:1049300082B015460A46DDE908860A211C4607466C
:10494000FFF7C4FA38462946224643460096FDF74B
:104950007DFA02B0BDE8F08170B50446FBF730FC8B
:1049600006462046FDF784FA607A00F0FE00607289
:10497000FFF7FEFE40F2C801C2F20001626A4B6816
:1049800010448B42A0620FD04FF6FE73C243C7F6AD
:10499000FF73084605686D6915449D4205D300689C
:1049A0004D68A842F6D100E008464FF2F851C2F235
:1049B00000010A6801320A6004F11401FFF77AF875
:1049C000607A40F0010060723046FBF7FDFB00208A
:1049D00070BD0000B0B50446407AC00704BF4FF078
:1049E000FF30B0BDFBF7ECFB05462046FDF740FA73
:1049F000607A00F0FE0060722846FBF7E5FB0020BD
:104A0000B0BD00002DE9F04F87B099460646451825
:104A10000DF1180A4FF0200B06920491002948BFAF
:104A20004FF0FF35059011E0D9F800206C2909F10D
:104A300004095FFA88F7CDE900403046294602971D
:104A4000FEF7D2FC069906460131069106980078D9
:104A5000252807D0002800F04C81AE4238BF3070C6
:104A6000701CEFE706984FF0000801300178A1F1C3
:104A70002003102B16D81022DFE803F00E141410B8
:104A80001414141414141412140A14140900012216
:104A900048EA02080130E9E70822F9E72022F7E7AF
:104AA0000422F5E7A1F13002092A069004D8504605
:104AB00000F092F904460EE02A290AD1013006904E
:104AC00059F8044BB4F1FF3FDCBF644248F01008D2
:104AD00001E04FF0FF34069801782E290CD10246F0
:104AE00012F8011FA1F13003092B069207D8504696
:104AF00000F072F90CE000BF4FF0FF300AE02A2905
:104B000004D10230069059F8040B01E04FF0FF3059
:104B100020EAE070069A117841F004036C2B06BF7E
:104B2000013206920021069A1278253A532A00F2A1
:104B30003A800A23DFE802F0313737373737373723
:104B400037373737373737373737373737373737F5
:104B500037373737373737373737373737373737E5
:104B600037373737373737373737374537373737C7
:104B7000373737373737522A373737372A373737C4
:104B80003737646937377B374837374748F002088B
:104B90000A2368297FF448AF19E0AE423CBF2520C4
:104BA0003070701C4EE7AE423CBF25203070069A34
:104BB000701C1178002963D0A84238BF0170B01C66
:104BC00040E748F04008102368297FF42DAFB9F87A
:104BD00000205FEA887148BF12B228E75FEAC86028
:104BE00052D4022C4FDB00BFAE42A4F1010438BF07
:104BF00086F800B0012C06F10106F5DC002443E044
:104C0000082368297FF410AFE1E7611CB1FA81F154
:104C10004FEA511141EA080108BF082459F8042B52
:104C2000CFB2CDE9004030462946102307E759F8B6
:104C3000041B45F6A9120029C0F6000208BF114660
:104C400000232CB1CA5C1AB101339C42FAD123462D
:104C500083421A46C8BF02460028D8BF1A465FEAF8
:104C6000C8602BD4A24228DAAE42A4F1010438BFB6
:104C700086F800B0A24206F10106F5DB541E1DE0E5
:104C8000511E0691DEE6013CAE423CBFD9F8000061
:104C9000307009F10409022C06F10100FFF6D2AED2
:104CA000611C00BFA842A1F1010138BF80F800B02B
:104CB000022900F10100F5DCC4E6013C012A30467E
:104CC000134608DBA8423CBF0F7807700130013B58
:104CD00001F10101F6D1A242BFF6B4AEA842A4F19F
:104CE000010438BF80F800B0A24200F10100F5DBFA
:104CF000A8E60498059A002848BFD04328B130465A
:104D00000021AE4228BF681E0170B01A07B0BDE88E
:104D1000F08F000080B513460A464FF0FF31FFF7D1
:104D200071FE80BD00207047002070470020704752
:104D30000020704780B5FBF743FAFEF7F5FCFFF75C
:104D4000D9F9FFF7CBFBFFF797FBFEF727FCFFF73F
:104D5000CDFBFFF723FCFFF7A9FB002080BD00007F
:104D600010B5044645F6A200C0F60000FEF75CFE52
:104D70002046FEF77FF9FDF7FFF940F2D00103A0CE
:104D8000C2F200012246FEF74FFE10BD25732573C7
:104D900000000000F0B581B00768874214D00446D7
:104DA0000AA50CA603E000BF3F68A7420CD0A7F1FC
:104DB000140228460821FEF737FE3868A042F3D0D7
:104DC0003046FEF731FEEFE701B0F0BD252E2A7325
:104DD000000000002F00000080B501680A78303A1A
:104DE000092A84BF002080BD4A1E4FF0000C1346E4
:104DF000911C016013F801EF0CEB8C0192780EEB23
:104E00004101A1F1300CA2F130010A291A46EFD379
:104E1000604680BD90F800C00246BCF1000F0BD088
:104E2000024600BF0B783BB19C4505D112F801CF7B
:104E30000131BCF1000FF5D1101A704782B040F279
:104E40004835C2F200050DF1060442F6D11600BF46
:104E5000286821460022FEF7C3FE0A20ADF806604E
:104E6000FFF7E4FBF4E7000082B040F24C36C2F2F8
:104E700000060DF106040BA542F6D11703E000BFB2
:104E80000A20FFF7D3FB306821460022FEF7A8FE78
:104E90000028F5D1BDF80610284600F0F7F8ADF867
:104EA0000670EDE77369673D25640D0A0000000098
:104EB00080B540F20040C4F202001021FBF79EFBD7
:104EC00080BD0000704700007047000080B50146BB
:104ED00008A042F2107303A2994238BF104600F0B6
:104EE000D5F880BD746F206C6F63616C28256429D0
:104EF0000A000000746F2067617465282564290A20
:104F00000000000080B540F2780041F20001C2F2DA
:104F10000000C4F2010100234FF00C0C4FF4E13209
:104F200080E80E00C0E90333C0E905C3C361FCF7A4
:104F300023F900B1FEE7002080BD000070B54FF2FC
:104F40001064C2F200042046D021FBF70FFA40F2B1
:104F5000302544F6C960C2F20005C0F60000C4E97D
:104F600032504FF2E064C2F200042046D021FBF739
:104F7000FDF940F2782644F6CD60C2F20006C0F694
:104F800000004FF2FC51C4E93260C2F20001284631
:104F90000122FCF707FA4FF2FD51C2F20001304640
:104FA0000122FCF7FFF970BD10B54EF62A541AA085
:104FB000CEF20004FEF738FD21881BA0FEF734FD79
:104FC0002088C00702D01EA0FEF72EFD2088800793
:104FD00002D51EA0FEF728FD2088400702D51EA09E
:104FE000FEF722FD2088000702D51DA0FEF71CFD5C
:104FF0002088C00502D51CA0FEF716FD208880057C
:1050000002D51CA0FEF710FD45F6A200C0F6000078
:10501000FEF70AFD10BD00BF75736167652066610C
:10502000756C743A0A0000005343425F4346535282
:105030005F554653523A30782530325820000000F0
:10504000554E444546494E5354522000494E5653FE
:105050005441544520000000494E56504320000062
:105060004E4F435020000000554E414C49474E459D
:105070004420000044495642595A45524F200000EE
:1050800080B5FFF737F8002080BD00000FB4054B56
:1050900010B503A9044A029800F018F810BC5DF896
:1050A00014FB0000312600080000002002E008C8C0
:1050B000121F08C1002AFAD170477047002001E092
:1050C00001C1121F002AFBD1704700002DE9FF4FDC
:1050D0008DB00F460546002606E025280BD0DDE9F9
:1050E0000F1290476D1C761C28780028F5D111B05E
:1050F0003046BDE8F08F0024A246A1460122EC49CB
:1051000000E0044315F8013F203B02FA03F0084297
:10511000F7D128782A2810D06FF02F022878A0F134
:105120003001092914D80AEB8A0102EB410144F04D
:10513000020400EB010A6D1CF0E701CF5FEA000AF0
:1051400003D544F40054CAF1000A44F002046D1C73
:1051500028782E2817D115F8010F44F004042A28C6
:105160000ED06FF02F022878A0F1300109290AD85B
:1051700009EB890102EB410100EB01096D1CF2E72B
:1051800057F8049B6D1C28786C280FD006DC4C283F
:1051900017D068280DD06A2814D104E0742810D0E4
:1051A0007A280FD10DE044F400140AE044F480148E
:1051B00001E044F440146978814202D104F580147E
:1051C0006D1C6D1C2A786E2A1FD00CDC632A31D02E
:1051D00004DC002A8BD0582A11D1A3E0642A68D0BD
:1051E000692A0CD165E0732A2ED004DC6F2A73D0B3
:1051F000702A04D19BE0752A6FD0782A6ED01046B1
:10520000DDE90F129047761C50E1C4F302500228EA
:1052100006D0032809D0042801CF09D0066045E153
:1052200001CFF117C0E9006140E101CF06803DE107
:1052300006703BE117F8040B8DF8000000208DF894
:105240000100EB46012003E057F804BB4FF0FF30AC
:1052500061074FF0000102D40DE008F1010188461A
:1052600049450FDA8045F8DB1BF808100029F4D116
:1052700008E008F1010188468142FADB1BF80810BA
:105280000029F6D1DDE90F23AAEB0800814621466B
:1052900000F036F9304400EB080604E0DDE90F12B7
:1052A0001BF8010B9047B8F10108F7D22146484698
:1052B000F7E00A21C4F302534FF0000B0891022BD0
:1052C00004D001CFC117032B09D00AE0FF1D27F03E
:1052D0000707F7E8020108E032E01FE020E000B233
:1052E000C117042B01D140B2C117031E71F1000395
:1052F00007DA4FF0000CD0EB0C006CEB01012D2312
:1053000002E0230504D52B238DF82430012303E08C
:10531000E30701D02023F7E7984658E00A2110E080
:1053200010210EE010204FF0000B08900CE010212F
:105330004FF0000B44F004044FF00809089103E01B
:1053400008214FF0000B0891C4F30253022B04D044
:1053500001CF0021032B06D006E0FF1D27F0070731
:10536000F7E8020103E080B2042B00D1C0B24FF095
:10537000000823072BD5702A07D0DDF820C08CF059
:10538000100C5CEA0B0C05D00EE040238DF82430A5
:10539000012308E050EA010306D030238DF82430C1
:1053A0008DF8252002239846DDF820C08CF0080CEB
:1053B0005CEA0B0C0BD150EA010301D1630706D55F
:1053C00030238DF824304FF00108A9F10109582A43
:1053D00004D038A20B9208AA0A920BE03AA2F9E78D
:1053E0005B46089AFAF78AFF0B9B9B5C0A9A521E4F
:1053F0000A92137050EA0102F2D10A98ADEB000054
:1054000000F1200B600702D524F4803401E04FF056
:105410000109D94502DDA9EB0B0000E0002000EBFB
:105420000B0141440890AAEB010AE00306D4DDE930
:105430000F232146504600F063F806444FF0000960
:1054400008E009A911F80900DDE90F12904709F1F8
:105450000109761CC145F4DBE0030CD5DDE90F231F
:105460002146504600F04CF8064404E0DDE90F12F6
:1054700030209047761C0899481E08900029F5DCDA
:1054800008E00A980A990078491C0A91DDE90F1290
:105490009047761CBBF10001ABF1010BF1DC21461A
:1054A0005046DDE90F2300F019F806446D1C1BE699
:1054B00009280100303132333435363738396162EA
:1054C00063646566000000003031323334353637AE
:1054D0003839414243444546000000002DE9F0417F
:1054E000044600251E461746880404D405E03946C4
:1054F0002020B0476D1C641EF9D52846BDE8F08118
:105500002DE9F041044600251E469046C80301D50A
:10551000302700E02027880404D505E041463846BE
:10552000B0476D1C641EF9D52846BDE8F081000027
:1055300010B5044601E0FDF77BF814F8010B0449AF
:105540000028F8D1BDE810400A20FDF771B800002E
:105550000000002000000000000000000102030421
:105560000607080900000000010203040000010012
:10557000020001000300010002000100040001001C
:10558000020001000300010002000100050001000B
:1055900002000100030001000200010004000100FC
:1055A00002000100030001000200010006000100EA
:1055B00002000100030001000200010004000100DC
:1055C00002000100030001000200010005000100CB
:1055D00002000100030001000200010004000100BC
:1055E00002000100030001000200010007000100A9
:1055F000020001000300010002000100040001009C
:10560000020001000300010002000100050001008A
:10561000020001000300010002000100040001007B
:105620000200010003000100020001000600010069
:10563000020001000300010002000100040001005B
:10564000020001000300010002000100050001004A
:10565000020001000300010002000100040001003B
:10566000020001000300010002000100636C65619B
:105670007200636C65617220746865207465726D78
:10568000696E616C2073637265656E007665727316
:10569000696F6E0073686F772052542D546872657D
:1056A00061642076657273696F6E20696E666F72D1
:1056B0006D6174696F6E006C6973745F7468726594
:1056C0006164006C69737420746872656164006C55
:1056D0006973745F73656D006C6973742073656DB5
:1056E0006170686F726520696E2073797374656D7F
:1056F000006C6973745F6D61696C626F78006C69CE
:105700007374206D61696C20626F7820696E2073FC
:10571000797374656D006C6973745F6D656D706F1E
:105720006F6C006C697374206D656D6F7279207099
:105730006F6F6C20696E2073797374656D006C698E
:1057400073745F74696D6572006C69737420746939
:105750006D657220696E2073797374656D006C6974
:105760007374006C697374206F626A65637473008C
:1057700068656C700052542D5468726561642073C2
:1057800068656C6C2068656C702E007073004C69E5
:105790007374207468726561647320696E20746824
:1057A000652073797374656D2E00667265650053AC
:1057B000686F7720746865206D656D6F72792075EC
:1057C0007361676520696E207468652073797374EE
:1057D000656D2E007265626F6F74005265626F6F47
:1057E000742053797374656D0055736167653A2051
:1057F0006C697374205B6F7074696F6E735D0A00FF
:10580000252D2A2E7320707269202073746174759F
:1058100073202020202020737020202020207374EB
:1058200061636B2073697A65206D6178207573659B
:1058300064206C656674207469636B2020657272E5
:105840006F720A0020307825303878203078253083
:105850003878202020202530326425252020203053
:1058600078253038782025730A002020202074689D
:1058700072656164202D206C697374207468726590
:105880006164730A006F6E652073686F740A006349
:10589000757272656E74207469636B3A3078253066
:1058A00038780A0061637469766174656420202029
:1058B0000020696E69742020200020636C6F73657E
:1058C0002020002072656164792020006465616396
:1058D000746976617465642000746872656164003F
:1058E0002073757370656E64002072756E6E696EDC
:1058F00067006D656D706F6F6C0074696D65720027
:105900006D61696C626F78000800256300686172E0
:1059100064206661756C74206F6E2068616E646CC3
:1059200065720D0A0D0A0068617264206661756C0B
:1059300074206F6E207468726561643A2025730D5F
:105940000A0D0A0046505520616374697665210D81
:105950000A007230303A203078253038780A0072E8
:1059600030313A203078253038780A007230323AB7
:10597000203078253038780A007230333A20307879
:10598000253038780A007230343A203078253038A3
:10599000780A007073723A203078253038780A001F
:1059A0000A205C207C202F0A00284E554C4C2900F0
:1059B0003031323334353637383941424344454645
:1059C000004F4B0045494E56414C004552534655F9
:1059D0004C4C00454E4F4D454D0045494F004552FA
:1059E000524F5200454E4F5359530045494E545261
:1059F0005054004554494D4F55540045554E4B4E5B
:105A00004F5700454255535900455253455054593C
:105A1000003031323334353637383961626364658A
:105A200066000000314D0008294D0008054F0008B0
:105A3000254D0008212200082D4D00086C56000855
:105A400072560008651F00088C560008945600081E
:105A500081500008B7560008C3560008552C0008AE
:105A6000CF560008D85600081D2B0008F156000834
:105A7000FE5600086528000816570008235700083E
:105A8000B92900083E57000849570008D52D0008DD
:105A90005E57000863570008F91F00087057000898
:105AA00075570008D93100088B5700088E57000839
:105AB00039210008AA570008AF570008791F0008CD
:105AC000D4570008DB57000895350008F05A000845
:105AD0000000002078000000AC500008685B00085F
