:020000040800F2
:10000000583300200101000815170008D10100082D
:100010000D01000879030008311C000800000000F1
:1000200000000000000000000000000013010008B4
:100030007D0300080000000053010008A11700081C
:100040001B0100081B0100081B0100081B01000820
:100050001B0100081B0100081B0100081B01000810
:100060001B0100081B0100081B0100081B01000800
:100070001B0100081B0100081B0100081B010008F0
:100080001B0100081B0100081B0100081B010008E0
:100090001B0100081B0100081B0100081B010008D0
:1000A0001B010008851800081B0100081B0100083F
:1000B0001B0100081B0100081B0100081B010008B0
:1000C0001B0100081B0100081B0100081B010008A0
:1000D0001B010008111C0008211C00081B0100085E
:1000E0001B0100081B0100081B010008DFF80CD0F1
:1000F00000F00AF9004800476D030008583300205B
:100100000648804706480047FEE7FEE7FEE7FEE7B1
:10011000FEE7FEE7FEE7FEE7FEE7FEE781180008E0
:10012000ED000008EFF3108072B6704780F310887E
:100130007047344A1368012B04D04FF00103136059
:10014000314A1060314A116031484FF080510160EE
:100150007047EFF3108272B62A48016891B14FF0F0
:10016000000101602848016829B1EFF3098121E904
:10017000F00F00680160254909680968B1E8F00FCF
:1001800081F3098882F310884EF0040E70471F49EE
:1001900008601D494FF0000008601A494FF0010047
:1001A00008601C481C49D0F8002041EA02010160A7
:1001B00017484FF08051016018480068006880F3CC
:1001C000088861B662B6BFF34F8FBFF36F8F704779
:1001D0001EF0040F0CBFEFF30880EFF3098020E955
:1001E000F00F40F804ED1EF0040F0CBF80F30888F8
:1001F00080F3098800B503F067FA5DF804EB4EF070
:10020000040E7047982D0020042B00200C2B00209A
:1002100004ED00E020ED00E00000FFFF08ED00E04D
:10022000D2B201E000F8012B491EFBD27047002238
:10023000F6E710B513460A4604461946FFF7F0FFE5
:10024000204610BD10B5044604E00B7800F8013BD1
:1002500003B1491C521EF8D2204610BD421C10F8B2
:10026000011B0029FBD1801A704710B5002200E065
:10027000521C835C8C5CA34201D1002BF8D1D8B214
:10028000E1B2401A10BD30B505460020034600E03B
:100290005B1C934205D2EC5CC85C201A01D1002C97
:1002A000F6D130BD2DE9F05F0546002092469B4611
:1002B00088460646814640241BE02846414647467C
:1002C000224600F042F853465A46C01A914110D3D4
:1002D00011461846224600F029F82D1A67EB01084E
:1002E0004F4622460120002100F020F817EB0009BC
:1002F0004E41201EA4F10104DFDC484631462A4667
:100300004346BDE8F09F0000064C074D06E0E0685C
:1003100040F0010394E8070098471034AC42F6D34C
:10032000FFF7E8FE085A0008285A0008202A04DBD4
:10033000203A00FA02F1002070479140C2F12003F8
:1003400020FA03F3194390407047202A04DB203A37
:1003500021FA02F00021704721FA02F3D040C2F1E5
:1003600020029140084319467047000080B504F010
:1003700037FC002080BD0000FEE700007047000051
:10038000EFF3108072B600BFFEE70000014690F860
:100390002100022813D10868D1E90FC3026822F0B6
:1003A0000E020260026822F001020260012000FADF
:1003B00003F2CCF8042081F82100002002E00420A0
:1003C00088630120002281F82020704780B590F8D2
:1003D0002110022923D10268116821F00E01116059
:1003E0002F211368C4F202018A4240F20401C4F2D0
:1003F000020123F00103136016DD3023C4F202036F
:100400009A421DD04423C4F202039A421BD05823BF
:10041000C4F202039A421BD14FF4803320E004213E
:1004200081630121084680BD0823C4F202039A4279
:100430000CD01C23C4F202039A4209D110230FE00E
:100440004FF480730CE04FF4805309E0012307E080
:1004500001F1680C4FF08073624508BF4FF48013C0
:100460000B60012180F82110426B002180F82010E0
:100470000AB190470021084680BD00002DE9F04FE9
:1004800082B00E68002E00F0F38041F20042C4F208
:100490000102042340F2004E904208BF03234FF6AE
:1004A000FF7CC4F2010E009300240123C1F2100C62
:1004B0004FF0000A4FF0000941E0012504F00C0361
:1004C0000F279F402BEA070705FA03F33B4342F847
:1004D00026304E6840F20C45F202DEF8082054BF88
:1004E00022EA080242EA0802C4F20105CEF8082016
:1004F0002A68B30254BF22EA080242EA08022A60CC
:10050000B303DEF8042054BF22EA080242EA0802DC
:10051000F303CEF80420DEF800204FF0010354BFAF
:1005200022EA080242EA0802CEF800200E680AF128
:10053000010A36FA0AF204F1040400F0998003FA81
:100540000AFB16EA0B08F1D04A68624510DC122A51
:1005500050D8DFE802F0330A41454F4F4F4F4F4F1D
:100560004F4F4F4F4F4F4F484C00D1F80C9041E048
:100570004FF6FF75C1F22105AA420FDC0025C1F23A
:100580001105AA421AD00025C1F21205AA4215D0BF
:100590000025C1F22105AA4210D02BE00025C1F2AE
:1005A0002205AA420AD00025C1F23105AA4205D08F
:1005B0000025C1F23205AA421CD100BF8A6842B1AF
:1005C000012A14BFC0F814B0C0F810B04FF00809E9
:1005D00010E04FF004090DE0CA6802F1080909E0D3
:1005E0004FF0000906E0CA6802F1040902E0CA6897
:1005F00002F10C0922460546B8F5807F24BF203A57
:1006000004352E680F279740BE4309FA02F23243A1
:100610002A60CA79D2067FF589AF41F21803C4F285
:1006200002031A684FEA9A0642F001021A601A6839
:1006300040F6000302F001020192019AAEF57E72CB
:1006400052F826B0C4F2010398420FD040F600439E
:10065000C4F2010398423FF430AF41F20003C4F208
:100660000103009D984208BF022527E7002525E7E2
:1006700002B0BDE8F08F0000C26802EA01039143B6
:1006800041EA034101617047002A08BF0904016182
:100690007047000042F65470C2F2000000687047D4
:1006A00040F2600042F65471C2F20000C2F2000152
:1006B00000780A68104408607047000080B542F274
:1006C0000000C4F20200016841F010010160032043
:1006D00000F090F80F2000F005F800F055F8002029
:1006E00080BD0000B0B586B041F21801C4F202012D
:1006F0000A68044642F400620A60096801A801F42D
:10070000006101910199694600F032F900F06AF93F
:100710004DF68361C4F21B31A0FB01014FF0FF30A5
:1007200000EB914140F2481042F60042C2F2000054
:10073000C4F2010240F2E7330025C0E90021C0E91C
:1007400002530561856100F01DFB0546C0B940F20A
:100750004810C2F2000000F045FB054680B91920A0
:1007600000F034F80F2C0AD819202146002200F09E
:1007700031F840F26400C2F20000046000E001259C
:10078000284606B0B0BD000082B041F21800C4F2A5
:1007900002000168022241F001010160016801F0DC
:1007A000010101910199416841F080514160406827
:1007B00000F08050009000980420C4F2010001680D
:1007C00062F31A61016002B07047000080B501F069
:1007D00031FA80BD70B514460D46064601F03AFA6E
:1007E0002946224600F098FF0146304601F03AFAC9
:1007F00070BD000080B501F047FA80BD2DE9F043DF
:1008000081B0002800F0898042F20008C4F202089A
:100810000446D8F800000D4600F0070088420CD2CC
:10082000D8F8000020F007002843C8F80000D8F8E6
:10083000000000F00700A8426FD1206841F20409CF
:100840008107C4F2020917D5410705D5D9F8001070
:1008500041F4E061C9F80010010705D5D9F800108E
:1008600041F46051C9F80010D9F80010A26821F0D5
:10087000F0011143C9F80010C00745D1D8F80000B5
:1008800000F00700A8420CD9D8F8000020F00700BB
:100890002843C8F80000D8F8000000F00700A8427C
:1008A0003BD12068410707D5D9F80010E26821F450
:1008B000E0611143C9F80010000708D5D9F800001D
:1008C000216920F4605040EAC100C9F8000000F03E
:1008D0009BF8D9F8001045F2F442C1F30311C0F6B9
:1008E0000002515C40F2040220FA01F140F264007F
:1008F000C2F200000068C2F200021160FFF7F2FECF
:10090000002001B0BDE8F0836068022809D001280A
:1009100029D159F8041C890307D4012001B0BDE88E
:10092000F08359F8041C8901F7D5D9F8001021F09B
:1009300003010843C9F80000FFF7ACFE064641F288
:10094000883700BFD9F80000616800F00C00B0EBF8
:10095000810F93D0FFF79EFE801BB842F2D903208F
:1009600001B0BDE8F08359F8041C8907D5D5DCE750
:100970000F22026041F20402C4F20202136803F083
:1009800003034360136803F0F0038360136803F408
:10099000E063C36012684FF4E06303EAD2020261CD
:1009A00042F20000C4F20200006800F00700086094
:1009B0007047000040F20400C2F200000068704777
:1009C00080B5FFF7F7FF41F20401C4F202010968A4
:1009D00045F20452C1F30221C0F60002515CC84046
:1009E00080BD000080B5FFF7E5FF41F20401C4F2CD
:1009F0000201096845F20452C1F3C221C0F60002A7
:100A0000515CC84080BD000041F2040CC4F2020CED
:100A1000DCF8003003F00C00082841F20020C0F29E
:100A20007A0018BF7047C3F383420AA18A5CD903D6
:100A300005D440F60010C0F23D0050437047DCF88A
:100A4000001008A3C1F34041595C5043B0FBF1F0E2
:100A5000704700BF02030405060708090A0B0C0DC6
:100A60000E0F1010010200002DE9F04182B00028A5
:100A700000F0C4800446007841F20006C007C4F2CA
:100A8000020643D0706800F00C00042817D070688C
:100A900000F00C00082802D17068C0030FD465680C
:100AA0002DB1B5F5A02F10D0B5F5803F11D030682D
:100AB00020F480303060306820F480200CE0306812
:100AC000800323D5606808BB98E0306840F480203C
:100AD0003060306840F480303060FFF7DBFD002D7F
:100AE000054610D03068800310D4FFF7D3FD401BBB
:100AF0006428F7D904E100BFFFF7CCFD401B642850
:100B00004FF0030077D830688003F5D42078800751
:100B100018D5706810F00C0F07D0706800F00C004A
:100B2000082826D17068C00323D43068800702D516
:100B30002069012862D13068616920F0F80040EA3C
:100B4000C1003060207800073DD5A06938B300208F
:100B5000C4F242200121C0F88014FFF79BFD054636
:100B6000706A80072DD4FFF795FD401B0228F7D946
:100B7000C6E02069002840F20000C4F2422000F0E4
:100B8000968001210160FFF785FD054630688007EA
:100B9000D1D4FFF77FFD401B0228F7D9B0E0002039
:100BA000C4F242200021C0F88014FFF773FD05460F
:100BB000706A800707D5FFF76DFD401B0228F7D943
:100BC0009EE000F0BFFD207840071BD4E5698DB1A1
:100BD000706800F00C00082847D1012D0ED0706815
:100BE000216A00F480328A4208D1616A00F47010F0
:100BF000884203D1002002B0BDE8F081012002B09C
:100C0000BDE8F081F06910F0805808D1F06940F03B
:100C10008050F061F06900F080500190019847F237
:100C20000007C4F200073868C00510D4386840F4E3
:100C300080703860FFF72EFD054600BF3868C0059C
:100C400005D4FFF727FD401B6428F7D958E0E56875
:100C50001DB1052D3CD0012D3ED0306A20F00100A1
:100C60003062306A20F0040039E00027C4F24227E5
:100C700000203866FFF70EFD022D05460CD100BF9F
:100C80003068800154D5FFF705FD401B02284FF066
:100C90000300F5D9AFE700BF30688001AAD5FFF7A0
:100CA000F9FC401B02284FF00300F5D9A3E700210F
:100CB0000160FFF7EFFC0546306880077FF542AF23
:100CC000FFF7E8FC401B02284FF00300F4D992E73D
:100CD000306A40F004003062306A40F00100306257
:100CE000FFF7D8FC002D054641F2883714D000BF2D
:100CF000306A800713D4FFF7CDFC401BB842F7D908
:100D0000032002B0BDE8F081FFF7C4FC401BB842ED
:100D10004FF003003FF66FAF306A8007F4D4B8F1AC
:100D2000000F7FF453AFF06920F08050F0614DE781
:100D3000206AB0F5803F05D17168A26821F40031C6
:100D4000114371607168626A21F4741110430843A1
:100D5000706001203866FFF79DFC04463068800112
:100D60003FF548AFFFF796FC001B02284FF0030049
:100D7000F4D940E780B500F0FBFC80BD704700006F
:100D800070470000002804BF0120704710B50446DA
:100D900090F83D0028B9002084F83C00204600F07F
:100DA0001FF8022084F83D002068211D00F072FD2C
:100DB000012084F8460084F83E0084F83F0084F85F
:100DC000400084F8410084F8420084F8430084F82D
:100DD000440084F8450084F83D00002010BD000068
:100DE0007047000090F83D1001291CBF012070479A
:100DF000022180F83D10006840F2FF72C168C4F221
:100E00000002904241F00101C16005DCB0F1804F69
:100E10000ED040F2004107E042F60041C4F2010169
:100E2000884205D040F60001C4F20001884206D194
:100E3000816801F00701062904BF0020704701689E
:100E400041F0010101600020704700007047000080
:100E5000B0B504460068C168026902EA0105A90745
:100E60001DD4680731D4280747D4E8065CD4E807C6
:100E700073D128067BD4680606D520686FF0400140
:100E80000161204600F08EF8A80658BFB0BD20686A
:100E90006FF0200101612046FFF772FFB0BD6FF0D7
:100EA00002010161012121778069800703D020467A
:100EB000FFF7CCFF05E0204600F064F8204600F084
:100EC00063F8002020776807CDD520686FF0040113
:100ED000016102212177806910F4407F03D0204610
:100EE000FFF7B4FF05E0204600F04CF8204600F084
:100EF0004BF8002020772807B7D520686FF008014D
:100F0000016104212177C069800703D02046FFF7E3
:100F10009DFF05E0204600F035F8204600F034F84B
:100F200000202077E806A2D520686FF0100101614B
:100F300008212177C06910F4407F03D02046FFF7D5
:100F400085FF05E0204600F01DF8204600F01CF863
:100F500000202077E8073FF48CAF20686FF0010194
:100F60000161204600F012F828067FF584AF206862
:100F70006FF0800101612046FFF700FF68067FF5F2
:100F800083AF7AE7704700007047000080B50068C3
:100F900042F60041C4F20101884208BFFFF780FB1E
:100FA00080BD0000704700007047000070470000DF
:100FB000B0B582B0036804461868D9685A6900F071
:100FC0002F05202D01F0200505D125B1204600F088
:100FD000EBFC02B0B0BD5FEA007C1EBF02F0010E68
:100FE00001F4907212EB0E024AD1226B0840C10646
:100FF0003DD5012A3BD10020019018680190586826
:10100000019001985869400642D4A08DE18DE28D8F
:10101000002A1CBF401A5FEA004101D102B0B0BDF6
:10102000216851E8031F226821F4907142E80313FC
:10103000002BF5D1216851E8051F226821F001013C
:1010400042E80513002BF5D1202184F8421000213D
:10105000216300BF216851E8031F226821F01001BD
:1010600042E80313002BF5D10221616354E001062D
:1010700058D44006D2D5204600F08AFC02B0B0BD5C
:10108000C20718BF11F4807251D1420755D45BE0FA
:10109000E06B016849688AB2002ABFD0A38D9A42EA
:1010A000BCD2E1858069202831D000BF206850E89B
:1010B000030F216820F4807041E80302002AF5D173
:1010C000206850E8050F216820F0010041E8050282
:1010D000002AF5D1206850E8050F216820F0400073
:1010E00041E80502002AF5D1202084F842000020C2
:1010F000206300BF206850E8030F216820F0100033
:1011000041E80302002AF5D1E06BFFF73FF9022026
:101110006063A08DE18D401A81B22046FFF744FF45
:1011200002B0B0BD204600F005FD02B0B0BD626C5B
:1011300042F001026264420706D5BEF1000F03D0FF
:10114000626C42F002026264820706D5BEF1000FB3
:1011500003D0626C42F004026264BCF1000F06D559
:101160005EEA050203D0626C42F008026264626CBF
:10117000002A3FF453AF0840800602D5204600F015
:1011800013FC20684069616C00F0400001F0080128
:10119000401827D0204600F0D3FB20684069400665
:1011A0001BD500BF206850E8050F216820F04000E3
:1011B00041E80502002AF5D1E06B70B141F631112A
:1011C000C0F600014163FFF701F900283FF426AFA4
:1011D000E06B416B884702B0B0BD2046FFF7E6FEEA
:1011E00002B0B0BD2046FFF7E1FE0020606402B00F
:1011F000B0BD0000002804BF0120704710B50446B0
:1012000090F8410028B9002084F84000204600F002
:1012100021F8242084F841002068C16821F400519D
:10122000C160204600F024FC2068016921F490414F
:101230000161416921F02A014161C16841F4005115
:10124000C16000202021606484F8411084F84210BD
:10125000606310BD70B586B0006844F20041C4F20E
:101260000001002688420596CDE90366029643D028
:1012700044F60001C4F20001884274D043F6000134
:10128000C4F20101884240F0A08041F21800C4F28B
:101290000200016840F6000441F4804101600168E9
:1012A000C4F2010401F4804101910199016802AD89
:1012B00041F0040101600068294600F0040001903B
:1012C00001984FF4007002900220039003200590D3
:1012D0002046FFF7D3F84FF4806002900020CDE95C
:1012E000030020462946FFF7C9F8252000210022E7
:1012F000FFF770FA252032E041F21800C4F2020034
:10130000416840F6000441F4003141604168C4F294
:10131000010401F4003101910199016802AD41F02D
:10132000040101600068294600F004000190019862
:101330000420029002200390032005902046FFF72E
:101340009DF80820CDE90206204629460496FFF7BD
:1013500095F8262000210022FFF73CFA2620FFF70F
:1013600035FA06B070BD41F21800C4F202004168BF
:1013700002AD41F480214160416801F48021019176
:101380000199016841F0080101600068294600F0F8
:101390000800019001984FF48060029002200390B1
:1013A0000320059040F60000C4F2010000F58064BF
:1013B0002046FFF763F84FF4006002900020CDE96B
:1013C000030020462946FFF759F806B070BD00001B
:1013D0002DE9F041044690F8420020281CBF02206D
:1013E000BDE8F0810E4600294FF0010049D01746B4
:1013F000002A08BFBDE8F0814FF0000822201D46FA
:10140000C4F8448084F84200C4F83080FFF742F901
:10141000A785E785A1680746B1F5805F10D12069EF
:10142000002814BF3046B046064609E02068002672
:1014300040686FF35F2028F8020BE08D0138E085EB
:10144000E08DD0B1204620213A462B4600F09CFB8F
:10145000C8B9002EEAD0A068B0F5805F08D008B9FE
:10146000206928B12068406800F07F0002E000BFDA
:101470002068406806F8010BDFE7202084F842006E
:101480000020BDE8F081202084F842000320BDE860
:10149000F081000010B590F84230202B1CBF0220D4
:1014A00010BD00294FF0010418BF002A01D12046C9
:1014B00010BD0024046300F023FB204610BD000093
:1014C00010B540F2D811C2F20001884216D040F2A5
:1014D0002021C2F20001884218BF10BD42F6A55477
:1014E000C2F20004207842F68461C2F2000103F0E7
:1014F000B7FC40F22020C2F200000EE042F6A454F5
:10150000C2F20004207842F6B451C2F2000103F0A6
:10151000A7FC40F2D810C2F2000021460122FFF7DA
:10152000B9FF10BD2DE9F041044690F84100202894
:101530001CBF0220BDE8F0810E4600294FF00100DB
:1015400042D01746002A08BFBDE8F0814FF00008DE
:1015500021201D46C4F8448084F84100FFF79AF822
:10156000A784E784A1680746B1F5805F0DD12069A3
:10157000002814BF3046B046064606E016F8010BB8
:1015800021684860E08C0138E084E08C80B120461E
:1015900080213A462B4600F0F7FAB8B9002EEDD17B
:1015A00038F8020B21686FF35F2048600026E9E7F6
:1015B000204640213A462B4600F0E6FA202184F8E6
:1015C0004110002818BF0320BDE8F081202084F8D6
:1015D00041000320BDE8F0817047000070B586B07F
:1015E000002541F21800CDE90455CDE90255C4F2B9
:1015F0000200016841F2000441F01001016001683D
:10160000C4F2010401F01001019101990168002266
:1016100041F02001016001684FF4005601F0200103
:1016200001910199016841F004010160016801F034
:10163000040101910199016841F00801016000680D
:101640004FF4005100F00800019001982046FFF788
:101650001BF80120CDE903050220059002A92046D0
:101660000296FEF70BFF06B070BD000080B540F299
:10167000901043F60001C2F20000C4F20101002301
:101680004FF00C0C4FF4E13280E80E00C0E9033358
:10169000C0E905C3C361FFF7ADFD002818BFFEF721
:1016A0006FFE80BD80B540F2D81044F20041C2F216
:1016B0000000C4F2000100234FF00C0C4FF4E132A3
:1016C00080E80E00C0E90333C0E905C3C361FFF73A
:1016D00091FD002818BFFEF753FE80BD80B540F293
:1016E000202044F60001C2F20000C4F200010023F1
:1016F0004FF00C0C4FF4E13280E80E00C0E90333E8
:10170000C0E905C3C361FFF775FD002818BFFEF7E8
:1017100037FE80BDFEE7000000F0070080F0070301
:10172000042B28BF04234FF0FF3C03380CFA03F3CB
:1017300038BF0020994381400CFA00F022EA0000F3
:101740000843704781B040F20400C2F20000006814
:1017500044F6D351C1F26201A0FB0101480A009096
:1017600000BF0098411E00280091F9D101B07047D8
:10177000B0B501380024B4EB106F1CBF0120B0BD20
:101780004EF21005CEF2000568604FF0FF300F21D9
:1017900000F068FA0720AC6028602046B0BD000069
:1017A00080B502F07BF802F03FFF02F085F880BDC3
:1017B00070B590B006AC20462821FEF738FD012018
:1017C00006900A904FF4E01000254FF48031022675
:1017D0000F9020460595CDE90355CDE90155CDE99A
:1017E0000715CDE90D61FFF73FF978B90F20CDE975
:1017F00001064FF48060CDE9040501A8022103959C
:10180000FEF7FCFF002804BF10B070BDFEF7B8FD66
:1018100041F20400C4F20200016801F00C01082941
:1018200041F20021C0F27A0117D102680368C2F3C5
:101830008342DB0302F1020205D440F60011C0F23C
:101840003D01514309E003689B0301D4514304E087
:1018500040F60011C0F23D01514340F20402C2F2D1
:1018600000021160006845F2F441C0F30310C0F6B5
:101870000001085C116821FA00F010607047000058
:101880007047000080B540F24810C2F20000FFF738
:10189000DFFA80BD10B540F2FF7E0368C4F2000E8F
:1018A00042F6004C7045C4F2010C05DCB0F1804FEB
:1018B0000AD040F2004203E0604505D040F6000245
:1018C000C4F20002904203D14A6823F0700313432C
:1018D000704505DCB0F1804F0AD040F2004203E0D1
:1018E000604505D040F60002C4F20002904203D1E8
:1018F000CA6823F44073134323F080024B69D1F884
:1019000000E08C681A4360450260C462C0F828E0B9
:1019100002D10969CCF83010012141610169C90780
:1019200008BF10BD016921F00101016110BD000077
:1019300080B5406A0021C185C184FFF737FB80BDB7
:10194000016851E8031F026821F4907142E8031313
:10195000002BF5D1016851E8051F026821F0010153
:1019600042E80513002BF5D1016B01290AD100BF14
:10197000016851E8031F026821F0100142E80313D7
:10198000002BF5D1202180F842100021016370471F
:1019900080B50168CA6822F04002CA60202180F840
:1019A0004110FFF719FE80BD80B582B090F842105B
:1019B00022291ED18268B2F5805F02D10169002917
:1019C0004AD0816AB2F5805F07D00AB9026922B1B4
:1019D0000268526802F07F0201E0026852680A70F1
:1019E0000121826A11448162C18D01390A04C185D5
:1019F00001D002B080BD0168CA6822F02002CA602E
:101A0000CA6822F48072CA604A6922F001024A61FF
:101A1000202180F8421000214163026B012A23D16A
:101A2000016300BF016851E8031F026821F0100143
:101A300042E80313002BF5D101680A68D20606D5E7
:101A4000002201920A680192496801910199818DF1
:101A5000FFF7AAFA02B080BD0168826A49686FF395
:101A60005F2111800221BCE7FFF72AFD02B080BD93
:101A700010B504460068D4E902C22369016921F463
:101A8000405111430161616943EA0C021143C2688C
:101A900041F20C639A431143C1604169A26921F488
:101AA0004071114343F60002C4F2010290424161C9
:101AB00002D0FEF785FF01E0FEF794FF626819216E
:101AC00048439100B0FBF1F048F21F51C5F2EB1111
:101AD000A0FB01235A096FF0630302FB03003223CA
:101AE00003EB0010A0FB0101F02303EA511320686F
:101AF00003EB0212C1F343111144816010BD0000D9
:101B0000816200218285C2854164222180F84210D1
:101B1000016921B10168CA6842F48072CA60016833
:101B2000486940F001004861C86840F02002002088
:101B3000CA60704790F84110212923D18168B1F51E
:101B4000805F01D1016931B1016A02684B1C0362F7
:101B50000978516007E0016A036831F8022B6FF3DE
:101B60005F225A600162C18C01390A04C18418BF26
:101B700070470068C16821F08001C160C16841F010
:101B80004001C160704700002DE9F04182B0044679
:101B9000006800680840884203D1002002B0BDE818
:101BA000F0811D460E4690465F1C04E020680068E8
:101BB0003040B04228D0002FF8D0FEF76BFD014630
:101BC0004FF003000DB3A1EB0801A9421DD8206816
:101BD000C1684907EAD5402EE8D0802EE6D00168DA
:101BE0000907E3D50025019501680191406801903E
:101BF00001982046FFF7A4FE0820606484F8405056
:101C0000012002B0BDE8F081002002B0BDE8F08103
:101C100080B540F29010C2F20000FFF7C9F980BD14
:101C200080B540F2D810C2F20000FFF7C1F980BDC4
:101C3000FEE70000002848BF704700F01F010122A6
:101C400002FA01F14EF200124009CEF2000242F80F
:101C5000201070474EF60C50CEF200000068C0F322
:101C6000022070474EF6145300F00F02CEF200032C
:101C700009011A4400F16043B0F1FF3FC8BF03F50A
:101C800064421170704700004EF60C51CEF2000114
:101C90000A684FF6FF031A4060F30A2242F08060A0
:101CA00040F0FD7008607047002804BF00207047B6
:101CB000C1B209B101200CE010F47F4102D0090A41
:101CC000092006E010F47F0107BF010E1920090C5E
:101CD000112045F20C52C0F60002515C08447047D6
:101CE00080B501F035FC80BD80B501F03FFC80BDC2
:101CF00080B50068143802F0F5FB80BD70B504466D
:101D0000084616460D4602F049FCE6B1012E19D1EF
:101D1000264600BF3668A6420FD095F8350096F8E3
:101D200021108842F6D2A6F11400143005F11401F6
:101D300001F01CFEA64218BF70BD05F1140120463B
:101D400001F014FE70BD05F11401204601F00EFEF5
:101D500070BD000080B5143001F0DCFD80BD0000D6
:101D60002DE9F04188B090460D460646002100BF9F
:101D7000705C092806D0202804D08D4201D00131A2
:101D8000F6E72946C1B1304601F05EF9A0B16C46D4
:101D9000074620460021202201F064FF30462946F4
:101DA000224601F0B5F938B16946B847C8F80000D5
:101DB000002008B0BDE8F0814FF0FF3008B0BDE86A
:101DC000F081000010B542F69441C2F200010968AA
:101DD00004460846FFF768FF411E42F69430C2F2FF
:101DE000000050F831002160143810BD42F6AC5CA0
:101DF000C2F2000C18B1DCF80030DB69036019B1E5
:101E0000DCF80000006A0860002A08BF7047DCF8B0
:101E10000000406A10607047B0B502F081FB0446D4
:101E2000FEF780F90546204602F088F804F14400E8
:101E300002F0BEFC042084F83400204602F0ECFAE4
:101E40002846FEF773F901F0C3FFB0BD2DE9F04756
:101E500082B00446DDF83090DDE90A8A14301D4670
:101E600016460F4601F05EFD284623214246C4E98E
:101E70000876C4E90A5801F0F5FE04F120030FCBFF
:101E80001A4441F61963043AC0F6000301F0E4FC79
:101E900041F6C962E061002704F14400C0F6000287
:101EA0002146234684F835A0C4E90E79C4F8409051
:101EB000276384F83470C4E91C770097019702F017
:101EC0008BFC02B0BDE8F087B0B50446FEF72AF9F6
:101ED00005466FF00100206304F1140001F08CFD51
:101EE000204601F0F5FF2846FEF720F901F070FFCB
:101EF000B0BD000080B5DDF808C000F11C0E0CF08C
:101F0000FE0C80F809C014304FF0000C8EE80E1063
:101F100001F00CFD80BD000080B5143001F074FDAF
:101F200080BD000010B54EF629541CA0CEF200046E
:101F300001F0D0FC21781CA001F0CCFC2078C00777
:101F400002D01FA001F0C6FC2078800702D51FA098
:101F500001F0C0FC2078400702D51FA001F0BAFCB8
:101F60002078000702D520A001F0B4FC2078C0063C
:101F700002D520A001F0AEFC94F90000B0F1FF3FC3
:101F800006DD45F2FF70C0F6000001F0A3FC10BDB5
:101F9000D4F80F1019A001F09DFC10BD62757320DC
:101FA0006661756C743A0A005343425F434653526C
:101FB0005F424653523A30782530325820000000B4
:101FC00049425553455252200000000050524543AB
:101FD0004953455252200000494D50524543495300
:101FE0004552522000000000554E53544B4552526A
:101FF0002000000053544B45525220005343422DC1
:102000003E424641523A253038580A0000EB102033
:10201000084431B1013A00BF12F8013F01391844B8
:10202000FAD1C0B27047000080B502A001F052FCA6
:10203000002080BD1B5B324A1B5B480080B584B02A
:1020400000200390CDE9010003A802A901AA01F034
:10205000FBFD039909A001F03DFC02990BA001F0E2
:1020600039FC01990DA001F035FCDDE90210411A9F
:102070000EA001F02FFC002004B080BD746F7461CD
:102080006C202020203A2025640A000075736564C6
:1020900020202020203A2025640A00006D61786904
:1020A0006D756D20203A2025640A00006176616913
:1020B0006C61626C653A2025640A000010B5022844
:1020C0001DD14C6845F63601C0F600012046FEF7EA
:1020D000CCF858B345F64F01C0F600012046FEF794
:1020E000C4F838B319A12046FEF7BFF830B345F65F
:1020F0005501C0F600012046FEF7B7F810B345F2CF
:102100006170C0F6000001F0E5FB11A001F0E2FBF8
:1021100012A001F0DFFB18A001F0DCFB1DA001F014
:10212000D9FB23A001F0D6FB002010BD00F00AFD72
:10213000002010BD00F0C6FD002010BD00F066FCC0
:10214000002010BD00F0B8FB002010BD73656D00CD
:102150005B6F7074696F6E735D3A0A0020202020F7
:10216000746872656164202D206C697374207468D2
:1021700072656164730A00002020202074696D6517
:1021800072202D206C6973742074696D6572730AF6
:10219000000000002020202073656D202D206C6938
:1021A00073742073656D6170686F7265730A0000E7
:1021B000202020206D61696C626F78202D206C6971
:1021C0007374206D61696C626F78730A000000009F
:1021D00080B500F0B7FC002080BD000010B584463B
:1021E00003684CF6CD40CCF6CC40A3FB000E03F0C8
:1021F0000F001A094FEADE0404EB84040A2904BF25
:102200004FEADE02A3EB4400CCF8002010BD000032
:1022100010B542F6A850C2F20000006890F8210004
:10222000800706D440F2C000C2F200000021017015
:102230001DE040F24410C2F20000016840F2C00408
:10224000C2F2000439B140F2C000C2F200008022A4
:10225000FDF7F8FF06E00020207147F26D30C2F272
:10226000680020602046FDF7F9FF3E21215240F230
:10227000C000C2F2000010BD80B501F0D3F980BDEE
:1022800042F6A851C2F20001096800F0010091F87D
:10229000212002F0FD0242EA400081F8210070474F
:1022A00040F2B002C2F20002106040F2B400C2F28A
:1022B0000000016070470000B0B582B045F68410A0
:1022C00045F60821C0F60000C0F60001FFF7E8FF60
:1022D0000120782101F0DCF842F6A855C2F2000591
:1022E0002860F8B10A201521CDE9001042F25D31D5
:1022F00010A0C0F6000100224FF48063002402F019
:102300004DF82A6805460DA110460022002301F071
:1023100037FE0120FFF7B4FF4DB1284602F02AF93D
:10232000002404E007A001F0D5FA4FF0FF34204666
:1023300002B0B0BD747368656C6C0000736872782D
:10234000000000006E6F206D656D6F727920666F02
:1023500072207368656C6C0A0000000042F6A85990
:10236000C2F20009D9F8000090F8211041F00101F3
:1023700080F82110FFF74CFF40F2C004C2F20004C5
:10238000204601F0A7FA45F65D0645F2FF774FF0CB
:1023900001084FF0000AC0F60006C0F600074FF033
:1023A000020B01E080F82080FFF766FF0028FBD4D5
:1023B0000546D9F800001B2DF4D090F82010022912
:1023C00008D0012940F071805B2D40F06C8080F8CE
:1023D00020B0E9E7A5F14101022980F820A0E3D36C
:1023E000442D00F28D80DFE815F04500900090004C
:1023F00090009000900090009000CC000A016C00CA
:10240000900090006C009000900090009000900070
:10241000900090009000900090009000900090003C
:10242000900090009000900090009000900090002C
:10243000900090009000900090009000900090001C
:10244000900090009000900090009000900090000C
:1024500090009000900090009000900090009000FC
:1024600090009000900090009000900090009000EC
:102470004600560198E7B0F87610B0F87420914203
:10248000BFF492AF084490F8221045F65F00C0F602
:10249000000001F01FFAD9F80000B0F87610013101
:1024A000A0F8761080E780F820A00D2D28D8DFE86E
:1024B00005F0072C2C2C2C2C2C2C68A6082C2C0876
:1024C00072E790F82100C00702D0384601F002FA06
:1024D000D9F80000B0F87410223000F07BFDFFF74F
:1024E00097FE204601F0F6F9D9F8000000212230CD
:1024F000512201F0B7FBD9F80000C0F874A053E7EF
:102500007F2D3ED0FF2D3FF44FAFB0F8741050290F
:1025100028BFA0F874A0B0F87630B0F874209A42C2
:1025200040F28C80C11801F123002231D21A01F04F
:102530006DFBD9F80000B0F87610084480F82250FE
:10254000D9F8000090F82110C90707D0B0F876102C
:10255000084400F122015BA001F0BCF9D9F80000A9
:10256000B0F87650B0F87400854277D2304601F06A
:10257000B1F9D9F800000135B0F874008542F5D3FF
:102580006CE0B0F8761000293FF40EAFB0F874207C
:102590000139531E9AB2A0F874308BB29A42A0F857
:1025A00076106DD9C11801F122002331D21A01F041
:1025B0002DFBD9F80000B0F87410084480F822A070
:1025C000D9F80000B0F87610084400F122013BA0D1
:1025D00001F080F9D9F80010B1F87600B1F8741064
:1025E00088423FF6E1AE451E304601F073F9D9F856
:1025F00000000135B0F874008542F5D3D4E6D9F86F
:102600000000B0F8761059B1002500BF304601F047
:1026100061F9D9F800000135B0F876108D42F5D394
:10262000223002F0F3FAD9F8005005F12200FDF74C
:1026300015FEA5F87400A5F87600B5E6104480F8FC
:102640002250D9F8000090F82100C00706D045F6C6
:102650005F00C0F60000294601F03CF9D9F80000FF
:10266000B0F87410B0F876200131A0F8741089B277
:1026700001325029A0F8762028BFC0F874A093E654
:102680000DA001F027F9D9F80000B0F87410084443
:1026900080F822A088E6B0F8760000283FF484AEE7
:1026A000304601F017F9D9F80000B0F8761001397A
:1026B000A0F8761078E600BF0820080008257320EF
:1026C000200800002573000080B582B0019040F220
:1026D0009010C2F2000001A901224FF6FF73FEF72D
:1026E00021FF019802B080BD10B54EF62C54CEF2F9
:1026F00000042068800702D510A001F0EBF82068E4
:10270000400011D514F8030C002818BFFFF70AFC8D
:1027100014F8040C002818BF00F0A0FB34F8020CD9
:10272000002818BF02F010FC2068B0F1FF3FC8BFBE
:1027300010BD08A001F0CEF810BD00BF6661696C45
:10274000656420766563746F722066657463680AD9
:10275000000000006465627567206576656E740A26
:102760000000000010B582B026A00A21002201F06E
:1027700065F940F2F021C2F20001086022A00A21AE
:10278000002201F05BF940F2F421C2F2000108607E
:1027900044F6E94114241DA0C0F6000100224FF4C4
:1027A00080630094019401F0F9FD002818BF01F046
:1027B000E1FE0F2044F61551009017A0C0F600016D
:1027C00000224FF48063019401F0E8FD002818BF57
:1027D00001F0D0FE44F65D51022412A0C0F60001C3
:1027E0007B224FF47A73009401F0C8FF42F6B05197
:1027F000C2F20001086002F005F802F0FBFA02B034
:1028000010BD00BF6D6231006D6232007468726588
:1028100061642D31000000007468726561642D32BE
:102820000000000074696D65722D310070B50646B8
:10283000084614460D4601F08DFA0430C6E900043E
:10284000082000213572C6E9030170BDF0B581B0E2
:102850000646C86800240C6150B3087A0D46E0B102
:1028600034462F68002E08BF3C46FDF75BFC36B1AE
:1028700014F8041C2A7A01F07F01914215D16A688C
:10288000002100BF2468BC4209D0EB684E1C42F80E
:1028900021409E423146F5D103E0002408E00024A7
:1028A0000E46FDF743FC2E6102E0FDF73FFC0024DD
:1028B000204601B0F0BD00002DE9F04F93B00DF1BE
:1028C00018090EA805214A46FFF7B0FF45F6550244
:1028D00032A0C0F60002082100F0FCFF00F0A4FCCA
:1028E00037A000F0F7FF002003E000BF04980028A5
:1028F0004FD00EA9FFF7AAFF129904900129F5DB2A
:102900009DF840A0129E4FF0000B059606E000BF18
:10291000FDF70CFC0BF1010BB345E7DA59F82B403E
:10292000FDF700FC14F8041C01F07F015145EFD1C4
:10293000A4F10C07FDF7FAFB04F10806304601F09C
:1029400021F8B4F81680A58A0446304601F032F822
:10295000002C044609D021A0082108223B46CDE9DD
:102960000085029400F0B6FF11E022A008210822A1
:102970003B46CDE90085029400F0ACFF304602F002
:102980005FF945F2FF70C0F6000000F0A3FF059E5E
:10299000C0E7002013B0BDE8F08F00BF252D2A2E20
:1029A0007320656E7472792073697A65207375730C
:1029B00070656E64207468726561640A00000000CE
:1029C000202D2D2D2D20202D2D2D2D202D2D2D2D6B
:1029D0002D2D2D2D2D2D2D2D2D2D0A00252D2A2E81
:1029E0002A73202530346420202530346420256467
:1029F0000A000000252D2A2E2A7320253034642059
:102A000020253034642025643A0000002DE9F04F81
:102A100091B004AD0CA802212A46FFF707FF31A0B0
:102A200037A2082100F056FF00F0FEFB37A000F0AF
:102A300051FF002003E000BF039800284DD00CA9EF
:102A4000FFF704FF109903900129F5DB9DF83890FA
:102A5000DDF840A04FF0000B06E000BFFDF766FB7D
:102A60000BF1010BD345E7DA55F82B40FDF75AFB84
:102A700014F8041C01F07F014945EFD1A4F10C07C3
:102A8000FDF754FB04F10806304600F07BFFB4F874
:102A900010800446304600F08DFF002C044609D01B
:102AA00020A0082108223B46CDF80080019400F0C8
:102AB00011FFD5E71FA0082108223B46CDF8008072
:102AC000019400F007FF304602F0BAF845F2FF70BB
:102AD000C0F6000000F0FEFEC2E7002011B0BDE825
:102AE000F08F00BF252D2A2E7320762020207375AD
:102AF0007370656E64207468726561640A0000001A
:102B000073656D6170686F7265000000202D2D2D5A
:102B1000202D2D2D2D2D2D2D2D2D2D2D2D2D2D0A15
:102B200000000000252D2A2E2A7320253033642032
:102B300025640A00252D2A2E2A732025303364208F
:102B400025643A002DE9F04FAFB00DF1880B2AA8AB
:102B500001215A46FFF76AFE45F2787045F63602C3
:102B6000C0F60000C0F60002082100F0B3FE00F03D
:102B70005BFB39A000F0AEFE002002E002980028C6
:102B800065D02AA9FFF762FE2E9902900129F5DB94
:102B90009DF8B0A02E9F4FF00009039707E000BFFB
:102BA0003046FDF7C3FA09F10109B945E6DA5BF8E9
:102BB0002940FDF7B7FA14F8041C064601F07F011E
:102BC0005145EDD1A4F10C0704A83946782200F054
:102BD000E1FF3046FDF7AAFA94F829602EA00821FB
:102BE00008223B46009600F075FE94F82800F1217B
:102BF00000F0070080F00400C140C90704D029A1FB
:102C000051F8200000F066FEE2690021505C0131BD
:102C10002328FBD0D4E908606427711A236979431B
:102C2000656B32446431B1FBF6F7A2EB030801F0A7
:102C30001BFB044645F2BC70C0F60000414632461C
:102C40003B460095019400F045FE039FABE7002052
:102C50002FB0BDE8F08F00BF202D2D2D20202D2D71
:102C60002D2D2D2D2D202D2D2D2D2D2D2D2D2D2DA1
:102C7000202D2D2D2D2D2D2D2D2D2D20202D2D2DAB
:102C80002D2D2D20202D2D2D2D2D2D2D2D2D2D209B
:102C90002D2D2D0A00000000252D2A2E2A73202517
:102CA00033642000175800082058000820580008F6
:102CB000205800080E580008205800083D58000809
:102CC000465800082DE9F04F91B004AD0CA80A2138
:102CD0002A46FFF7ABFD45F64F0233A0C0F60002CF
:102CE000082100F0F7FD00F09FFA3CA000F0F2FD93
:102CF00045F601080020C0F6000802E0039800280D
:102D000044D00CA9FFF7A2FD109903900129F5DB2F
:102D10009DF83890DDF840A04FF0000B29E000BF8F
:102D2000A7F10C04FDF702FAD7E906060821009086
:102D300036A008222346019600F0CCFD17F8030CBC
:102D400045F62901C0074046C0F6000108BF084605
:102D500000F0C0FD17F8030C80075ABF45F2E2707F
:102D6000C0F600002FA000F0B5FD0BF1010BD3451C
:102D7000C4DA55F82B70FDF7D5F917F8041C01F0EB
:102D80007F014945CCD0FDF7D1F9EEE701F046FCD3
:102D9000014645F2EC70C0F6000000F09BFD0020FB
:102DA00011B0BDE8F08F00BF252D2A2E73202070B2
:102DB0006572696F64696320202074696D656F7541
:102DC000742020202061637469766174656420201A
:102DD0002020206D6F64650A00000000202D2D2D3D
:102DE0002D2D2D2D2D2D2D202D2D2D2D2D2D2D2D20
:102DF0002D2D202D2D2D2D2D2D2D2D2D2D2D202D1D
:102E00002D2D2D2D2D2D2D2D0A000000252D2A2EA6
:102E10002A7320307825303878203078253038787B
:102E200020000000706572696F6469630A00000029
:102E3000FDF744FCFEF7BCFCFEF7D0FBFEF716FCEA
:102E4000FEF730FCFEF74AFCFFF78CFCFEE70000C3
:102E500080B500F043FBFFF7EBFF80BD10B54EF6E9
:102E6000285419A0CEF2000400F034FD21781BA0F4
:102E700000F030FD2078C00702D01EA000F02AFD2F
:102E80002078800702D51EA000F024FD20780007DE
:102E900002D51EA000F01EFD2078C00602D51EA09F
:102EA00000F018FD94F90000B0F1FF3F06DD45F297
:102EB000FF70C0F6000000F00DFD10BDE16819A024
:102EC00000F008FD10BD00BF6D656D206D616E6185
:102ED0006765206661756C743A0A00005343425F6F
:102EE000434653525F4D4653523A3078253032585C
:102EF000200000004941434356494F4C2000000048
:102F00004441434356494F4C200000004D554E5319
:102F1000544B4552522000004D53544B45525220C1
:102F2000000000005343422D3E4D4D41523A2530A2
:102F300038580A002DE9F04704460078A8B340F25B
:102F4000B00040F2B40AC2F20000C2F2000A076800
:102F5000DAF8000087422CD200250FF274084FF0F7
:102F600000090FE04846314601F0AAFEA842B8BF6A
:102F700005464046314600F0ADFCDAF800000C375B
:102F8000874219D23E682046FDF768F9024620467E
:102F90003146FDF778F90028EFD1002DE2D1304617
:102FA000FDF75CF90546B146DCE700F075F8BDE8D1
:102FB000F0874FF000090025B9F1000F08BFBDE808
:102FC000F087204649462A4601F07CF9BDE8F087A3
:102FD00025730A0010B582B0C9B1044604E000BFF1
:102FE000013904F1010412D020782028F8D00928F2
:102FF000F6D001AA2046FEF7B3FEA8B1204600BFD6
:10300000017841F02001202904D00130F8E70020A8
:1030100002B010BD0021017005A0214600F05AFC4D
:103020004FF0FF3002B010BD019802B010BD00BFDC
:1030300025733A20636F6D6D616E64206E6F74202E
:10304000666F756E642E0A002DE9F04140F2B00201
:10305000C2F20002176840F2B402C2F20002136822
:103060009F4216D2D2F800800C46054603E000BF0E
:103070000C3747450DD23E68294630462246FDF7BB
:1030800002F90028F4D1305D0028F1D1B868BDE81C
:10309000F0810020BDE8F08170B513A000F01AFCAB
:1030A00040F2B00040F2B405C2F20000C2F20005E6
:1030B0000068296888420ED2A0F10C0611A400BF56
:1030C00056F80C1F2046726800F004FC286806F1D0
:1030D0000C018142F4D345F2FF70C0F6000000F00D
:1030E000F9FB002070BD00BF52542D546872656119
:1030F00064207368656C6C20636F6D6D616E6473C2
:103100003A0A0000252D313673202D2025730A0040
:103110002DE9F041904600294FF000024FF00004E5
:1031200056D0002604E01E468E4251D28E424FD227
:103130000B468E4288BF3346013010F8017C202FA9
:1031400001D0092F07D1B34204D000F8012C013679
:10315000F2E700BF1E46082C3DD28E4238D2222F05
:103160001CD148F824000778731C03E010F8017F95
:103170001E4601338B424FF0000538BF0125222F38
:103180001ED08B421CD25C2FF0D1074617F8015F8E
:10319000222D04BF3846B31CE8E700BF013848F8C9
:1031A000240001340B468E4288BF33460778092F2E
:1031B000BAD0202FB8D0B342B5D001300136F5E7F0
:1031C00004F1010425B100F8012B02368E42AFD381
:1031D0002046BDE8F0810BA000F07CFB002511A685
:1031E00058F82510304600F075FB0135AC42F7D198
:1031F00045F2FF70C0F6000000F06CFB2046BDE811
:10320000F08100BF546F6F206D616E79206172672D
:10321000732021205765206F6E6C79205573653AB5
:103220000A00000025732000B0B56FF0070503A465
:10323000204600F04FFB0135FAD3B0BD2D00000051
:1032400080B5D0F828C04A680CEB02038B4214D03A
:103250001A78D20711D1C26A93420ED0026B4FF096
:10326000000E9A4208BF01635A68C3F800E04A6042
:103270005A68A1EB0C0362449360D1F808E00CEBB0
:103280000E028A4208BF80BD1378DB070BD1036BA7
:103290008B4208BF026348680023506048680B6097
:1032A0006044C0F808E080BD2DE9F04F8BB01E46A9
:1032B000169B0446580645F6581045F6F70BC0F61F
:1032C0000000C0F6000B58BF8346D8060D4648BF25
:1032D00023F00103D8074FF0300108BF20219807E1
:1032E0000A9204D400274FF0010C002210E0B2F142
:1032F000FF3F05DD580707D41807F3D5202204E067
:1033000050420A902D2200E02B224FF0000C0127A2
:103310000A98DDF854800593CDE90121CDE9037CBD
:10332000A8B10A98C0B14FF000090AAF0DF1180A10
:1033300038463146FEF752FF1BF800100A9A09F191
:1033400001000AF80910002A8146F1D105E0302079
:103350008DF81800012000E0002042464045C8BF1B
:103360000246DDF814C0149F1CF0110FA7EB0201F8
:1033700002D0049ED6B11FE000230029C8BF01235C
:10338000039E3340C91A01295FDB59423944049E28
:10339000891A2023AC42A1F1010138BF2370002912
:1033A00004F10104F6DC4FF0FF312EB9AC423CBF12
:1033B000019B2370013901345FEACC6302D540459B
:1033C00015DB1EE001290FDB029B00BFAC42A1F11F
:1033D000010138BF2370002904F10104F6DC4FF02D
:1033E000FF31404503DB0CE00139404509DA302369
:1033F000AC42A2F1010238BF2370904204F10104F3
:10340000F6DBB8F1000F0ED001280CDB06AA013A5A
:10341000AC423CBF135C2370B8F1000F04F101040F
:1034200001D00138F4DC01290BDB481C202100BF4E
:10343000AC42A0F1010038BF2170012804F1010461
:10344000F6DC20460BB0BDE8F08F049E0139002E5B
:10345000ACD0B1E780B500F02DF980BD80B582B069
:103460000A2042F651614FF0140C009006A0C0F6FD
:10347000000100224FF48063CDF804C000F08EFFFD
:1034800001F078F802B080BD6D61696E0000000047
:10349000B0B501FB00F4204600F0BEFA054620B1AD
:1034A00028460021224600F0DDFB2846B0BD000082
:1034B000B0B545F6781445F67010C0F60004C0F6B5
:1034C0000000A04228BFB0BD45F67015C0F600054B
:1034D00055F8040B8047A542FAD3B0BDB0B545F608
:1034E000801445F67810C0F60004C0F60000A04233
:1034F00028BFB0BD45F67815C0F6000555F8040B99
:103500008047A542FAD3B0BD70B500F06DFF00282A
:1035100008BF70BD044603E000F066FF0446A8B192
:10352000266F204600F050FC0546012802D12046B7
:1035300000F000FC0EB12046B047002DECD1A06A8F
:1035400000F034F8204600F0E3FBE5E770BD000032
:1035500080B5FCF7E7FD42F69031C2F200010A881F
:1035600001320A80FCF7E2FD80BD000080B5FCF767
:10357000D9FD42F69031C2F200010A88013A13B235
:10358000002B0A8002DDFCF7D1FD80BD00220A80FD
:10359000FCF7CCFD40F2FC20C2F2000000680028DD
:1035A00008BF80BD00F014FC80BD0000002808BFEB
:1035B000704710B50446FEF793FB204600F0C0FDAF
:1035C000FEF792FBBDE810407047000040F2043067
:1035D000C2F200007047000040F20430C2F2000066
:1035E00000F520507047000010B5FDF767F8FEF7B2
:1035F000DFF8FEF70DF9FDF7DDF944F6D351C1F21E
:103600006201A0FB01018809FDF7B4FBFFF750FF41
:10361000FFF7DCFF0446FFF7DFFF0146204600F01E
:103620006BFE10BD10B582B040F268004FF0FF3461
:10363000C2F2000001A9012200230194FDF7C8FE97
:1036400018B10A20019400F047FF9DF8040002B071
:1036500010BD0000F0B581B004460D208DF80300C8
:1036600040F26800C2F20000002180F840102046BD
:1036700000F020FEE0B140F268060546C2F2000606
:103680000DF103070AE000BF304621460122012365
:10369000FDF748FF013D04F1010409D020780A2814
:1036A000F2D13046394601220123FDF73BFFEBE71B
:1036B00001B0F0BD4EF60C500421CEF20000C0F275
:1036C000FA5101607047000010B540F20031C2F2BB
:1036D00000010968044621B120468847002808BF38
:1036E00010BD216C45F6DA00C0F6000000F0F2F8DB
:1036F000616A45F69900C0F6000000F0EBF8A16A97
:1037000045F6A600C0F6000000F0E4F8E16A45F6D0
:10371000B300C0F6000000F0DDF8216B45F6C000F4
:10372000C0F6000000F0D6F8616845F6CD00C0F69E
:10373000000000F0CFF8A1681FA000F0CBF8E1680E
:1037400021A000F0C7F8216923A000F0C3F8616947
:1037500025A000F0BFF8A16927A000F0BBF8E1693F
:1037600029A000F0B7F8216A2BA000F0B3F8616B34
:103770002DA000F0AFF8A16B2FA000F0ABF8E16B2B
:1037800031A000F0A7F82078400706D445F6620083
:10379000C0F6000000F09EF80AE000F0C1FE01460D
:1037A00045F67C00C0F6000000F094F8FFF7CAF977
:1037B000FEF79AFFFEE700BF7230353A20307825D9
:1037C0003038780A000000007230363A2030782510
:1037D0003038780A000000007230373A20307825FF
:1037E0003038780A000000007230383A20307825EE
:1037F0003038780A000000007230393A20307825DD
:103800003038780A000000007231303A20307825D4
:103810003038780A000000007231313A20307825C3
:103820003038780A000000007231323A20307825B2
:103830003038780A00000000206C723A2030782579
:103840003038780A000000002070633A2030782574
:103850003038780A0000000070B5043222F0070EFC
:103860004BF6EF64AEF1400C6FF04302CDF6AD6461
:103870000EEB02050432161D6C60F9D100224FF0E8
:1038800080744EF8080C60464EE908124EE9062294
:103890004EE904234EF8044C70BD000080B5FCF7DF
:1038A00041FC42F60831C2F200010A7801320A7086
:1038B000FCF73CFC80BD000080B5FCF733FC42F611
:1038C0000831C2F200010A78013A0A70FCF72EFCB6
:1038D00080BD000083B070B581B042F610348446DC
:1038E00005A8C2F200040EC005AB20467F21624647
:1038F00000937F2600F0DCFF05467F28204628BF86
:103900003546FFF7A7FE284601B0BDE8704003B07A
:1039100070470000C0E9000070470000C0E90000E7
:1039200070470000C0E9000070470000C0E90000D7
:103930007047000040F25801C2F200010A6850606E
:103940000260086041607047026851600A6001606F
:1039500048607047026851600A60016048607047C3
:10396000026851600A6001604860704742681160F7
:103970004A60416008607047426811604A60416077
:10398000086070470168081AB0FA80F04009704773
:103990000168081AB0FA80F0400970470168081AF7
:1039A000B0FA80F0400970470168081AB0FA80F058
:1039B0004009704701464FF0FF300A461268013057
:1039C0008A42FBD170470000D0E900124A60426889
:1039D0001160C0E900007047D0E900124A604268F7
:1039E0001160C0E900007047D0E900124A604268E7
:1039F0001160C0E900007047D0E900124A604268D7
:103A00001160C0E900007047D0E900124A604268C6
:103A10001160C0E90000704710B50446FEF760F978
:103A200042F6AC50C2F200000068214600F01AFBDA
:103A30000446FEF759F9204610BD000070B50D464A
:103A400001460520164600F03BF9C0B10446467217
:103A5000FEF780F94FF6FC70C0F2030000EA850023
:103A60002584FFF7D9FFE06158B10020C4F8220097
:103A7000E08404F12800FFF74DFF204670BD0020D0
:103A800070BD204600F044F9002070BD2DE9F04FD4
:103A900081B088460446009200F042FD0746FCF7DC
:103AA00041FB618C054649B9009838B92846FCF7B6
:103AB0003DFB6FF0010001B0BDE8F08F608CD8B124
:103AC000E169E28C013851F82210C8F80010511C4D
:103AD000228C8BB2934228BF0021E1846084283479
:103AE0002046FFF755FF00283FD02846FCF71EFB75
:103AF000002001B0BDE8F08F04F1140907F1440B78
:103B00004FF0000A002602E0608C0028D8D100980F
:103B1000C7F830A0A8B3627A48463946FEF7EEF8F7
:103B2000009801280ADB00F079FD0646584600217E
:103B30006A4600F0F9FD584600F064FE2846FCF79E
:103B4000F5FA00F045F9386B0028D2D1FCF7EAFA13
:103B5000009905460129D7DB00F060FD0099861B1E
:103B6000881B20EAE0700090CEE72046FEF7C0F800
:103B70002846FCF7DBFA00F02BF9002001B0BDE885
:103B8000F08F2846FCF7D2FA6FF00100386301B0DD
:103B9000BDE8F08F102A03D341EA00039B070CD045
:103BA0000346002A08BF70470139013B11F801CFD5
:103BB000013A03F801CFF9D17047102A1AD3A1F1C5
:103BC000100CA0F1100300BF5CF8101F103A43F86E
:103BD000101FDCF804100F2A5960DCF808109960F7
:103BE000DCF80C10D960EFD80CF110011033042A66
:103BF000D7D303E00346042AD3D300BF51F804CB44
:103C0000043A032A43F804CBF8D8CAE781420FD21A
:103C10008B1883420CD9002A08BF7047A1F1010C10
:103C2000431E00BF1CF802109954013AFAD109E072
:103C300042B10139431E00BF11F801CF013A03F828
:103C400001CFF9D17047000070B514460D46064605
:103C5000FEF746F8304629462246FEF7C7F8FEF73B
:103C600043F870BD10B50446042ACBB201D3A007B7
:103C700007D020461AB111461A46FCF7D1FA204661
:103C800010BD43EA0320102A40EA00410ED3A4F1FC
:103C9000100000BF103A40F8101F0F2AC0E90111B0
:103CA000C160F7D81030042A04D2E3E72046042A82
:103CB000E0D300BF043A032A40F8041BFAD8D9E73E
:103CC0002DE9F0418846074600F044F80546C068F3
:103CD000FFF7A2FE4FF00006B8B1EA6800210446E3
:103CE000FFF7C0FF2046414608222772667200F0A7
:103CF000E9FAFCF717FA0646281D04F10C01FFF754
:103D000023FE3046FCF712FA26463046BDE8F08125
:103D1000B0B5044600202072FCF704FA054604F111
:103D20000C00FFF759FE2846FCF700FA2046FFF783
:103D30003DFCB0BDB0B5044600202072FCF7F2F99E
:103D4000054604F10C00FFF747FE2846FCF7EEF9A4
:103D5000B0BD000040F208020021C2F2000200BF24
:103D6000535C834204BF501870471031502904BF80
:103D700000207047F4E70000F0B581B00446084623
:103D800015460F46FFF7E6FF0646FFF7E1FB043650
:103D9000304600BF0068B042FCD1FFF7E7FB47F0B8
:103DA0008000207220462946082200F08BFAFCF79A
:103DB000B9F9054604F10C013046FFF7C5FD284668
:103DC000FCF7B4F901B0F0BD007AC00970470000FB
:103DD000F0B581B0FCF7A6F942F69031C2F20001CD
:103DE0000988044619B12046FCF7A0F96EE042F6B6
:103DF0009440C2F200000068B0B16846FDF7E2FFEF
:103E000040F2FC27C2F200073D68064695F83410E0
:103E100001F00702032A0BD195F83500009A82427F
:103E20002CD900202E4630E0002000284ED1DAE7C1
:103E30000020AE422FD0009940F2F822C2F20002D8
:103E400011703E6010B1284600F042F8304600F094
:103E500075F896F8340000F0F800033086F8340066
:103E600042F60830C2F20000017805F11C0000297A
:103E700006F11C011DD0FCF75CF917E0504001F081
:103E80000802104314BF01202E4601F0F70185F807
:103E90003410AE42CFD1284600F050F8386890F880
:103EA000341001F0F801033180F8341000200121B2
:103EB00006E0FCF73EF92046FCF738F90220002125
:103EC000002918BF002000283FF48DAF01B0F0BDDD
:103ED000B0B50546FCF726F9044640F2FC20C2F2D4
:103EE0000000006895F83410A84201F0F80012D0E4
:103EF00040F0010085F8340095F8350042F6943220
:103F0000C2F20002090702EBC00005F1140107D458
:103F1000FFF720FD06E040F0030085F8340009E0DB
:103F2000FFF72AFD42F69441C2F20001A86B0A682D
:103F3000104308602046FCF7F9F8B0BDB0B505465F
:103F4000FCF7F0F8044605F11400FFF74DFD95F875
:103F5000350042F69431C2F2000101EBC000FFF7D8
:103F60001DFD40B142F69441C2F20001A86B0A68FF
:103F700022EA000008602046FCF7D8F8B0BD000037
:103F800070B515460A4602211C460646FFF7F4FEA8
:103F90003046FDF7DFFE0020B583747270BD00006F
:103FA00080B582B045F6E700C0F60000FFF792FC4E
:103FB00009A0FFF78FFC14A00FF2400C009015A091
:103FC000042101220123CDF804C0FFF783FC1AA0CD
:103FD000FFF780FC02B080BD2D205254202D202000
:103FE000202020546872656164204F70657261748E
:103FF000696E672053797374656D0A0031373A3200
:10400000323A3331000000004170722031342032E6
:1040100030323600202F207C205C202020202025DC
:10402000642E25642E2564206275696C64202573D6
:104030002025730A000000002032303036202D2069
:104040003230323220436F7079726967687420624F
:10405000792052542D546872656164207465616DD5
:104060000A0000002DE9F04191B1033121F0030174
:10407000D0F834C00C2998BF0C218C4508D3D0F857
:1040800028E0026BACEB0104A2EB0E03A34202D9C1
:104090000020BDE8F0810EF1040502E0EB58A342D8
:1040A000F6D81EF80320D207F8D10EEB0308D8F893
:1040B000046003F10C07F21B8A42EFD301F11804EC
:1040C000A24205D2F11AD0E9082311448B4218E02C
:1040D00001F10C0439440EEB010220F00105566099
:1040E000C8F804104EF8015055680CF10C07BD4299
:1040F00093601CBF0EEB05029160D0E908122144C9
:104100008A42016238BF4162016B40F001024145C1
:10411000C8F8002010D1016B0A78D2070CD0C36A0E
:1041200099421FBF4A680EEB020101631EF802208C
:1041300018BF5FEAC272F3D108F10C00BDE8F0814C
:10414000002808BF704780B50146024651F80C0DA3
:1041500020F00100036B08608B4288BF016352F8B6
:10416000082C836AD0F820C08A1AD21A62440262EC
:10417000FFF766F8BDE88040704700002DE9F04782
:104180000A4422F00306192E09D30546C81C20F064
:10419000030404F13800A6F11803834205D21CA0E1
:1041A000FFF798FB0020BDE8F08704F13B0020F00A
:1041B0000307A6EB0708204600213822A8F11809BA
:1041C0004FF0000AFFF74EFD20460C212A46FFF76C
:1041D000D3FD0DA004F1140181E88102A8F10C00C7
:1041E00044F001013246C7E90040C7F808A042F890
:1041F0000C1D46E902002046C4F83490A762E26232
:104200002763BDE8F08700BF736D616C6C00000030
:104210006D656D20696E69742C206572726F7220F5
:10422000626567696E2061646472657373203078BB
:1042300025782C20616E6420656E64206164647250
:1042400065737320307825780A00000082B080B54D
:1042500082B0CDE9042304AA019200F0B1FC02B0BF
:10426000BDE8804002B07047002848BF40420B289C
:1042700099BF04A151F8200045F64210C0F6000095
:10428000704700BF08590008255900083A5900082E
:1042900012590008505900081A5900082B590008F3
:1042A0004A59000821590008325900080B590008E2
:1042B00042590008002100BF425C0131002AFBD1B5
:1042C000481E704710B5044662B1C2F10102601C7D
:1042D0000B7800F8013C3BB101320131012A00F1B9
:1042E0000100F5D1204610BD002AFBD05142FBF75A
:1042F0009EFF204610BD000080B50346033020F02D
:10430000030021F003010A1A04A01946FFF736FF43
:1043100042F6AC51C2F20001086080BD6865617070
:1043200000000000B0B542F6903042F69435C2F27B
:1043300000000024C2F20005048000BF2819FFF726
:10434000EDFA0834B4F5807FF8D142F69440C2F219
:10435000000000210160B0BD10B582B001A8FDF7DA
:1043600031FD044640F2FC20C2F200000460204609
:10437000FFF7E4FD032084F8340004F11C00FBF790
:1043800006FF02B010BD000080B540F2B800C2F2D6
:104390000000FFF7CBFA80BD70470000F0B583B096
:1043A0000E46014601201F461546FFF789FC88B1DD
:1043B00004463846FFF730FB70B10346DDE9080CD0
:1043C0003146CDE9007020462A46CDF808C0FDF7F9
:1043D0003DFD05E0002403E02046FFF799FC0024A2
:1043E000204603B0F0BD000070B540F25800C2F2A4
:1043F0000000056885420CD0A5F11404FBF792FE7D
:1044000006462846FFF7E0FA3046FBF78FFE2046C7
:1044100070BD0024204670BD80B51430FFF78AFAC5
:1044200080BD000040F2E0240025C2F2000400BF7D
:1044300054F82500002818BF80470135042DF7D116
:10444000FFF762F80025F3E7B0B586B004AC12A11F
:1044500020460022FFF7FAFE42F698424FF48071A0
:10446000C2F2000240F268251F20CDE90021C2F20D
:10447000000544F225424FF0200C0290C0F60002E5
:10448000284621460023CDF80CC000F009F8284644
:1044900000F070F806B0B0BD7469646C6525640006
:1044A0002DE9F04784B015460A46DDE90C86DDE9C2
:1044B0000E9A01211C460746FFF75EFC3846294646
:1044C00022464346CDE90069CDF808A0FDF7BEFCC1
:1044D000002004B0BDE8F08780B500F081F800F05E
:1044E00025F880BDB0B5044690F8340000F0070010
:1044F00002281CBF4FF0FF30B0BDFBF713FE05468E
:1045000004F11400FFF778FA04F1440000F0B8F960
:104510002046FFF7DDFC2846FBF708FE0020B0BD73
:1045200040F2FC20C2F2000000687047F0B581B094
:104530000090FFF7F5FF0446FBF7F4FD0546002762
:104540002046276300F02AF804F144066A46304604
:10455000002100F0E9F8304600F054F92846FBF756
:10456000E5FDFFF735FC206B023008BF2763206BA9
:1045700001B0F0BD80B590F83510012202FA01F1CA
:104580008163022180F83410FFF7ACFFFFF7C8FF0A
:10459000002818BFFFF71CFC002080BDB0B5044602
:1045A00090F8340000F0050001281CBF4FF0FF30E8
:1045B000B0BDFBF7B7FD05462046FFF7BFFC94F8FA
:1045C000340000F0F800023084F8340004F14400B4
:1045D00000F056F92846FBF7A9FD0020B0BD000009
:1045E000002844BF4FF0FF30704744F6D351C1F26A
:1045F000620180FB01239A1102EBD3724FF47A73AC
:1046000002FB1300584300F2E73080FB01018811E0
:1046100000EBD17002FB03007047000042F69C5093
:10462000C2F200000068704710B5FBF77BFD42F650
:104630009C51C2F200010A680446501C0860FFF752
:104640006FFF016C0139016405D02046FBF76EFD58
:1046500000F012F810BDC16B90F83420016442F0F4
:10466000080180F834102046FBF760FDFFF7B0FB2F
:1046700000F002F810BD00002DE9F04782B0684656
:10468000FFF754F9FFF7CAFF0746FBF74BFD40F26F
:10469000B805C2F2000580462846FFF785F928B123
:1046A0004046FBF743FD02B0BDE8F0874FF6FE7AC7
:1046B000C7F6FF7AE94604E02846FFF775F90028B7
:1046C000EED12C686069381A5045E9D8A4F1140677
:1046D0003046FDF721FC14F80B0C81075CBF00F09D
:1046E000FE0004F80B0C48462146FFF739F9D4E9DF
:1046F00002108847FFF792FF07464846FFF754F934
:104700000028D9D12046FFF77FF914F80B0C00F0F0
:1047100003010329D0D100F0FE0004F80B0C304651
:1047200000F070F8C8E7000070B514460E46054664
:10473000FBF7F8FC052E1DD8DFE806F00306090E8E
:10474000131A2168696215E0696A216012E0697ACA
:1047500001F0FD0169720DE0697A41F002016972B0
:1047600008E0697AC9070CBF00210121216001E03E
:10477000A96A2160FBF7DAFC002070BDF0B581B0BA
:104780000F4601460A201C461646FFF799FA50B11B
:10479000DDF818C03946324623460546CDF800C03C
:1047A000FDF7A8FB00E00025284601B0F0BD0000A1
:1047B000B0B50446FBF7B6FC05462046FDF7ACFB5A
:1047C000607A00F0FE0060722846FBF7AFFC2046DE
:1047D000FFF7B0FA0020B0BD2DE9F04182B01546D8
:1047E0000A46DDE908860A211C460746FFF7C4FA97
:1047F00038462946224643460096FDF77BFB02B029
:10480000BDE8F08170B50446FBF78CFC06462046F7
:10481000FDF782FB607A00F0FE006072FFF7FEFE9B
:1048200040F2B801C2F20001626A4B6810448B4248
:10483000A0620FD04FF6FE73C243C7F6FF7308465F
:1048400005686D6915449D4205D300684D68A8420E
:10485000F6D100E0084642F6A051C2F200010A6813
:1048600001320A6004F11401FFF77AF8607A40F02F
:10487000010060723046FBF759FC002070BD00005B
:10488000B0B50446407AC00704BF4FF0FF30B0BD5A
:10489000FBF748FC05462046FDF73EFB607A00F03A
:1048A000FE0060722846FBF741FC0020B0BD00000E
:1048B0002DE9F04F87B09946064645180DF1180AC4
:1048C0004FF0200B06920491002948BF4FF0FF35AE
:1048D000059011E0D9F800206C2909F104095FFA6C
:1048E00088F7CDE90040304629460297FEF7DCFC08
:1048F000069906460131069106980078252807D0CA
:10490000002800F04C81AE4238BF3070701CEFE7D9
:1049100006984FF0000801300178A1F12003102B18
:1049200016D81022DFE803F00E1414101414141417
:1049300014141412140A14140900012248EA02087B
:104940000130E9E70822F9E72022F7E70422F5E73A
:10495000A1F13002092A069004D8504600F092F9DD
:1049600004460EE02A290AD10130069059F8044B7A
:10497000B4F1FF3FDCBF644248F0100801E04FF0A3
:10498000FF34069801782E290CD1024612F8011F37
:10499000A1F13003092B069207D8504600F072F9B6
:1049A0000CE000BF4FF0FF300AE02A2904D10230AA
:1049B000069059F8040B01E04FF0FF3020EAE07058
:1049C000069A117841F004036C2B06BF013206925F
:1049D0000021069A1278253A532A00F23A800A23D7
:1049E000DFE802F031373737373737373737373780
:1049F0003737373737373737373737373737373747
:104A00003737373737373737373737373737373736
:104A10003737373737373745373737373737373718
:104A20003737522A373737372A37373737376469B6
:104A300037377B374837374748F002080A23682959
:104A40007FF448AF19E0AE423CBF25203070701CA7
:104A50004EE7AE423CBF25203070069A701C11789C
:104A6000002963D0A84238BF0170B01C40E748F06D
:104A70004008102368297FF42DAFB9F800205FEAC1
:104A8000887148BF12B228E75FEAC86052D4022C8E
:104A90004FDB00BFAE42A4F1010438BF86F800B07E
:104AA000012C06F10106F5DC002443E00823682907
:104AB0007FF410AFE1E7611CB1FA81F14FEA5111C7
:104AC00041EA080108BF082459F8042BCFB2CDE908
:104AD000004030462946102307E759F8041B45F6E5
:104AE000F0020029C0F6000208BF114600232CB1D5
:104AF000CA5C1AB101339C42FAD1234683421A465A
:104B0000C8BF02460028D8BF1A465FEAC8602BD447
:104B1000A24228DAAE42A4F1010438BF86F800B000
:104B2000A24206F10106F5DB541E1DE0511E06915E
:104B3000DEE6013CAE423CBFD9F80000307009F11E
:104B40000409022C06F10100FFF6D2AE611C00BF81
:104B5000A842A1F1010138BF80F800B0022900F19C
:104B60000100F5DCC4E6013C012A3046134608DBAF
:104B7000A8423CBF0F7807700130013B01F10101F1
:104B8000F6D1A242BFF6B4AEA842A4F1010438BFE8
:104B900080F800B0A24200F10100F5DBA8E604981D
:104BA000059A002848BFD04328B130460021AE42C4
:104BB00028BF681E0170B01A07B0BDE8F08F000072
:104BC00080B513460A464FF0FF31FFF771FE80BDF6
:104BD0000020704700207047002070470020704779
:104BE00080B5FBF79FFAFEF7FFFCFFF7D9F9FFF757
:104BF000CBFBFFF797FBFEF731FCFFF7CDFBFFF791
:104C000023FCFFF7A9FB002080BD000010B504467F
:104C100045F2FF70C0F60000FEF75CFE2046FEF78E
:104C200089F9FDF7F5FA40F2C00103A0C2F20001D4
:104C30002246FEF74FFE10BD2573257300000000CD
:104C4000F0B581B00768874214D004460AA50CA6C7
:104C500003E000BF3F68A7420CD0A7F1140228462A
:104C60000821FEF737FE3868A042F3D03046FEF741
:104C700031FEEFE701B0F0BD252E2A7300000000E1
:104C80002F00000080B501680A78303A092A84BFF5
:104C9000002080BD4A1E4FF0000C1346911C01609D
:104CA00013F801EF0CEB8C0192780EEB4101A1F1AE
:104CB000300CA2F130010A291A46EFD3604680BDBC
:104CC00090F800C00246BCF1000F0BD0024600BFB6
:104CD0000B783BB19C4505D112F801CF0131BCF1F5
:104CE000000FF5D1101A704782B040F2F025C2F2E1
:104CF00000050DF1060442F6D11600BF28682146D2
:104D00000022FEF7C3FE0A20ADF80660FFF7E4FBC1
:104D1000F4E7000082B040F2F426C2F200060DF182
:104D200006040BA542F6D11703E000BF0A20FFF7E7
:104D3000D3FB306821460022FEF7A8FE0028F5D1FB
:104D4000BDF80610284600F071F9ADF80670EDE7E1
:104D50007369673D25640D0A0000000080B541F2CB
:104D60000000C4F201004FF40051FBF785FC02A0E3
:104D700000F0AEFB80BD00BF68656C616B646600CF
:104D80007047000080B5014608A042F2107303A2EC
:104D9000994238BF104600F049F980BD746F206C0D
:104DA0006F63616C282564290A000000746F206716
:104DB000617465282564290A0000000080B540F26E
:104DC000680043F60001C2F20000C4F201010023B2
:104DD0004FF00C0C4FF4E13280E80E00C0E90333D1
:104DE000C0E905C3C361FCF705FA00B1FEE7002086
:104DF00080BD000070B542F6B454C2F200042046F3
:104E0000D021FBF714FA40F2D81544F68150C2F2D3
:104E10000005C0F60000C4E9325042F68464C2F2D4
:104E200000042046D021FBF702FA40F2202644F687
:104E30008550C2F20006C0F6000042F6A451C4E953
:104E40003260C2F2000128460122FCF723FB42F641
:104E5000A551C2F2000130460122FCF71BFB70BDD8
:104E6000B0B50C46097807295CD80546DFE801F0A3
:104E70000409141A22355D49AA2D55D1012020704C
:104E8000B0BDA5F15500B0FA80F040094000AA2D50
:104E900008BF01202070B0BD2802A4F886000320BE
:104EA0002070B0BDB4F886002843A4F88600042022
:104EB0002070B0BD392D32D2B4F88600A4F88450E9
:104EC000A4F888000020A4F88200052084F88A5005
:104ED000002D08BF06202070B0BDB4F8820037282E
:104EE00005D8411C2044A4F8821080F88B50B4F8F7
:104EF0008200B4F88410884238BFB0BD062020700C
:104F0000B0BD0D2D0BD1012084F8C400D4F8CC30F5
:104F1000B4F8880094F88A2004F18B0198470020A7
:104F20002070B0BD00202070B0BDB4F8880094F8A7
:104F30008A1004F18B02FDF769F80021A84208BF2E
:104F400007212170B0BD000010B54EF62A541AA0FA
:104F5000CEF20004FEF7BEFC21881BA0FEF7BAFCCF
:104F60002088C00702D01EA0FEF7B4FC208880076E
:104F700002D51EA0FEF7AEFC2088400702D51EA079
:104F8000FEF7A8FC2088000702D51DA0FEF7A2FCB2
:104F90002088C00502D51CA0FEF79CFC2088800557
:104FA00002D51CA0FEF796FC45F2FF70C0F600008B
:104FB000FEF790FC10BD00BF7573616765206661E8
:104FC000756C743A0A0000005343425F43465352E3
:104FD0005F554653523A3078253032582000000051
:104FE000554E444546494E5354522000494E56535F
:104FF0005441544520000000494E565043200000C3
:105000004E4F435020000000554E414C49474E45FD
:105010004420000044495642595A45524F2000004E
:1050200080B5FEF7BDFF002080BD00000FB4054B2A
:1050300010B503A9044A029800F018F810BC5DF8F6
:1050400014FB0000C92600080000002002E008C888
:10505000121F08C1002AFAD170477047002001E0F2
:1050600001C1121F002AFBD1704700002DE9FF4F3C
:105070008DB00F460546002606E025280BD0DDE959
:105080000F1290476D1C761C28780028F5D111B0BE
:105090003046BDE8F08F0024A246A1460122EC492B
:1050A00000E0044315F8013F203B02FA03F00842F8
:1050B000F7D128782A2810D06FF02F022878A0F195
:1050C0003001092914D80AEB8A0102EB410144F0AE
:1050D000020400EB010A6D1CF0E701CF5FEA000A51
:1050E00003D544F40054CAF1000A44F002046D1CD4
:1050F00028782E2817D115F8010F44F004042A2827
:105100000ED06FF02F022878A0F1300109290AD8BB
:1051100009EB890102EB410100EB01096D1CF2E78B
:1051200057F8049B6D1C28786C280FD006DC4C289F
:1051300017D068280DD06A2814D104E0742810D044
:105140007A280FD10DE044F400140AE044F48014EE
:1051500001E044F440146978814202D104F58014DE
:105160006D1C6D1C2A786E2A1FD00CDC632A31D08E
:1051700004DC002A8BD0582A11D1A3E0642A68D01D
:10518000692A0CD165E0732A2ED004DC6F2A73D013
:10519000702A04D19BE0752A6FD0782A6ED0104611
:1051A000DDE90F129047761C50E1C4F3025002284B
:1051B00006D0032809D0042801CF09D0066045E1B4
:1051C00001CFF117C0E9006140E101CF06803DE168
:1051D00006703BE117F8040B8DF8000000208DF8F5
:1051E0000100EB46012003E057F804BB4FF0FF300D
:1051F00061074FF0000102D40DE008F1010188467B
:1052000049450FDA8045F8DB1BF808100029F4D176
:1052100008E008F1010188468142FADB1BF808101A
:105220000029F6D1DDE90F23AAEB080081462146CB
:1052300000F036F9304400EB080604E0DDE90F1217
:105240001BF8010B9047B8F10108F7D221464846F8
:10525000F7E00A21C4F302534FF0000B0891022B30
:1052600004D001CFC117032B09D00AE0FF1D27F09E
:105270000707F7E8020108E032E01FE020E000B293
:10528000C117042B01D140B2C117031E71F10003F5
:1052900007DA4FF0000CD0EB0C006CEB01012D2372
:1052A00002E0230504D52B238DF82430012303E0ED
:1052B000E30701D02023F7E7984658E00A2110E0E1
:1052C00010210EE010204FF0000B08900CE0102190
:1052D0004FF0000B44F004044FF00809089103E07C
:1052E00008214FF0000B0891C4F30253022B04D0A5
:1052F00001CF0021032B06D006E0FF1D27F0070792
:10530000F7E8020103E080B2042B00D1C0B24FF0F5
:10531000000823072BD5702A07D0DDF820C08CF0B9
:10532000100C5CEA0B0C05D00EE040238DF8243005
:10533000012308E050EA010306D030238DF8243021
:105340008DF8252002239846DDF820C08CF0080C4B
:105350005CEA0B0C0BD150EA010301D1630706D5BF
:1053600030238DF824304FF00108A9F10109582AA3
:1053700004D038A20B9208AA0A920BE03AA2F9E7ED
:105380005B46089AFAF78EFF0B9B9B5C0A9A521EAB
:105390000A92137050EA0102F2D10A98ADEB0000B4
:1053A00000F1200B600702D524F4803401E04FF0B7
:1053B0000109D94502DDA9EB0B0000E0002000EB5C
:1053C0000B0141440890AAEB010AE00306D4DDE991
:1053D0000F232146504600F063F806444FF00009C1
:1053E00008E009A911F80900DDE90F12904709F159
:1053F0000109761CC145F4DBE0030CD5DDE90F2380
:105400002146504600F04CF8064404E0DDE90F1256
:1054100030209047761C0899481E08900029F5DC3A
:1054200008E00A980A990078491C0A91DDE90F12F0
:105430009047761CBBF10001ABF1010BF1DC21467A
:105440005046DDE90F2300F019F806446D1C1BE6F9
:10545000092801003031323334353637383961624A
:10546000636465660000000030313233343536370E
:105470003839414243444546000000002DE9F041DF
:10548000044600251E461746880404D405E0394624
:105490002020B0476D1C641EF9D52846BDE8F08178
:1054A0002DE9F041044600251E469046C80301D56B
:1054B000302700E02027880404D505E0414638461F
:1054C000B0476D1C641EF9D52846BDE8F081000088
:1054D00010B5044601E0FDF7F7F814F8010B044994
:1054E0000028F8D1BDE810400A20FDF7EDB8000013
:1054F0000000002000000000000000000102030482
:105500000607080900000000010203040000010072
:10551000020001000300010002000100040001007C
:10552000020001000300010002000100050001006B
:10553000020001000300010002000100040001005C
:10554000020001000300010002000100060001004A
:10555000020001000300010002000100040001003C
:10556000020001000300010002000100050001002B
:10557000020001000300010002000100040001001C
:105580000200010003000100020001000700010009
:1055900002000100030001000200010004000100FC
:1055A00002000100030001000200010005000100EB
:1055B00002000100030001000200010004000100DC
:1055C00002000100030001000200010006000100CA
:1055D00002000100030001000200010004000100BC
:1055E00002000100030001000200010005000100AB
:1055F000020001000300010002000100040001009C
:10560000020001000300010002000100636C6561FB
:105610007200636C65617220746865207465726DD8
:10562000696E616C2073637265656E007665727376
:10563000696F6E0073686F772052542D54687265DD
:1056400061642076657273696F6E20696E666F7231
:105650006D6174696F6E006C6973745F74687265F4
:105660006164006C69737420746872656164006CB5
:105670006973745F73656D006C6973742073656D15
:105680006170686F726520696E2073797374656DDF
:10569000006C6973745F6D61696C626F78006C692E
:1056A0007374206D61696C20626F7820696E20735D
:1056B000797374656D006C6973745F74696D65727C
:1056C000006C6973742074696D657220696E207353
:1056D000797374656D006C697374006C6973742000
:1056E0006F626A656374730068656C700052542D54
:1056F000546872656164207368656C6C2068656CC1
:10570000702E007073004C69737420746872656148
:10571000647320696E207468652073797374656D95
:105720002E00667265650053686F77207468652087
:105730006D656D6F727920757361676520696E2084
:105740007468652073797374656D2E007265626F7D
:105750006F74005265626F6F742053797374656D56
:105760000055736167653A206C697374205B6F70D4
:1057700074696F6E735D0A00252D2A2E7320707276
:105780006920207374617475732020202020207399
:10579000702020202020737461636B2073697A6508
:1057A000206D61782075736564206C656674207463
:1057B00069636B20206572726F720A002030782551
:1057C0003038782030782530387820202020253057
:1057D0003264252520202030782530387820257324
:1057E0000A006F6E652073686F740A0063757272C9
:1057F000656E74207469636B3A3078253038780AA6
:1058000000616374697661746564202020002069FA
:105810006E69742020200020636C6F736520200067
:105820002072656164792020006465616374697623
:10583000617465642000746872656164002073752A
:105840007370656E64002072756E6E696E670074A9
:10585000696D6572006D61696C626F780008002582
:10586000630068617264206661756C74206F6E20DD
:1058700068616E646C65720D0A0D0A00686172647D
:10588000206661756C74206F6E2074687265616447
:105890003A2025730D0A0D0A007230303A20307814
:1058A000253038780A007230313A20307825303887
:1058B000780A007230323A203078253038780A0081
:1058C0007230333A203078253038780A007230341C
:1058D0003A203078253038780A007073723A2030D8
:1058E00078253038780A000A205C207C202F0A00B6
:1058F000284E554C4C290030313233343536373848
:1059000039414243444546004F4B0045494E5641BC
:105910004C0045525346554C4C00454E4F4D454D5D
:105920000045494F004552524F5200454E4F535982
:10593000530045494E54525054004554494D4F551B
:10594000540045554E4B4E4F570045425553590054
:10595000455253455054590030313233343536377F
:10596000383961626364656600000000DD4B000841
:10597000D54B0008BD4D0008D14B0008B9220008E6
:10598000D94B00080C5600081256000829200008C0
:105990002C560008345600082150000857560008BD
:1059A00063560008452B00086F560008785600081B
:1059B0000D2A0008915600089E560008B9280008D4
:1059C000B6560008C1560008C52C0008D656000877
:1059D000DB560008BD200008E8560008ED56000818
:1059E000993000080357000806570008D121000825
:1059F00022570008275700083D2000084C57000890
:105A00005357000855340008285A000800000020A9
:105A1000680000004C500008905A00086800002000
:105A2000F03200005C5000080000000000127A0014
:105A3000010000000C0000200C0000207800000095
:105A4000020000001C0000201C00002020000000BC
:105A5000050000002C0000202C0000203000000079
:105A60000A0000003C0000203C0000202C00000048
:105A70000C0000004C0000204C000020280000001A
:105A80005800002058000020010000001000000015
:04000005080000ED02
:00000001FF
