:020000040800F2
:100000008007002089010008231800081D16000839
:1000100021180008F3020008B51A000800000000CB
:100020000000000000000000000000002718000889
:10003000F502000800000000251800082918000833
:10004000A3010008A3010008A3010008A301000800
:10005000A3010008A3010008A3010008A3010008F0
:10006000A3010008A3010008A3010008A3010008E0
:10007000A3010008A3010008A3010008A3010008D0
:10008000A3010008A301000891020008A3010008D1
:10009000A3010008A3010008A3010008A3010008B0
:1000A000A301000801190008A3010008A30100082A
:1000B0000D190008A3010008A3010008A30100080E
:1000C000A3010008A3010008A3010008A301000880
:1000D000A3010008A3010008A3010008A301000870
:1000E000A3010008A3010008A301000800F002F822
:1000F00000F03AF80AA090E8000C82448344AAF188
:100100000107DA4501D100F02FF8AFF2090EBAE885
:100110000F0013F0010F18BFFB1A43F0010318473B
:100120000C1A00002C1A0000103A24BF78C878C1BD
:10013000FAD8520724BF30C830C144BF04680C60ED
:10014000704700000023002400250026103A28BF35
:1001500078C1FBD8520728BF30C148BF0B60704739
:100160001FB51FBD10B510BD00F058F81146FFF7C0
:10017000F7FF01F0B1FC00F076F803B4FFF7F2FFEF
:1001800003BC00F07DF8000009488047094800479B
:10019000FEE7FEE7FEE7FEE7FEE7FEE7FEE7FEE737
:1001A000FEE7FEE704480549054A064B7047000094
:1001B000FD180008ED0000088001002080070020E5
:1001C00080030020800300204FF0000200B513469A
:1001D00094469646203922BFA0E80C50A0E80C5067
:1001E000B1F12001BFF4F7AF090728BFA0E80C5018
:1001F00048BF0CC05DF804EB890028BF40F8042B11
:1002000008BF704748BF20F8022B11F0804F18BF7D
:1002100000F8012B7047704770477047754600F033
:100220002BF8AE4605006946534620F00700854688
:1002300018B020B5FFF7B6FFBDE820404FF000062C
:100240004FF000074FF000084FF0000B21F00701BE
:10025000AC46ACE8C009ACE8C009ACE8C009ACE801
:10026000C0098D46704710B50446AFF300802046A4
:10027000BDE81040FFF781BF004870472001002013
:1002800001491820ABBEFEE72600020070470000BF
:10029000014800F0A2B900001800002070B5044623
:1002A00000688168C943C90717D1816821F001013D
:1002B000816000F0C3FB05460AE000BF00F0BEFB12
:1002C000401B022804D920688068C043C00706D0BC
:1002D00020688068C043C007F0D0002070BDA06ACD
:1002E00040F01000A062E06A40F00100E0620120EE
:1002F00070BDFEE7704772B6FEE70000F8B5002259
:10030000009290F8244083681646012C1CD00124EA
:1003100080F82440D3B14D680B691F249D4226D834
:100320001F055B1BC3F103030D6803EB83039D40B3
:10033000A7F580172F439C40036844F440159C6B3D
:10034000AC4327439F631EE00220F8BD4B68012B9E
:1003500005D0826A42F020028262012213E0036823
:100360009C6B0D686FF3150444EAC5340AE05B1B0F
:10037000C3F1030303EB83039C40036844F440157B
:100380009C6BAC439C6303689C68E443E40706D021
:100390009C6847F20105AC438D692C439C604B7D02
:1003A000012B08D18B69B3F5E04F08D0826A42F087
:1003B0002002826201220B7D012B06D00CE0036833
:1003C0005C6844F480645C60F5E74B7DA3B1826AAD
:1003D00042F02002826201220B68072405680A2B82
:1003E00010D3EF680A3B03EB43039C40A7438C68A0
:1003F0009C402743EF600EE003685C6844F480543F
:100400005C60E9E72F6903EB43039C40A7438C68DA
:100410009C4027432F610B68102B01D0112B04D176
:1004200003689C6844F400049C604B68012B10D066
:10043000022B16D0032B03681BD01C6ACD686FF308
:100440000B042C431C620B68102B19D0112B17D0F6
:1004500037E003685C69CD686FF30B042C435C6183
:10046000F1E703689C69CD686FF30B042C439C6132
:10047000E9E7DC69CD686FF30B042C43DC61E2E74C
:10048000124C0368A34217D19C68240219D49C68BB
:1004900044F400049C600968102912D10C490D4BEA
:1004A0000968B1FBF3F101EB8101490000E0491E4D
:1004B00000910029FBD104E0816A41F020018162B2
:1004C000012280F824601046F8BD0000002401409D
:1004D0001400002040420F0070470000F8B50024CF
:1004E000009490F824202546012A12D0012280F899
:1004F00024204A681F23072A0DD20668776B521EF4
:1005000002EB820293409F430B6893401F43776343
:1005100019E00220F8BD06680D2A0AD2376BD21FF7
:1005200002EB820293409F430B6893401F43376363
:1005300009E0F76A0D3A02EB820293409F430B6891
:1005400093401F43F7620A68072306680A2A0AD302
:10055000F7680A3A02EB420293409F438B6893404C
:100560001F43F76008E0376902EB420293409F4364
:100570008B6893401F4337610A68102A01D0112A03
:1005800020D1124B02689A4217D193681B0219D4EA
:10059000936843F4000393600968102912D10C4951
:1005A0000C4A0968B1FBF2F101EB8101490000E05E
:1005B000491E00910029FBD104E0816A41F020012D
:1005C0008162012480F824502046F8BD00240140B7
:1005D0001400002040420F00704770B504460068C8
:1005E00006684568A90625D5B10723D5A16AC906BD
:1005F00003D4A16A41F40071A1628168C1F3424150
:10060000072910D1217B71B9416821F02001416097
:10061000A06A20F48070A062A06AC00403D4A06A1B
:1006200040F00100A0622046FFF7D6FF21686FF07E
:100630001200086028062ED570072CD5A06AC006C7
:1006400003D4A06A40F40050A06220688168C1F31E
:100650000231072909D04168490515D48168C1F3E1
:100660004241072910D1217B71B9416821F08001F5
:100670004160A06A20F48050A062A06AC00503D443
:10068000A06A40F00100A0622046FFF725FF216824
:100690006FF00C00086068060CD5F0070AD0A06A5D
:1006A00040F48030A062204600F094F821686FF09A
:1006B0000100086070BD00002DE9F0414FF0000717
:1006C00004003D467ED0A06A002628B9E66284F880
:1006D0002460204600F080F82046FFF7DFFDA16A85
:1006E000C90600D420B1A06A40F01000A06269E001
:1006F000A16A21F4885141F00201A1626268E169B6
:10070000237B0A4347EA43010A43A1684FF48077F9
:10071000B94209D0012907D05FF0000194F814C054
:10072000BCF1010F02D00AE03946F7E7F3B1A36A42
:1007300043F02003A362E36A43F00103E36223680A
:10074000D3F804C02CF4694C4CEA010CC3F804C083
:1007500021688B68DFF870C003EA0C0313438B60D9
:10076000A168B9420BD0012909D00CE0DFF85CC0C8
:10077000A3690CEB43330B4343F40061DFE7218AA9
:100780000D05A5F580152168CB6A23F470032B4372
:10079000CB62216889680E4B1940914208D1E6620C
:1007A000A16A21F0020141F00101A162BDE8F081DE
:1007B000A06A20F0020040F01000A062E06A40F061
:1007C0000100E0620120F1E7FDF7E1FF00E0FFFF3B
:1007D000FE0E1FFF7047000000B585B0002100919C
:1007E00001910291039100681249884220D1124878
:1007F000816941F400718161816901F400710491A2
:10080000816941F0040181618069694600F004005A
:1008100004903020009003200190084800F010F868
:1008200000221146122000F075F9122000F064F940
:1008300005B000BD00240140001002400008014046
:100840002DE9F84FDFF8B8910024A9F1040B2346F5
:100850000F2709F1040AABF1040EC9E00125A540F8
:100860002A40AA427DD1674ED1F804C0ACEB0608FD
:10087000B44532D014DCBCF1030F3AD009DCBCF132
:10088000000F2AD0BCF1010F1CD0BCF1020F31D1F6
:100890001DE0BCF1110F17D0BCF1120F2AD119E0E5
:1008A000B8F5881F19D006DCB8F5803F15D0B8F52B
:1008B000801F1FD111E0B8F5001F0ED0B8F5041F3E
:1008C00018D10AE0CB6815E0CB681B1D12E0CB689D
:1008D00008330FE0CB680C330CE08B682BB1012B95
:1008E0004FF0080303D0456104E0042302E00561F2
:1008F00000E00023FF2A01D8064601E000F10406CB
:100900004FEA840501D9A5F12005D6F8008007FA41
:1009100005FC28EA0C0803FA05F548EA0508C6F8BC
:1009200000804D68ED0062D5374DAE6946F0010696
:10093000AE61AD6924F0030605F001050095334D65
:1009400006EB050CDCF80850A607360F07FA06F888
:1009500025EA0805DFF8B880404503D14FF00008CC
:1009600017E044E0DFF8AC80404502D14FF00108C9
:100970000FE0DFF8A480404502D14FF0020808E004
:10098000DFF89880404502D14FF0030801E04FF0B6
:10099000040808FA06F848EA0508CCF808804D680B
:1009A000D9F80060ED024D4601D5164300E09643AC
:1009B0002E604D68DAF80060AD02554601D5164349
:1009C00000E096432E604D68DBF80060AD035D46A5
:1009D00001D5164300E096432E604D68DEF80060B6
:1009E000ED03754601D5164300E096432E60641C66
:1009F0000D682A46E5407FF431AFBDE8F88F00006E
:100A000008040140000011100010024000000140E5
:100A100000080140000C014000100140001401409A
:100A2000C26821EA02030A4043EA024101617047B9
:100A30000AB1016170470904FBE7000001488068C2
:100A400070470000080000200248816802781144C5
:100A50008160704708000020074810B5016841F028
:100A600010010160032000F075F80F2000F006F877
:100A700000F024F8002010BD0020024070B50D4D9C
:100A800004464FF47A712878B1FBF0F00A490968FE
:100A9000B1FBF0F000F052FB48B9102C07D2002255
:100AA0002146501E00F036F800206C6070BD012019
:100AB00070BD000008000020140000200C4808B59C
:100AC000816941F001018161816901F001010091B9
:100AD000C16941F08051C161C06900F0805000904F
:100AE0000448416821F0E06141F00071416008BDB7
:100AF0000010024000000140002809DB00F01F0246
:100B0000012191404009800000F1E020C0F800116F
:100B100070470000F0B40E4B1B680C46C3F3022371
:100B2000C3F10705042D00D90425191D072901D299
:100B3000002300E0DB1E012606FA05F1491E2140D4
:100B400099409E40761E16403143F0BC00F0B3BF82
:100B50000CED00E0064900F0070208684FF6FF03BD
:100B6000184040EA0220034A104308607047000022
:100B70000CED00E00000FA052DE9F8430546007889
:100B8000354CC00754D0E0690026C00008D4E069A5
:100B900040F08050E061E069012600F08050009054
:100BA0002E480168C90512D40168804641F480715D
:100BB0000160FFF743FF074605E000BFFFF73EFF78
:100BC000C01B642823D8D8F80000C005F6D5206AD9
:100BD00010F4407021D0A98801F4407181421CD0EA
:100BE000206A1F49012220F440700A6000220A6036
:100BF0002062C00711D0FFF721FF074641F2883875
:100C000008E000BFFFF71AFFC11B414502D90320CE
:100C1000BDE8F883206A8007F4D5206A696820F46B
:100C20004070084320621EB1E06920F08050E0610E
:100C30002878800705D56068A96820F440400843FB
:100C400060602878C00605D56068E96820F48000F7
:100C5000084360600020DBE70010024000700040A5
:100C6000400442422DE9F0470F46050061D0434E53
:100C7000306800F00700B84209D2306820F0070061
:100C800038433060306800F00700B84251D128681E
:100C90003B4C810712D5400703D5606840F4E06003
:100CA00060602878000703D5606840F46050606099
:100CB0006068A96820F0F000084360602878C007E9
:100CC00028D06868012810D02168022810D0890730
:100CD00000292EDA616821F0030101436160FFF70A
:100CE000ADFE804641F288390DE021688903EFE7C7
:100CF0008901EDE7FFF7A2FEA0EB0801494502D903
:100D00000320BDE8F0876068696800F00C00B0EB74
:100D1000810FEFD1306800F00700B8420BD930687E
:100D200020F0070038433060306800F00700B84218
:100D300001D00120E5E72878400705D56068E9681B
:100D400020F4E060084360602878000706D56068FA
:100D5000296920F4605040EAC100606000F038F872
:100D60006168084AC1F30311515CC8400649086034
:100D700006480068FFF782FE0020C2E7002002401C
:100D800000100240121B0008140000200C0000207C
:100D90000448054900684968044AC1F30221515CCE
:100DA000C84070471400002000100240221B0008B9
:100DB0000448054900684968044AC1F3C221515CEE
:100DC000C84070471400002000100240221B000899
:100DD0000E4A51680E4801F00C03042B11D0082B69
:100DE0000FD10C48C1F38343C903C05C0AD55168D5
:100DF000084AC1F34041921E515C054A5043B0FB82
:100E0000F1F0704704494843704700000010024069
:100E100000127A00021B000800093D002DE9F84F7E
:100E2000040070D02078C04DC00749D06868C0F376
:100E30008100012807D06868C0F38100022809D129
:100E40006868C00306D52868800339D56068002823
:100E5000E7D035E06068B0F5803F0BD010B1B0F559
:100E6000A02F11D0286820F480302860286820F452
:100E7000802002E0286840F480302860606890B1EB
:100E8000FFF7DCFD06460AE0286840F48020286071
:100E9000F0E700BFFFF7D2FD801B642873D82868F5
:100EA0008003F7D50CE0FFF7C9FD064605E000BF5B
:100EB000FFF7C4FD801B6428F0D828688003F7D4AE
:100EC00020789A4E80074FF001094FF0000839D57D
:100ED000686810F00C0F07D06868C0F38100022822
:100EE00009D16868C00306D42868800714D5206932
:100EF000012808D110E02069B0B1C6F80090FFF7D2
:100F00009DFD074605E00AE1FFF798FDC01B02289A
:100F1000C4D828688007F7D52868616920F0F800F0
:100F200040EAC10028600DE0C6F80080FFF786FDAA
:100F3000074604E0FFF782FDC01B022823D828687B
:100F40008007F7D4207800072CD57948A169D9B15A
:100F5000C0F80090FFF772FD074604E0FFF76EFD52
:100F6000C01B02280FD8686A8007F7D571484FF474
:100F7000FA510068B0FBF1F0009000BF0098411EEC
:100F80000091FAD20EE080E0C0F80080FFF756FD35
:100F9000074604E0FFF752FDC01B022875D8686AB7
:100FA0008007F7D42078400760D5E8690027C000A3
:100FB00008D4E86940F08050E861E869012700F052
:100FC000805000905C480168C90513D401688346CD
:100FD00041F480710160FFF731FD824606E000BFF9
:100FE000FFF72CFDA0EB0A0064284ED8DBF80000C8
:100FF000C005F5D5E06801280AD008B1052813D04E
:10100000286A20F001002862286A20F0040002E02B
:10101000286A40F001002862E06841F2883B98B1FC
:10102000FFF70CFD82460BE0286A40F004002862BE
:10103000EEE700BFFFF702FDA0EB0A0159455AD8C1
:10104000286A8007F6D50CE0FFF7F8FC824605E039
:10105000FFF7F4FCA0EB0A0159454CD8286A800739
:10106000F6D41FB1E86920F08050E861E06988B3E8
:101070006968C1F38101022944D00228C6F8608062
:1010800004D0FFF7DBFC044638E034E0FFF7D6FC81
:10109000074604E0FFF7D2FCC01B02282BD82868C3
:1010A0008001F7D4206AB0F5803F05D16868A16857
:1010B00020F4003008436860D4E9080108436968F7
:1010C00021F4741108436860C6F86090FFF7B6FC1D
:1010D000044606E025E000BFFFF7B0FC001B022835
:1010E00009D828688001F7D51BE000BFFFF7A6FCF0
:1010F000001B022802D90320BDE8F88F2868800170
:10110000F4D40EE00128F7D06868226A00F4803138
:10111000914204D1616A00F47010884201D001202C
:10112000EAE70020E8E70000001002400000424229
:1011300080044242140000200070004010B5401EA0
:10114000B0F1807F01D3012010BD4FF0E024606139
:101150000F21601700F0AFFC0020A0610720206184
:10116000002010BD7047704770B590F83C20012AF0
:1011700026D0012480F83C40022280F83D200368FC
:101180005A689D6822F070060A6832435A600D4B17
:1011900002689A4208D0B2F1804F05D00A4B9A42B9
:1011A00002D00A4B9A4204D1496825F080031943C2
:1011B000916080F83D40002180F83C10084670BDE9
:1011C000022070BD002C01400004004000080040D7
:1011D00010B5040003D094F83D0010B107E00120E1
:1011E00010BD002084F83C00204600F01FF80220CB
:1011F00084F83D00211D206800F08EFB012084F85A
:10120000460084F83E0084F83F0084F8400084F8EB
:10121000410084F8420084F8430084F8440084F8D4
:10122000450084F83D00002010BD000008B5154AB7
:101230000168154891420ED1816941F400618161D4
:101240008069002200F40060009011461920FFF729
:1012500061FC192010E0B1F1804F11D1C16941F05A
:101260000101C161C069002200F001000090114637
:101270001C20FFF74FFC1C20BDE80840FFF73CBCDA
:1012800008BD0000002C01400010024090F83D1005
:10129000012901D001207047022180F83D1001682A
:1012A000CA6842F00102CA6000680B49884208D04F
:1012B000B0F1804F05D00949884202D008498842E0
:1012C00004D1816801F00701062903D0016841F0CB
:1012D0000101016000207047002C01400004004023
:1012E000000800400168CA6822F00102CA60016873
:1012F0000A6A41F211131A4207D10A6A9B101A4274
:1013000003D10A6822F001020A60012180F83D1031
:101310000020704770B5044690F83C000025012875
:1013200017D0012684F83C60022084F83D00206834
:10133000826822F0770222F47F4282600868502897
:1013400038D00DDC20284FD005DC90B3102811D107
:101350004AE0022070BD302846D040280AD13BE048
:1013600060282FD070280DD0B0F5805F03D0B0F585
:10137000005F12D0012584F83D60002084F83C0015
:10138000284670BDCB68D1E90121206800F000FB40
:101390002068816841F0770109E0CB68D1E901213B
:1013A000206800F0F5FA2068816841F4804181608E
:1013B000E1E719E0CA684968206800F0FBFA5021AB
:1013C000206806E0CA684968206800F004FB6021D4
:1013D000206800F0E7FACEE7CA684968206800F0A4
:1013E000E9FA40212068F4E7226801461046F0E758
:1013F00070472DE9F04104460068C66805694FF062
:101400000007A90713D5B10711D5F91E0161012005
:101410002077206880698007204602D0FFF7E8FF28
:1014200004E000F07EF8204600F07CF8277768079B
:1014300016D5700714D521686FF0040008610220EA
:1014400020772068806910F4407F204602D0FFF7A3
:10145000CFFF04E000F065F8204600F063F827773E
:10146000280715D5300713D521686FF008000861EB
:10147000042020772068C0698007204602D0FFF74B
:10148000B7FF04E000F04DF8204600F04BF8277756
:10149000E80616D5F00614D521686FF01000086133
:1014A000082020772068C06910F4407F204602D0D1
:1014B000FFF79EFF04E000F034F8204600F032F819
:1014C0002777E80708D0F00706D021686FF0010001
:1014D0000861204600F028F8280608D5300606D511
:1014E00021686FF0800008612046FFF73BFE680628
:1014F00008D5700606D521686FF0400008612046C7
:1015000000F020F8A8060AD5B00608D521686FF0CB
:10151000200008612046BDE8F041FFF724BEBDE889
:10152000F08170477047000000680449884203D189
:1015300041140348FFF774BA70470000002C0140C3
:1015400000100140704770B5040004D094F84100C9
:10155000002510B106E0012070BD84F840502046FF
:1015600000F024F8242084F841002068C16821F4A8
:101570000051C160204600F041FA2068016921F461
:10158000904101612068416921F02A014161206890
:10159000C16841F40051C1606564202084F84100B5
:1015A00084F842006563002070BD000030B585B04E
:1015B0000024009401940294039400681449884222
:1015C00024D11448816941F480418161816901F429
:1015D00080410491816941F00401816180690E4D6F
:1015E00000F0040004904FF400700090022001907D
:1015F0000320039069462846FFF722F92815CDE914
:101600000004694628460294FFF71AF905B030BD78
:10161000003801400010024000080140FEE70000D1
:1016200030B58BB00024079408941C2168460994B7
:10163000FEF7CAFD1A481949012584600160047348
:10164000047505614FF460214460C161FFF734F80F
:1016500008B1FEF750FE04200994CDE9070507A95B
:101660000F48FEF73BFF08B1FEF745FE0520CDE928
:1016700000054FF4E04006908DF815400495029463
:101680008DF81440694606480394FEF737FE00289B
:1016900001D0FEF730FE0BB030BD00000024014049
:1016A0001800002070B586B00024184800940194FA
:1016B00002940394816941F010018161816901F014
:1016C00010010491816941F020018161816901F07B
:1016D00020010491816941F00401816180690C4E0F
:1016E00000F004004FF400550490002229463046D3
:1016F000FFF79EF901200095CDE901040220039037
:1017000069463046FFF79CF806B070BD00100240F5
:101710000010014010B586B00024184800940194D0
:1017200002940394049414490594016041F61F4106
:10173000C0E9011440F2E731C0E903148021C0E997
:101740000541FFF745FD08B1FEF7D5FD4FF4805088
:10175000009069460948FFF7DDFD08B1FEF7CBFDB3
:10176000049404A905480594FFF7FEFC002801D065
:10177000FEF7C1FD06B010BD002C0140480000205E
:1017800010B586B000241748009401940294039485
:1017900004944FF080410594016041F61F41C0E977
:1017A000011440F2E731C0E9031480218161FFF7A1
:1017B0000FFD08B1FEF79FFD4FF480500090694681
:1017C0000848FFF7A7FD08B1FEF795FD049404A9AA
:1017D00004480594FFF7C8FC002801D0FEF78BFDF4
:1017E00006B010BD900000200C4810B50A490160F9
:1017F0004FF4E1314160002181600C22C160C0E9F9
:1018000004128161C161FFF79EFE002803D0BDE88C
:101810001040FEF770BD10BD00380140D800002018
:10182000FEE7FEE77047704770B5144C41F288310F
:101830006088401C80B26080884218D30025658093
:101840002088C0B1002020800D48FFF74BFD0C48D8
:101850000A492288091D046831F81230E36231F820
:101860001210C160006845620548FFF70FFDBDE832
:101870007040FFF7E9B80120E5E700000000002014
:101880004800002030B593B028216846FEF79CFC44
:1018900014210AA8FEF798FC002501200F95109549
:1018A0001195010412958DE8230004904FF4E01087
:1018B000CDE90810022407946846FFF7AFFA08B193
:1018C00072B6FEE70AA90F2081E831004FF480606C
:1018D000CDE90D0502210AA8FFF7C4F908B172B6D7
:1018E000FEE74FF4004011900F940FA8FFF744F962
:1018F000002801D072B6FEE713B030BD704700007B
:101900000148FFF776BD0000480000200148FFF7BE
:1019100070BD000090000020F0B50268194B1A4C11
:101920001A4D4FF08047984205D0B84203D0A042EC
:1019300001D0A84203D122F070064A68324398428F
:1019400005D0B84203D0A04201D0A84203D122F46E
:101950004074CA6822434C6922F08002224302602C
:101960008A68C2620A688262984201D10969016389
:10197000012141610169C90703D0016921F0010119
:101980000161F0BD002C014000040040000800404F
:1019900010B5846842EA032224F47F440A432243B8
:1019A000826010BD826822F070020A4342F0070193
:1019B0008160704710B5036A046A24F00104046270
:1019C000846924F0F00444EA021423F00A020A4372
:1019D0008461026210BD10B5036A046A24F0100429
:1019E0000462846923F0A00324F4704444EA0232C0
:1019F00043EA01118261016210BD000070B5044626
:101A000000680169E26821F44051114301612169D4
:101A1000A0680843616908432168CA6841F20C6301
:101A20009A430243CA6020684169A26921F4407167
:101A3000114341611E492068884202D1FFF7B8F97D
:101A400001E0FFF7A5F900EBC00101EB00126068AF
:101A500064218000B2FBF0F3B3FBF1F36FF01806E2
:101A60007343B2FBF0F5B2FBF0F605EB83053223CE
:101A700003EB0515B5FBF1F5B6FBF1F605F0F00546
:101A800005EB0615B2FBF0F6B2FBF0F0B0FBF1F09F
:101A90006FF01802504306EB800003EB0010B0FB20
:101AA000F1F0216800F00F002844886070BD00004C
:101AB00000380140FEE70907090E002804DB00F1A9
:101AC000E02080F80014704700F00F0000F1E020E3
:101AD00080F8141D70470000FEF7BEFFFFF7D2FE2E
:101AE000FFF7E0FDFFF79CFDFFF77EFEFFF748FEE6
:101AF000FFF710FE0148FFF7C9FBFEE74800002092
:101B0000010202030405060708090A0B0C0D0E0F5B
:101B1000101000000000000000000102030406078E
:101B20000809000000000102030400004C1B00082B
:101B3000000000201800000028010008641B0008B5
:101B400018000020680700004401000800000000A1
:101B5000E7030F2701000000100000000000000054
:041B600000127A00F5
:04000005080000ED02
:00000001FF
